:020000040800F2
:1000000060110020DD340008190E00081B0E0008E6
:100010001F0E0008230E0008270E00080000000035
:100020000000000000000000000000002B0E00088F
:100030002D0E0008000000002F0E0008310E0008F1
:10004000F7340008F7340008F7340008F7340008E4
:10005000F7340008F7340008F7340008F7340008D4
:10006000F7340008F7340008F7340008F7340008C4
:10007000F7340008F7340008F7340008F7340008B4
:10008000F7340008F7340008F7340008F7340008A4
:10009000F7340008F7340008F7340008F734000894
:1000A000F7340008F7340008F7340008F734000884
:1000B000F7340008F7340008215C0008F734000822
:1000C000F7340008F7340008F7340008F734000864
:1000D000F7340008D9330008F73400085711000836
:1000E000F7340008F7340008F7340008F734000844
:1000F000F7340008F7340008F7340008F734000834
:10010000F7340008F7340008F7340008F734000823
:10011000F7340008F7340008F734000845100008E9
:10012000F7340008F7340008F7340008F734000803
:10013000F7340008F7340008F7340008F7340008F3
:10014000F7340008F7340008F7340008F7340008E3
:10015000F7340008F7340008F7340008F7340008D3
:10016000F7340008F7340008F7340008F7340008C3
:10017000F7340008F7340008F7340008F7340008B3
:10018000F7340008F734000800F002F800F0B2F885
:100190000AA090E8000C82448344AAF10107DA45E2
:1001A00001D100F0A7F8AFF2090EBAE80F0013F082
:1001B000010F18BFFB1A43F0010318474CBC0000A5
:1001C0006CBC00000A444FF0000C10F8013B13F027
:1001D000070408BF10F8014B1D1108BF10F8015BA0
:1001E000641E05D010F8016B641E01F8016BF9D193
:1001F00013F0080F1EBF10F8014BAD1C0C1B09D1EA
:100200006D1E58BF01F801CBFAD505E014F8016B5B
:1002100001F8016B6D1EF9D59142D6D370470000ED
:100220000023002400250026103A28BF78C1FBD8FF
:10023000520728BF30C148BF0B6070476E2906F0D7
:100240006C86702906F06D83662909F08083652924
:1002500009F07D83672909F07A836129AFF3008073
:1002600003681B0A28BF41F08001692906F0DE827D
:10027000642906F0DB82752906F0D8826F2906F022
:100280006587782906F03983E92906F0FF86E42995
:1002900006F0FC86F52906F0F986EF2906F062875C
:1002A000F82906F038830368DB0928BF41F0800194
:1002B000632906F06E86732906F07386E32907F03A
:1002C0003A82F32907F03F82002070471FB509F0FA
:1002D00039FB07F04DFC04000020002108F0F6FD7A
:1002E000401C60600020002108F0DAFDE0601FBDC6
:1002F00010B510BD07F00EFC1146FFF7E7FF00F048
:100300008CFB07F0E7FC03B4FFF7F2FF03BC02F03D
:10031000FFFF0000FD48FE49086070472DE9F041ED
:100320000746884614461D4600F038FF00262BE09D
:10033000384600F09FFFF7A006F006FA384606F0B0
:1003400003FA0020FD49086015E0642002F0C0FFB8
:10035000FA4800686430F94908604146F84806F0F8
:1003600073FC40B1F7A006F0EFF9F54806F0CEF9BE
:100370000120BDE8F081F1480068A042E5D30020EB
:10038000EE490860701CC6B2AE42D1DBEDA006F0AB
:10039000DBF9EB4806F0BAF900F000FF0020E8E7CF
:1003A00004462146F2A006F0CFF90CE00A236422AD
:1003B000F2A1F3A0FFF7B2FF012801D1FFF7AAFFD6
:1003C000C82002F085FFF1E70146002003E0401C51
:1003D0000A2291FBF2F10029F9DC70472DE9F04384
:1003E00087B08146002600BF00BF00240020069091
:1003F0000590804605AB06AAE3A1484606F060FBDF
:1004000064210698B0FBF1F201FB1206484606F0A3
:1004100051FC431E0698FFF7D7FFA3EB000800BF6F
:1004200003E006EB86004600641C4445F9DB6421CA
:100430000698B0FBF1F70598351805EB85004000EC
:100440000621B0FBF1F53A46D1A1D24806F088F971
:10045000002404E0D0A1CF4806F04BFC641C2846E1
:10046000FFF7B2FF08F10201081AA042F2DC2A46A7
:10047000C6A1684606F074F96946C64806F039FC1C
:10048000C44807B0BDE8F0832DE9F0432DED028BA1
:1004900087B08146002600BF00BF9FEDC00AB0EEC6
:1004A000408A0024002006900590804605AB06AAED
:1004B000B5A1484606F004FB64210698B0FBF1F2B2
:1004C00001FB1206484606F0F5FB431E0698FFF7AF
:1004D0007BFFA3EB000800BF03E006EB86004600AD
:1004E000641C4445F9DB64210698B0FBF1F70598DC
:1004F000351805EB850040000621B0FBF1F53A46C2
:10050000A3A1A74806F02CF9002404E0A2A1A44866
:1005100006F0EFFB641C2846FFF756FF08F10201C6
:10052000081AA042F2DC2A4698A1684606F018F99B
:1005300069469B4806F0DDFB994807B0BDEC028B8D
:10054000BDE8F0832DE9F84304460E4617461D46E4
:10055000DDF820802846FFF797FF81464A4691A1A3
:10056000914806F0FDF84046FFF738FF81464A46BD
:100570008CA18E4806F0F4F84FF4C8718C4806F050
:1005800009FC8CA18A4806F071FB8F49884806F067
:10059000B0FB8EA1864806F0ACFB032342F210723A
:1005A0008DA18348FFF7BAFE012802D00720FFF78C
:1005B000F7FE012340F6B83289A18AA0FFF7AEFE0C
:1005C000012802D00820FFF7EBFE4FF4C8717848ED
:1005D00006F0E0FB7548744B3A4685490090854823
:1005E00006F0BEF800207249087083A1704806F03A
:1005F00080FB31466E4806F07CFB83A16C4806F018
:1006000078FB87A16A4806F074FB2146684806F02B
:1006100070FB56A1664806F06CFB84A1644806F0A6
:1006200068FB6949624806F064FB50A1604806F027
:1006300060FB704806F03EFB81464A467DA1834838
:1006400006F08EF881495A4806F053FB694958482C
:1006500006F04FFB012340F6B83255490846FFF734
:100660005DFE012802D00920FFF79AFE012340F623
:10067000B83277A17848FFF751FE012802D00A204E
:10068000FFF78EFE642002F023FE012340F6B8320D
:1006900072A174A0FFF742FE012802D00B20FFF7E1
:1006A0007FFE642002F014FE012340F6B8326BA1F5
:1006B00070A0FFF733FE012802D00B20FFF770FE79
:1006C000642002F005FEBDE8F88308B56D4890F897
:1006D0007900002817D000206A4981F879006AA0C3
:1006E00006F032F867487A3006F010F81FA006F0DE
:1006F0002BF8644890F8B100002805D0002061492B
:1007000081F8B100CCE00DE109E100000400FA0538
:100710000CED00E00D0A2A2A2A2A2A2A2A2A2A2A45
:100720002A2A2A2A2A73656E642A2A2A2A2A2A2A27
:100730002A2A2A2A2A2A2A2A2A0D0A000000002008
:10074000F80600200D0A2A2A2A2A2A2A2A2A2A2AD0
:100750002A2A2A2A2A726563656976652A2A2A2A3C
:100760002A2A2A2A2A2A2A2A2A2A2A2A0D0A00007A
:100770004552524F5225640D0A0000004F4B0000B5
:1007800041540D0A00000000256C642E256C6400A5
:1007900025642E00870400203000000000000000C7
:1007A0007304002025730000550400206404002019
:1007B000E401002041542B51494F50454E3D2254F5
:1007C0004350222C2200000006000020222C223858
:1007D00030220D0A00000000434F4E4E45435400A6
:1007E0003E00000041542B514953454E440D0A0030
:1007F00074BC000874030020504F5354202F6465CC
:1008000076696365732F00002F64617461706F698E
:100810006E747320485454502F312E310D0A00004D
:100820006170692D6B65793A00000000486F737440
:100830003A000000436F6E74656E742D4C656E67F0
:1008400074683A25640D0A0D0A0000003C0400207B
:100850002273756363227D00040000204F4B0D0A54
:100860000000000041542B5149434C4F53450D0AA1
:100870000000000041542B514944454143540D0AA6
:100880000000000082090020536176655F446174B6
:10089000612E55544354696D65203D2000000000D1
:1008A000F7A005F051FFFC4805F030FFAFF244100F
:1008B00005F04AFFF9A005F047FFF748143005F0AE
:1008C00025FFAFF2581005F03FFFF9A005F03CFFFF
:1008D000F148163005F01AFFAFF2701005F034FF42
:1008E000F9A005F031FFEC482A3005F00FFFAFF218
:1008F000841005F029FFE84800F11603F74AF8498B
:100900000090F848FFF71EFE0020F74908606420B9
:1009100002F0DEFC0120F549C1F8A80202E0F4A0D3
:1009200005F012FF08BDF8B50026DB48853890F8C1
:100930007800002870D00020D749853981F87800E8
:10094000F2A005F001FFD448853805F0DFFE00BFB6
:1009500060E04EB9F2A1D048853806F075F9040080
:1009600056D10120FFF71CFD641CEDA1204606F0C6
:100970006BF9050049D0072E2DD2DFE806F02C04D4
:100980000B11171E25002A1B2146C3480B3806F001
:10099000BCF921E02A1B2146684606F0B6F91BE0A7
:1009A0002A1B2146BC4806F0B0F915E02A1B214657
:1009B000B948143006F0A9F90EE02A1B2146B648C2
:1009C000163006F0A2F907E02A1B2146B2482A3069
:1009D00006F09BF900E000BF00BF2C460120AE49A5
:1009E000853981F879009DF80000412803D1012064
:1009F00081F8B10008E09DF80000562804D10020DD
:100A0000A549853981F8B10002E00220FFF7C8FC52
:100A1000701CC6B2062E9CDDF8BD1CB5A82002F0E5
:100A2000F5FB4FF4A06002F079FD4FF4165002F090
:100A30007DFC4FF4165000F0BBFB01F033FAAFF22F
:100A4000C02000F017FCB7A005F07EFE02F06DF8A4
:100A5000B9A018210B464FF49672CDE900106E2113
:100A6000282001F0A4FE0A2340F6B832AFF2142188
:100A7000AFF2F420FFF752FC012802D00120FFF76B
:100A80008FFC0A2002F024FC0A2340F6B832AEA103
:100A9000AFA0FFF743FC012802D00320FFF780FC42
:100AA0000A2002F015FC0A2340F6B832ABA1ACA034
:100AB000FFF734FC01280BD00A2340F6B832ABA173
:100AC000A7A0FFF72BFC012802D00320FFF768FC4A
:100AD0000A2002F0FDFB012341F28832A4A1A7A065
:100AE000FFF71CFC01280CD00A2341F28832AFF238
:100AF0009421A6A0FFF712FC012802D00520FFF7E1
:100B00004FFC02F0BAFC4FF6FF7086234FF4A07240
:100B10006E210090282001F030FBA0A018210B4688
:100B20004FF49672CDE900106E21282001F03FFEAF
:100B3000642002F0CDFB30E00A234FF4FA62AFF2FA
:100B4000E4219AA0FFF7EAFB012802D00620FFF774
:100B500027FC01205049853981F8780078214E48DA
:100B6000853806F017F99748028897494A4885382A
:100B700006F0CBF895A005F0E7FD4748853805F06D
:100B8000C5FD61A005F0E0FDFFF7CDFEFFF79DFD7F
:100B9000642002F09DFB02F017F9CDE730B585B077
:100BA00004460D461421684606F016F914216846DD
:100BB00006F012F991A1684606F058F821466846F9
:100BC00006F097F87EA1684606F093F80A2340F6EF
:100BD000B832AFF2F4316846FFF7A0FB012802D02B
:100BE0000620FFF7DDFB012340F6B83229462846F0
:100BF000FFF794FB012802D00720FFF7D1FB642008
:100C000002F066FB6421684606F0E6F81A208DF8CB
:100C10000000052342F21072AFF2C0316846FFF7C0
:100C20007DFB012802D00820FFF7BAFB642002F008
:100C30004FFB05B030BD10B586B00446142101A8A5
:100C400006F0CAF8142101A806F0C6F86EA101A8A2
:100C500006F00CF8214601A806F04BF86BA101A89C
:100C600006F047F80A2342F2107269A101A8FFF7C3
:100C700055FB012802D00420FFF792FB06B010BDFF
:100C8000536176655F446174612E6C61746974753B
:100C90006465203D20000000070A0020536176654E
:100CA0005F446174612E4E5F53203D2000000000C0
:100CB000536176655F446174612E6C6F6E67697411
:100CC000756465203D200000536176655F44617462
:100CD000612E455F57203D20000000003B000020B2
:100CE000140000201E000020A882424200804242E0
:100CF0004750532044415441206973206E6F742043
:100D000075736566756C6C210D0A00002A2A2A2A03
:100D10002A2A2A2A2A2A2A2A2A2A0D0A0000000018
:100D20002C00000057656C636F6D6520746F207533
:100D30007365210D0A000000496E697469616C6970
:100D40007A696E672E2E2E005245414459000000EC
:100D500041542B4350494E3F0D0A00002C310000F6
:100D600041542B435245473F0D0A00002C350000EB
:100D70002B51474E5353433A2031000041542B51DD
:100D8000474E5353433F0D0A0000000041542B517E
:100D9000474E5353433D310D0A000000496E6974BC
:100DA00069616C697A6564204F4B210041542B5175
:100DB000474E535352443D224E4D45412F524D43D1
:100DC000220D0A005C000020F80600200D0A3D3DBF
:100DD0003D3D3D3D3D3D3D3D536176655F44617424
:100DE000612E4750535F4275666665723D3D3D3DDD
:100DF0003D3D3D3D3D3D0D0A0000000041542B436B
:100E00004D47533D22000000415444003B0D0A0071
:100E1000534F554E44455200704700BFFEE700BF98
:100E2000FEE700BFFEE700BFFEE770477047704770
:100E3000704700000CB500200190009076480068D3
:100E400040F480307449086000BF7348006800F4C3
:100E5000003000900198401C0190009818B901984A
:100E6000B0F5A04FF1D16C48006800F4003010B12B
:100E70000120009001E0002000900098012846D158
:100E800065484030006840F0805063494031086058
:100E90006248006840F44040604908605E4808309D
:100EA00000685D49083108600846006840F4004069
:100EB00008600846006840F4A05008605848091FC0
:100EC0000860081F006840F08070091F086000BFBC
:100ED0005148006800F000700028F9D040F2057019
:100EE000504908604C480830006820F003004A4927
:100EF000083108600846006840F00200086000BF42
:100F000045480830006800F00C000828F8D10CBDF6
:100F100010B54548006840F47000434908603E48F9
:100F2000006840F001003C49086000203A4908315F
:100F30000860394800683D490840374908603C4826
:100F4000091D0860081F006820F48020091F086040
:100F5000002031490C310860FFF76CFF4FF0006052
:100F600031498039086010BD70B50020002202238D
:100F700000240221284D08352D6805F00C0020B111
:100F8000042806D0082834D107E02A4D2A4E3560BF
:100F900033E02A4D284E35602FE01F4D2D1D2D6862
:100FA000C5F380541C4D2D1D2D6805F03F0154B133
:100FB000224DB5FBF1F5184E361D3668C6F388167E
:100FC00005FB06F209E01B4DB5FBF1F5124E361D8F
:100FD0003668C6F3881605FB06F20F4D2D1D2D68E9
:100FE000C5F301456D1C6B00B2FBF3F5124E356085
:100FF00003E0104D104E356000BF00BF064D0835B0
:101000002D68C5F303150E4E705D0B4D2D68C54060
:10101000094E356070BD000000380240007000408D
:1010200008544007003C024088ED00E0FFFFF6FE58
:10103000103000240024F4004800002000127A0040
:101040004C00002010B50121374804F0C2F968B106
:101050003648008840F40040344908800121324875
:1010600004F0C8F90021304803F084FD10BD7FB5BD
:1010700005460C460121202003F011F90195ADF839
:1010800000400020ADF80800ADF80200694626488F
:1010900003F0E7FC01221146234804F083F9012103
:1010A000214803F067FD37208DF80C0000208DF8F3
:1010B0000D0002208DF80E0001208DF80F0003A80E
:1010C00002F031FA7FBD7FB505460C4601210220B2
:1010D00003F0E5F80295ADF804400020ADF80C00EF
:1010E000ADF8060001A9124803F0BBFC012211462D
:1010F0000F4804F057F901210D4804F07BF91D2039
:101100008DF8000001208DF8010002208DF802000A
:1011100001208DF80300684602F005FA0121044819
:1011200003F028FD7FBD0000001400405E00002099
:101130000004004010B5044644B100215F4803F0AC
:10114000D9FC01215D4803F015FD03E000215B4857
:1011500003F010FD10BD10B540F22551584803F0C2
:1011600089FBD0B1564803F0C3FAC4B25548008891
:10117000B0F5167F11DA0021504803F0BBFC52484D
:10118000008810B90120FFF7D5FF4E48018800887C
:10119000401C4C4A10804D48445410BD10B54FF4CB
:1011A00016714A4805F018FE00204649088010BD17
:1011B00010B588B004460121022003F027F8012170
:1011C000880403F06CF83E4803F074F907220B2101
:1011D0003F4802F024FB07220A213D4802F01FFB92
:1011E0004FF44060059002208DF818008DF819002A
:1011F00000208DF81A0001208DF81B0005A9344845
:1012000002F082FA01940020ADF80800ADF80A005F
:10121000ADF80C00ADF810000C20ADF80E0001A9DF
:10122000274803F0AEF90121254803F032FA0122E4
:1012300040F22551224803F0E2FA27208DF81C00E5
:1012400000208DF81D008DF81E0001208DF81F0074
:1012500007A802F068F942F2CF0140F2E730FFF749
:1012600006FF0020184908800021144803F082FC82
:1012700008B010BD0FB438B505A800901548009A05
:10128000049905F04FFA00200090124805F012FD75
:1012900085B200240DE000BF4021094803F0D4FAD4
:1012A0000028F9D00B48015D054803F01DFA601CC9
:1012B00084B2AC42EFDB38BC5DF814FB0014004094
:1012C000004800405C0000205E000020F80600207E
:1012D00000040240A00400200246134610E01078EB
:1012E0002A2805D01078202802DB10787A2801DD22
:1012F000FF20704710782C2801D1481EC1B2521C23
:101300000029ECD1D01AC0B2F3E710B50246012093
:1013100000E050430B00A1F10104E1B2F9D110BD8E
:101320002DE9F34F81B007463C46002000908346EC
:1013300081460026804628E020782D2802D148F0FA
:101340000208641C20782C2802D020782A2800D19A
:101350001CE020782E2803D148F00108641C09E025
:101360002078392802DC2078302803DA4FF0000991
:1013700000260BE008F0010010B1701CC6B203E0BB
:1013800009F1010000F0FF09641CD5E700BF08F077
:10139000020000B17F1C00250EE0A9F10100401BF6
:1013A000C1B20A20FFF7B1FF795D3039009A00FB26
:1013B00001200090681CC5B24D45EEDB052E00DD16
:1013C00005260298067000250EE0701E401BC1B273
:1013D0000A20FFF79AFF09F101012944795C3039AD
:1013E00000FB01BB681CC5B2B542EEDB31460A20EA
:1013F000FFF78BFF009901FB00BA08F0020008B16B
:10140000CAF1000A5046BDE8FE8F2DE9FC5F074691
:101410008A464FF00008CDF804A0FEA1019805F01F
:1014200013FC0646F079303800F0FF0B03213046FC
:10143000FFF752FF0546FF2D04D070196946FFF7EC
:101440006FFF38704FF000096CE0F2A1019805F0D1
:10145000FBFB064600245CE0042000EB8400C1B2E4
:101460003046FFF739FF0546FF2D09D07019694650
:10147000FFF756FFC1B208EB8802781C815400E0E8
:1014800049E0052000EB8400C1B23046FFF724FF9D
:101490000546FF2D0AD070196946FFF741FFC1B21A
:1014A00008EB8802781C1044417000E033E006200D
:1014B00000EB8400C1B23046FFF70EFF0546FF2D5A
:1014C0000AD070196946FFF72BFF81B208EB88023A
:1014D000781C1044418000E01DE0072000EB8400F0
:1014E000C1B23046FFF7F8FE0546FF2D0AD070194D
:1014F0006946FFF715FFC1B208EB8802781C10445B
:10150000017100E007E008F1010000F0FF08601C35
:10151000C4B2042CA0DB00BF701C019009F10100D3
:1015200000F0FF09D94590DBBDE8FC9FF8B5054602
:101530000F46BAA1384605F087FB0646062130461D
:10154000FFF7CAFE0446FF2C05D030196946FFF7A5
:10155000E7FE85F84E0007213046FFF7BDFE044642
:10156000FF2C05D030196946FFF7DAFE85F84F00E9
:1015700009213046FFF7B0FE0446FF2C05D0301994
:101580006946FFF7CDFEC5F86300F8BD2DE9F843C5
:1015900005468846A3A1404605F056FB06460221B3
:1015A0003046FFF799FE0446FF2C05D030196946F6
:1015B000FFF7B6FE85F85C00002713E0F81CC1B207
:1015C0003046FFF789FE0446FF2C08D030196946E3
:1015D000FFF7A6FEC1B205F15000C15500E003E0DF
:1015E000781CC7B20C2FE9DB00BF0F213046FFF794
:1015F00073FE0446FF2C05D030196946FFF790FEB4
:10160000A5F85D0010213046FFF766FE0446FF2C6A
:1016100005D030196946FFF783FEA5F85F00112158
:101620003046FFF759FE0446FF2C05D030196946B5
:10163000FFF776FEA5F86100BDE8F8832DE9F043D9
:101640002DED028B81B00446884678A1404605F016
:10165000FBFA074601213846FFF73EFE0546FF2DFF
:1016600023D078196946FFF75BFE81469DF800108C
:101670000A20FFF74AFEB9FBF0F642F21070B6FB03
:10168000F0F0C1B2412001556420B6FBF0F06421B6
:10169000B0FBF1F201FB1201422001556420B6FBC0
:1016A000F0F100FB11614320015503213846FFF79B
:1016B00013FE0546FF2D40D078196946FFF730FE2E
:1016C00006469DF80000801CC1B20A20FFF71DFEEF
:1016D000B6FBF0F060649DF80000801CC1B20A20E7
:1016E000FFF713FEB6FBF0F100FB116000EE100AED
:1016F000B8EE408A05210A20FFF707FE616C4843D7
:1017000000EE100AF8EE400A9DF80000C0F1050056
:10171000C1B20A20FFF7F9FD00EE100AB8EE400A48
:1017200020EE080A9FED431AC0EE011A30EEA10A1E
:10173000BCEEC00A10EE100A606404213846FFF7C0
:10174000CBFD0546FF2D02D0785D84F848000521C9
:101750003846FFF7C1FD0546FF2D44D0781969468C
:10176000FFF7DEFD06469DF80000801CC1B20A208E
:10177000FFF7CBFDB6FBF0F044F8490F9DF80000F1
:10178000801CC1B20A20FFF7C0FDB6FBF0F100FBE0
:10179000116000EE100AB8EE400AB0EE408A052152
:1017A0000A20FFF7B2FD2168484300EE100AF8EE68
:1017B000400A9DF80000C0F10500C1B20A20FFF701
:1017C000A4FD00EE100AB8EE400A20EE080A9FEDD4
:1017D000191AC0EE011A30EEA10ABCEEC00A10EED2
:1017E000100A44F8490906213846FFF775FD0546F9
:1017F000FF2D02D0785D84F84D0009213846FFF7AF
:101800006BFD0546FF2D31D078196946FFF788FD3D
:10181000064611E0244750475356000024475047DE
:101820004741000024475047534100004750524D64
:10183000430000000000704242F21070B6FBF0F06E
:10184000C1B2402001556420B6FBF0F06421B0FB2A
:10185000F1F201FB12013F2001556420B6FBF0F1CB
:1018600000FB116000F5FA60A4F83D0001B0BDEC8A
:10187000028BBDE8F083F8B504460D46B5A12846B5
:1018800005F0E2F9064607213046FFF725FD074639
:10189000FF2F16D0F0196946FFF742FDA4F8670044
:1018A0009DF8000003280CDA9DF80000C0F1030049
:1018B000C1B20A20FFF729FDB4F867104843A4F825
:1018C0006700F8BD70B504460D4629462046FFF76F
:1018D0009CFD29462046FFF729FE29462046FFF7B2
:1018E00055FE29462046FFF7A9FE29462046FFF768
:1018F000C2FF70BD70B50446002515701D70002034
:1019000009E01578265C354415701D781678354445
:101910001D70451CA8B28842F3DB70BD70B5002570
:10192000002604E0681C85B2052001F0D1FC8B483C
:10193000008800F4004008B9642DF3DBFA2D1BDAAF
:1019400086480088C0F30E05002406E08448005D48
:10195000B52800D103E0601C84B2AC42F6DB00BFC6
:10196000AC4201D1022608E07D49E01C085C08B9C0
:10197000032602E0002600E00126002077490880C7
:10198000304670BD10B5024600200CE000BF754B1C
:101990001B8803F04003002BF9D0135C714C241D0D
:1019A0002380431C98B28842F0DB10BD70B56E4CAA
:1019B00046F2B520208040F6061060800D20A08001
:1019C0000020C4F806004FF6FF70C4F80A0000209B
:1019D000C4F80E000420A07404F114035A1E11214F
:1019E000A01CFFF787FF15212046FFF7CBFF00253E
:1019F00005E0FFF793FF00B903E0681CC5B2062DB0
:101A0000F7DB00BF062D01D1012070BD0020FCE7EF
:101A100070B505460E46544C46F2B52020804FF472
:101A2000837060800820A080F020A071E571012003
:101A300020726672A072E0722073607304F10F036B
:101A40005A1E0C21A01CFFF755FF10212046FFF75E
:101A500099FFFFF763FF70BD70B50546424C46F233
:101A6000B5202080062060801420A0800120A07175
:101A70000020E07120814FF40D60C4F80A00C4F822
:101A80000E5007206082A0820020E082208304F1B3
:101A90001B035A1E1821A01CFFF72CFF1C212046F7
:101AA000FFF770FFC82001F013FC2846FFF780FB0A
:101AB000FFF734FF70BD2DE9F04105460E4617468D
:101AC000294C46F2B520208040F206706080142038
:101AD000A080C4F80650C4F80A60A7730020E07321
:101AE000207460744FF44D7060820020A082C4F8AE
:101AF000160004F11B035A1E1821A01CFFF7FAFE62
:101B00001C212046FFF73EFFFFF708FFBDE8F081EC
:101B100070B505460E46144CC82D01DA012070BD83
:101B200046F2B520208040F6060060800620A080A6
:101B3000E58001202081668104F10D035A1E0A21EF
:101B4000A01CFFF7D7FE0E212046FFF71BFFFFF773
:101B5000E5FEE4E724475056544700005E000020AD
:101B6000F806002000480040A00400201CB5012118
:101B7000782002F04BFB0C220E21FE4801F04FFEB4
:101B80000C220F21FB4801F04AFE0C220021F948EB
:101B900001F045FE0C220121F64801F040FE0C2226
:101BA0000721F54801F03BFE0C220821F24801F024
:101BB00036FE0C220921F04801F031FE0C220A21E8
:101BC000ED4801F02CFE0C220B21EB4801F027FE22
:101BD0000C221146E84801F022FE0C220D21E648B5
:101BE00001F01DFE0C220E21E34801F018FE0C222C
:101BF0000F21E14801F013FE0C220821DD4801F01D
:101C00000EFE0C220921DB4801F009FE0C220A21FC
:101C1000D84801F004FE0C220421D64801F0FFFD53
:101C20000C220521D34801F0FAFD0C221146D348BD
:101C300001F0F5FD0C221146D14801F0F0FD4CF207
:101C40003370009002208DF8040000208DF806000B
:101C500003208DF8050001208DF807006946C5486E
:101C600001F052FD4FF68070009002208DF80400C4
:101C700000208DF8060003208DF8050001208DF866
:101C800007006946BC4801F03FFD4FF480500090CA
:101C900002208DF8040000208DF8060003208DF846
:101CA000050001208DF807006946B44801F02CFDBD
:101CB0004FF48050009002208DF8040000208DF831
:101CC000060003208DF8050001208DF80700694605
:101CD000AB4801F019FD1CBD00B59DB001210846BF
:101CE00002F0CCFA01200790002008900F20099004
:101CF00000200A900B900C900D9006200E90002072
:101D00000F901090102011900020129014901390BA
:101D1000159016904FF480501790002018904FF4B3
:101D20008040199000201A9007A81B90CDF870D021
:101D30000EA801F0C8FD0121062001F04FFE1DB0E4
:101D400000BD9049088070478E49891C0880704703
:101D500000B503460A461846FFF7F3FF1046FFF7A3
:101D6000F3FF00BD8749891C088070478548801CA7
:101D70000088704700B502467AB93620FFF7E1FFC8
:101D80000020FFF7E1FF4FF4F0707F4948804FF4E7
:101D9000A0700880002088710EE03620FFF7D1FF88
:101DA0006020FFF7D1FF4FF4A070774948804FF4CF
:101DB000F07008800120887100BD70B504460D46A2
:101DC0002A20FFF7BEFF2646E11704EB1161C1F39D
:101DD0000F20FFF7B9FFE11704EB11610912A4EB23
:101DE000012188B2FFF7B0FF1646D11702EB11614F
:101DF000C1F30F20FFF7A8FF1646D11702EB1161C0
:101E00000912A2EB012188B2FFF79EFF2B20FFF7FA
:101E100098FF2E46E91705EB1161C1F30F20FFF77C
:101E200093FFE91705EB11610912A5EB012188B2B7
:101E3000FFF78AFF1E46D91703EB1161C1F30F208C
:101E4000FFF782FF1E46D91703EB11610912A3EBBE
:101E5000012188B2FFF778FF2C20FFF772FF70BDD9
:101E600070B5064648484088401E83B24648008800
:101E7000401E82B200210846FFF79FFF00240CE0BD
:101E8000002504E03046FFF76DFF681C85B23E4830
:101E90004088A842F6DC601C84B23B480088A0421F
:101EA000EEDC70BD10B5FFF761FEFFF715FF3220C5
:101EB00001F00EFAD320FFF744FF3248801C00885F
:101EC000314988802F48801C008888802D48801CDC
:101ED00000888880084680884FF6FF7101EA00205C
:101EE00029498880084680884FF0D841B1F8801091
:101EF0000843254988800846818824A004F024FCF2
:101F0000FF20FFF71EFFFF20FFF71BFF052001F05A
:101F1000DFF9FF20FFF715FFFF20FFF712FFFF207B
:101F2000FFF70FFFFF20FFF70CFF0A2001F0D0F9A9
:101F3000B020FFF706FF0020FFF706FFB320FFF7F2
:101F400000FF0220FFF700FF0020FFF7FDFE00204A
:101F5000FFF7FAFE0020FFF7F7FEC020FFF7F1FEC3
:101F60001320FFF7F1FE3B20FFF7EEFE0020FFF706
:101F7000EBFE13E0000C024000100240001402408F
:101F8000001802407E00006C74000020204C434486
:101F90002049443A25780D0A000000000020FFF790
:101FA000D3FE0020FFF7D0FE0120FFF7CDFE00207A
:101FB000FFF7CAFE4320FFF7C7FEC120FFF7C1FEAF
:101FC0000820FFF7C1FE1B20FFF7BEFE0820FFF729
:101FD000BBFE0820FFF7B8FEC420FFF7B2FE1120B9
:101FE000FFF7B2FE0120FFF7AFFE7320FFF7ACFE54
:101FF0000120FFF7A9FEC620FFF7A3FE0020FFF790
:10200000A3FEC820FFF79DFE0F20FFF79DFE0520D1
:10201000FFF79AFE1420FFF797FE5C20FFF794FE6F
:102020000320FFF791FE0720FFF78EFE0720FFF742
:102030008BFE1020FFF788FE0020FFF785FE23208F
:10204000FFF782FE1020FFF77FFE0720FFF77CFEE0
:102050000720FFF779FE5320FFF776FE0C20FFF7ED
:1020600073FE1420FFF770FE0520FFF76DFE0F20B2
:10207000FFF76AFE2320FFF767FE0020FFF764FEEC
:102080003520FFF75EFE0020FFF75EFE4420FFF7DD
:1020900058FE0020FFF758FE0120FFF755FED02024
:1020A000FFF74FFE0720FFF74FFE0720FFF74CFE1C
:1020B0001D20FFF749FE0320FFF746FED120FFF762
:1020C00040FE0320FFF740FE5B20FFF73DFE10209F
:1020D000FFF73AFED220FFF734FE0320FFF734FE6D
:1020E0002420FFF731FE0420FFF72EFE2A20FFF701
:1020F00028FE0020FFF728FE0020FFF725FE012024
:10210000FFF722FE3F20FFF71FFE2B20FFF719FEEF
:102110000020FFF719FE0020FFF716FE0120FFF751
:1021200013FEDF20FFF710FE3620FFF70AFE002027
:10213000FFF70AFEC020FFF704FE1320FFF704FE9E
:102140003A20FFF7FEFD5520FFF7FEFD1120FFF7B7
:10215000F8FD962001F0BCF82920FFF7F2FD1E20C3
:1021600001F0B6F82C20FFF7ECFD0020FFF702FE8F
:102170004FF6FF70FFF774FE10BD2DE9F0430446E3
:102180000D4616461F46DDF81C80B44201DCBD42F8
:1021900001DDBDE8F0833B46324629462046FFF785
:1021A0000CFE301B401C84B2781B401C85B20BE037
:1021B000A94602E04046FFF7D5FD5FEA0900A9F114
:1021C00001011FFA81F9F5D12000A4F101018CB2BF
:1021D000EED100BFDDE730B504460D462B46224662
:1021E00029462046FFF7E9FDF9480088FFF7BAFDC8
:1021F00030BD70B504460D4616462B46224629468C
:102200002046FFF7DAFD3046FFF7ACFD70BD2DE943
:10221000F04104460D4600260027B046ED480088F0
:10222000A04203DDEB484088A84202DC0020BDE864
:10223000F0812B46224629462046FFF7BEFD2E2080
:10224000FFF77FFDFFF792FD0646FFF78FFD06467D
:10225000FFF78CFD8046FFF789FD0746F012C002AC
:10226000B91240EA411040EAE820E0E72DE9FF4FCB
:1022700084B081468A460020039002900698A0EB25
:1022800009050798A0EB0A06CDF80490CDF800A048
:10229000002D01DD012705E00DB9002702E04FF018
:1022A000FF376D42002E02DD4FF0010806E016B93F
:1022B0004FF0000802E04FF0FF387642B54201DDF2
:1022C0002C4600E034464FF0000B21E0009A91B21A
:1022D000019A90B2FFF77FFF039828440390029879
:1022E000304402900398A04205DD0398001B039040
:1022F0000198384401900298A04205DD0298001B25
:1023000002900098404400900BF101001FFA80FBFE
:10231000601C8345DADD08B0BDE8F08F2DE9FF4F82
:1023200084B081468A460020029083460698A0EB3E
:1023300009050798A0EB0A06CDF80490CDF800A097
:10234000002D01DD012705E00DB9002702E04FF067
:10235000FF376D42002E02DD4FF0010806E016B98E
:102360004FF0000802E04FF0FF387642B54201DD41
:102370002C4600E03446002003901EE0009A91B203
:10238000019A90B2119AFFF734FF02982844029004
:10239000B3440298A04205DD0298001B0290019808
:1023A00038440190A34504DDABEB040B0098404496
:1023B00000900398401C80B20390611C03988842EF
:1023C000DCDD08B0BDE8F08FF0B504460D461746D9
:1023D00005F1010C1FFA8CF304F1010C1FFA8CF2C9
:1023E000A5F1010C1FFA8CF1A4F1010C1FFA8CF07D
:1023F000FFF7E3FC002604E03846FFF7B3FC701C4F
:10240000C6B2092EF8DB211D8AB2211F88B22B46E5
:102410002946FFF7D2FC002604E03846FFF7A2FC6D
:10242000701CC6B2092EF8DB281D83B2281F81B2AA
:1024300022462046FFF7C1FC002604E03846FFF79D
:1024400091FC701CC6B2092EF8DBF0BDF0B5044655
:102450000D4616461F462B46324629462046FFF7B4
:1024600005FF3B46224629462046FFF7FFFE3B4636
:10247000324639462046FFF7F9FE3B4632462946AA
:102480003046FFF7F3FEF0BD2DE9F04306460F4658
:102490009046002445460320A0EB48093CE07A1B07
:1024A00091B2321990B2FFF796FE3A1B91B27219AF
:1024B00090B2FFF790FE3A1991B2721990B2FFF7FD
:1024C0008AFE7A1991B2321990B2FFF784FE7A1916
:1024D00091B2321B90B2FFF77EFE3A1991B2721B95
:1024E00090B2FFF778FE7A1B91B2321B90B2FFF7E1
:1024F00072FE3A1B91B2721B90B2FFF76CFE641C25
:10250000B9F1000F03DAA000801D814404E0601BD4
:1025100080000A3081446D1EAC42C0DDBDE8F0830E
:102520002DE9F84F80460E4617461C46B346204616
:10253000E31704EB5373DB1021464FEAE47C04EB12
:102540005C7C4FEAEC0CA4EBCC0CBCF1000F02D08D
:102550004FF0010C01E04FF0000C6344224604EB05
:10256000D27C4FEA6C0C03FB0CF3DBB20093A7F1B7
:102570002000C7B2002561E00C2C07D107EB470013
:10258000154901EB800010F8059013E0102C05D1DF
:10259000124800EB071010F805900BE0182C07D13B
:1025A00007EBC7000E4901EB800010F8059001E031
:1025B000BDE8F88F4FF0000A3AE009F0800088B1DA
:1025C0000348028831464046FFF713FE12E0000040
:1025D000600000207400002052990008C69D000889
:1025E000B6A300080A9828B9FE480288314640463A
:1025F000FFF7FFFD4FEA49604FEA1069701C86B291
:10260000F9484088B04200DCD2E7A6EB0B00A042BC
:102610000AD15E4608F101001FFA80F8F2480088EE
:10262000404500DCC4E706E00AF1010000F0FF0AC3
:10263000BAF1080FC1DB00BF681CC5B20098854223
:102640009ADB00BFB4E710B50246012000E050431A
:102650000B00A1F10104E1B2F9D110BD2DE9FF4F4A
:1026600081B0074691461E460E9D4FF0000A002499
:1026700039E0301B401EC1B20A20FFF7E4FFB9FB6E
:10268000F0F00A21B0FBF1F201FB1208BAF1000FE1
:1026900016D1701EA04213DDB8F1000F0ED100203C
:1026A000AB4605EBDB71491001FB0471009088B269
:1026B0002B4620220299FFF733FF12E04FF0010A68
:1026C0000020AB4605EBDB71491001FB0471009063
:1026D00088B208F13001CAB22B460299FFF720FFF9
:1026E00000BF601CC4B2B442C3DB05B0BDE8F08FCC
:1026F0002DE9FF4F82B0064692461F46DDE90F489E
:102700000020019000254DE0781B401EC1B20A2038
:10271000FFF799FFBAFBF0F00A21B0FBF1F201FBE1
:102720001209019850BB781EA84227DDB9F1000FAD
:1027300022D108F0800078B108F00100A34604EB34
:10274000DB71491001FB0561009088B223463022FD
:102750000399FFF7E5FE0EE008F00100A34604EB45
:10276000DB71491001FB0561009088B223462022ED
:102770000399FFF7D5FE13E00120019008F0010056
:10278000A34604EBDB71491001FB0561009088B2A0
:1027900009F13001CAB223460399FFF7C1FE00BF19
:1027A000681CC5B2BD42AFDB06B0BDE8F08F2DE9B5
:1027B000F84704460D4690469946DDE9096704F05E
:1027C000FF0A08EB04001FFA80F809EB05001FFA66
:1027D00080F916E0444502DB5446A81985B24D4500
:1027E00000DB14E0002000903A783346294620466A
:1027F000FFF796FE304606EBD07104EB61018CB218
:102800007F1C38787E2802DC38782028E2DA00BF86
:10281000BDE8F8872DE9F84F04460F461546A34654
:10282000009760E0002657E006EB8600C0EB8610BC
:102830006E4911F81000297888424BD106EB8600CA
:10284000C0EB8610694901EB400040786978884206
:1028500040D14FF000083AE006EB8600C0EB86104E
:10286000624901EB4000801C10F808A04FF00009FD
:1028700026E00AF08000802806D15D4802883946AB
:102880002046FFF7B6FC05E0564802883946204648
:10289000FFF7AFFC4FF6FF7000EA4A0A601C84B2F3
:1028A000A4EB0B00202807D15C46781C87B2009867
:1028B000381A1D2800D1009F09F1010000F0FF091E
:1028C000B9F1080FD5DB08F1010000F0FF08B8F1FD
:1028D000740FC1DB701CC6B2142EA5DBAD1C04F155
:1028E000200084B2A346287800289BD1BDE8F88F49
:1028F0002DE9F04F8046894615461E46DDF824A096
:1029000000270024A34609EB0600401E83B208EB13
:102910000500401E82B249464046FFF74EFA05FBCD
:1029200006F04FEA400B00BF601C1AF800704FF62B
:10293000FF7000EA07271AF8040007433846FFF73C
:1029400011FAA41C5C45EFDBBDE8F08F2DE9F84FD0
:1029500004460F461546A34600976BE0002662E04A
:1029600006EB860000EB4610224911F8100029788A
:10297000884256D106EB860000EB46101D4901EB5C
:1029800040004078697888424BD14FF0000845E01C
:1029900006EB860000EB4610164901EB4000801C58
:1029A00010F808A04FF0000931E00AF080008028FC
:1029B00006D10F48028839462046FFF71AFC05E089
:1029C0000848028839462046FFF713FC4FF6FF708F
:1029D00000EA4A0A601C84B2A4EB0B00182812D14A
:1029E0005C4609E0620000207400002012B100087B
:1029F0006000002024B60008781C87B20098381ABE
:102A0000182800D1009F09F1010000F0FF09B9F179
:102A1000080FCADB08F1010000F0FF08B8F1740FDD
:102A2000B6DB701CC6B2142E9ADBAD1C04F1180084
:102A300084B2A3462878002890D1BDE8F88F2DE90C
:102A4000F04F07460D4616469846AB46002450E028
:102A5000182C09DA06EB460000EB4000FC4901EBBC
:102A6000C00010F804901AE0302C0CDA06EB460097
:102A7000401C00EB4000F64901EBC001A4F1180036
:102A800011F800900BE006EB4600801C00EB4000C4
:102A9000EF4901EBC001A4F1300011F800904FF0B4
:102AA000000A20E009F0800028B142462946384655
:102AB000FFF79FFB05E0E748028829463846FFF705
:102AC00098FB4FEA49604FEA1069681C85B2A5EB94
:102AD0000B00182803D15D46781C87B206E00AF186
:102AE000010000F0FF0ABAF1080FDBDB00BF601C39
:102AF000C4B2482CACDBBDE8F08F70B57820054639
:102B0000064600240EE04FF4FC632246502128467E
:102B1000FFF795FF06F11000C6B205F11800C5B227
:102B2000601CC4B2062CEEDB70BD0CB54AF25160DD
:102B3000C9490880C9A018210B464FF49672CDE907
:102B4000001014212820FFF732FEC8A018210B46E0
:102B50004FF49672CDE9001032212820FFF727FEAE
:102B6000C6A018210B464FF49672CDE900105021F3
:102B70002820FFF71CFEFFF7C0FFC2A018210B465C
:102B80004FF4A072CDE9001087210020FFF70FFE5F
:102B90000CBD1CB5FFF7C9FF42F61230AE490880E4
:102BA000C0A1C64803F0DCFDC44818210B46C8226A
:102BB000CDE90010A0213C20FFF7F9FDC0A1BF48DE
:102BC00003F0CEFDBD4818210B46C822CDE9001008
:102BD000BE213C20FFF7EBFDBEA1B84803F0C0FDCD
:102BE000B64818210B46C822CDE90010DC213C2054
:102BF000FFF7DDFDBBA1B14803F0B2FDAF481821DE
:102C00000B46C822CDE90010FA213C20FFF7CFFD8A
:102C1000B9A1AA4803F0A4FDA84818210B464FF417
:102C20009672CDE900104FF48C713C20FFF7BFFD88
:102C3000B4A1A24803F094FDA04818210B464FF41C
:102C40009672CDE900104FF49B713C20FFF7AFFD69
:102C5000B1A19A4803F084FD984818210B464FF41F
:102C60009672CDE900104FF4AA713C20FFF79FFD4A
:102C7000AFA1924803F074FD904818210B464FF421
:102C80008272CDE900104FF4B9713C20FFF78FFD3F
:102C9000ACA18A4803F064FD884818210B46C8227D
:102CA000CDE9001051003C20FFF781FD1CBD1CB593
:102CB000FFF73BFF42F6123067490880A6A17F4824
:102CC00003F04EFD7D4818210B46C822CDE90010C7
:102CD000A0213C20FFF76BFDA5A1784803F040FD43
:102CE000764818210B46C822CDE90010BE213C20B1
:102CF000FFF75DFDA3A1714803F032FD6F48182175
:102D00000B46C822CDE90010DC213C20FFF74FFD27
:102D1000A0A16A4803F024FD684818210B46C82288
:102D2000CDE90010FA213C20FFF741FD72A1634874
:102D300003F016FD614818210B46C822CDE90010AA
:102D40004FF48C713C20FFF732FD97A15B4803F0F4
:102D500007FD5A4818210B464FF49672CDE9001032
:102D60004FF49B713C20FFF722FD94A1534803F0E0
:102D7000F7FC524818210B464FF49672CDE900102B
:102D80004FF4AA713C20FFF712FD69A14B4803F0F4
:102D9000E7FC4A4818210B464FF48272CDE9001037
:102DA0004FF4B9713C20FFF702FD8AA1434803F0BC
:102DB000D7FC424818210B46C822CDE9001051002B
:102DC0003C20FFF7F4FC1CBD0CB51F2022490880F5
:102DD00085A018210B46C822CDE90010A02128208B
:102DE000FFF7E5FC834818210B46C822CDE9001007
:102DF000A021B420FFF7DBFC7F4818210B46C82236
:102E0000CDE90010A0214FF49170FFF7D0FC7BA01A
:102E100018210B46C822CDE90010BE212820FFF75B
:102E2000C6FC794818210B46C822CDE90010BE2106
:102E3000B420FFF7BCFC7048163818210B46C82296
:102E4000CDE90010BE214FF49170FFF7B0FCDDE03A
:102E5000E0B7000862000020600000204449595F8C
:102E600046696E616C2044656D6F00004D6F64654E
:102E70006C20203A53544D33324634004175746807
:102E80006F723A002D2D2D2D2D2D2D2D2D2D2D2D0B
:102E90002D2D2D2D2D2D2D2D2D2D2D2D2D2D2D2D62
:102EA0002D2D2D004C6F6E6769747564653A313154
:102EB000342E3233373435204520000050090020AD
:102EC0004C617469747564653A33302E3538343525
:102ED00034204E00416C7469747564653A35342E43
:102EE000386D000053706565643A302E3434306BB1
:102EF0006D2F682000000000466978204D6F6465E2
:102F00003A33440056616C696420736174656C6C7B
:102F10006974653A3038000056697369626C6520DF
:102F2000736174656C6C6974653A3131000000003E
:102F300055544320446174653A323032302F313079
:102F40002F3331005554432054696D653A30323A7D
:102F500031313A30360000004C6F6E676974756429
:102F6000653A3131342E3134373438204520000071
:102F70004C617469747564653A33302E3337343577
:102F800032204E00416C7469747564653A31392E93
:102F9000346D000053706565643A302E3133306B08
:102FA0006D2F68200000000056616C696420736119
:102FB00074656C6C6974653A3036000056697369E3
:102FC000626C6520736174656C6C6974653A303845
:102FD000000000005554432054696D653A30323A80
:102FE00032373A31380000004C6F6E67697475648F
:102FF000653A000055040020310A00204C617469D4
:10300000747564653A0000006404002073A0182100
:103010000B46C822CDE90010DC212820FFF7C7FBB2
:10302000714818210B46C822CDE90010DC21B420DC
:10303000FFF7BDFB0CBD10B52DED0A8BB0EE408A3D
:10304000F0EE608AB0EE419AF0EE619A53EC192BE3
:1030500051EC190B06F0B6F941EC1B0B53EC182B95
:1030600051EC180B06F0AEF941EC1C0B53EC1B2B8A
:1030700005F04EFF41EC1A0BB0EE4A0AF0EE6A0A78
:1030800005F0A6FABDEC0A8B10BD00B52DED108B36
:1030900091B0B0EE408AF0EE608AB0EE41BAF0EE48
:1030A00061BAB0EE429AF0EE629AB0EE43CAF0EE28
:1030B00063CA9FED4E0BB0EE40AAF0EE60AA9FED02
:1030C0004D0BB0EE40DAF0EE60DA53EC192B51EC18
:1030D000180B05F01DFF41EC1F0B9FED480B53EC47
:1030E000102B05F0BDFF53EC1A2BCDE900019DED2F
:1030F000000B51EC100B06F065F99FED420B53EC01
:10310000102BCDE902019DED020B51EC100B05F0E7
:10311000A7FF41EC1E0BB0EE4E0AF0EE6E0A05F072
:10312000F3F98DED060B53EC1B2B51EC1C0B06F049
:103130001FFB41EC1F0B53EC1A2B06F043F941EC3B
:103140001E0B53EC1D2B06F03DF9CDE904019DED5E
:10315000060B53EC102B9DED040B51EC100B06F0FD
:1031600031F99FED280B53EC102BCDE908019DEDB3
:10317000080B51EC100B05F073FFCDE90E0153EC79
:10318000192B51EC180B06F01BFA41EC1F0B53ECFA
:103190001A2B06F017F953EC1D2BCDE908019DED14
:1031A000080B51EC100B06F00DF941EC1E0B9FEDD6
:1031B000150B53EC102B05F053FFCDE90C019DEDE1
:1031C0000C1B9DED0E0BFFF736FF8DED0A0B9DEDF1
:1031D0000A0B11B0BDEC108B00BD0000555443200C
:1031E00054696D6500000000FC090020282D44543E
:1031F000FB21094000000040E74D5841000000005D
:1032000000000040000000000080664010B5044649
:103210006FF0040000F0D4F9E11704EB5171C1F331
:10322000C701394A11701046007800EB4001C1EB2C
:10323000C0104FF6FF7101EAC0003449088010BD8C
:103240000146314A12784A434FF0E0235A61002286
:103250009A611A46126942F001021A6100BF4FF0EA
:10326000E022106900F001021AB100F48032002A55
:10327000F5D04FF0E022126922F001024FF0E02376
:103280001A6100229A6170470146204A12884A4317
:103290004FF0E0235A6100229A611A46126942F007
:1032A00001021A6100BF4FF0E022106900F0010234
:1032B0001AB100F48032002AF5D04FF0E0221269F2
:1032C00022F001024FF0E0231A6100229A61704758
:1032D00070B504464FF4077094FBF0F0C6B24FF49B
:1032E000077094FBF0F100FB114085B205E04FF44C
:1032F0000770FFF7C9FF701EC6B2002EF7D115B1D7
:103300002846FFF7C1FF70BD7C0000207E00002032
:10331000014600BF704700BF6A4A128802F04002AF
:10332000002AF9D0C2B2674B9A80704710B588B0B6
:1033300004460121084600F069FF0121102000F039
:10334000BFFF07220921604800F069FA07220A211D
:103350005D4800F064FA4FF4C060069002208DF8DA
:103360001C008DF81D0000208DF81E0001208DF836
:103370001F0006A9544800F0C7F902940020ADF8D8
:103380000C00ADF80E00ADF81000ADF814000C20E4
:10339000ADF8120002A94B4801F0F3F801214948A9
:1033A00001F077F94021474801F05BFA012240F231
:1033B0002551444801F023FA25208DF8040003200C
:1033C0008DF805008DF8060001208DF8070001A892
:1033D00000F0A9F808B010BD10B540F225513948E9
:1033E00001F048FA10B3374801F082F9C4B2374807
:1033F000008800F40040C8B93448008800F48040D8
:1034000060B10A2C03D000203049088020E02F480A
:10341000008840F400402D49088019E00D2C06D1A9
:103420002A48008840F480402849088010E0274856
:103430000088C0F30D0026490C5424480088401C25
:103440002249088008460088C72801DD002008803E
:1034500010BD10B5044621461D4803F0F5FB08B128
:10346000012010BD0020FCE710B5C821184803F06A
:1034700091FC00201749088010BD10B500201649A6
:1034800081F8780081F8790081F8B100782112483C
:1034900003F080FC10487A30002101604160018116
:1034A000817214210B3003F075FC0B480021A0F849
:1034B000991014219B3003F06DFC07480021A0F8FF
:1034C000AF1010BD00100140000002408800002035
:1034D000340A002082000020820900200948804729
:1034E00009480047FEE7FEE7FEE7FEE7FEE7FEE7E6
:1034F000FEE7FEE7FEE7FEE704480549054A064BFE
:1035000070470000110F000889010008600B0020BF
:1035100060110020600D0020600D00203249014341
:10352000324A1160704770B5002100230F22C47821
:103530001CB32E4C246804F4E064C4F5E064C4F3C6
:103540000721C1F10404E3B20A4144789C40E1B28E
:103550008478144021430C07210E254C05786155D1
:10356000047804F01F050124AC4005786D11AD000E
:1035700005F1E025C5F8004109E0047804F01F05D5
:103580000124AC401B4D0678761145F8264070BDED
:10359000194A0A400243154B1B1F1A60704739B184
:1035A000124A121D12680243104B1B1D1A6006E0DE
:1035B0000E4A121D126882430C4B1B1D1A60704785
:1035C000042808D14FF0E021096941F004014FF0CF
:1035D000E022116107E04FF0E021096921F00401C8
:1035E0004FF0E022116170470000FA050CED00E099
:1035F00000E400E080E100E080FFFF1F10B504461A
:103600009848844208D10121084600F06AFE002152
:10361000012000F066FE76E09348844208D1012143
:10362000022000F05EFE0021022000F05AFE6AE057
:103630008E48844208D10121042000F052FE00216E
:10364000042000F04EFE5EE08948844208D101214A
:10365000082000F046FE0021082000F042FE52E063
:103660008448844208D10121102000F03AFE002154
:10367000102000F036FE46E07F48844208D1012148
:10368000202000F02EFE0021202000F02AFE3AE04B
:103690007A48844208D10121402000F022FE002116
:1036A000402000F01EFE2EE07548844208D1012122
:1036B000802000F016FE0021802000F012FE22E0A3
:1036C0007048844208D10121801500F00AFE0021D3
:1036D000A01500F006FE16E06B48844208D10121D7
:1036E000401500F0FEFD0021601500F0FAFD0AE033
:1036F0006648844207D10121001500F0F2FD002147
:10370000201500F0EEFD10BDF0B50A4600210023A3
:10371000002400BF3DE0012505FA01F3156805EA24
:1037200003049C4234D105684F000326BE40B543D4
:10373000056015794E00B54006683543056015797A
:10374000012D02D01579022D16D185684F00032670
:10375000BE40B543856055794E00B5408668354317
:103760008560456801268E40B54345604568967979
:103770008E40B6B235434560C5684F000326BE4053
:10378000B543C560D5794E00B540C6683543C560C0
:10379000491C1029BFD3F0BD4FF6FF710160002115
:1037A000017141718171C171704708B54FF4803268
:1037B0000092009A0A430092009AC261C161009A85
:1037C000C261C2690092C269009208BD024600202F
:1037D00013690B400BB1012000E000207047014647
:1037E000086980B270470246002053690B400BB154
:1037F000012000E0002070470146486980B2704710
:1038000001837047418370470AB1018300E041831F
:1038100070474161704742694A4042617047F0B564
:10382000002300244D07ED0E02FA05F3CE1000F13F
:10383000200555F826504E07F70E0F26BE40B5431B
:10384000CF1000F1200646F82750CE1000F12005D9
:1038500055F8265045EA0304CE1000F1200545F83E
:103860002640F0BD00000240000402400008024073
:10387000000C0240001002400014024000180240F8
:10388000001C0240002002400024024000280240A8
:1038900030B943F2DB028100A1F1C0410A6005E0CA
:1038A00043F2D2028100A1F1C0410A606FF0704280
:1038B000411C8900A1F1C0410A608100A1F1C04111
:1038C000C1F804217047D0E901121143C2681143C5
:1038D000026911434269114382691143C26911436C
:1038E000026A1143426A1143826A1143C26A114358
:1038F000026B114302689200A2F1C042116081681C
:1039000008290BD101688900A1F1C041096841F083
:10391000400201688900A1F1C0410A60416B096859
:10392000426B526841EA0211426B926841EA0221FD
:10393000426B928941EA0241426B128A41EA02518A
:10394000426B127D41EA0261426B92691143026847
:10395000521C9200A2F1C0421160C16AB1F5804FC1
:103960001BD1816B0968826B526841EA0211826B3C
:10397000926841EA0221826B128A41EA0251826B0B
:10398000127D41EA0261826B9269114302689200E2
:10399000A2F1C042C2F8041107E06FF07042016862
:1039A0008900A1F1C041C1F80421704700210160E4
:1039B0000221416000218160C1600161416181613A
:1039C000C16101624FF4805141624900816200216E
:1039D000C1620163F84941638163704751B182005C
:1039E000A2F1C042126842F001038200A2F1C0427B
:1039F000136009E08200A2F1C0421268EF4B1A4046
:103A00008300A3F1C0431A60704710280AD118211F
:103A10004FF020421166402151664FF0FC31916613
:103A2000D16610E01821E64A116040214FF0204293
:103A3000C2F884104FF0FC31E14A083211604FF0B7
:103A40002042C2F88C10704730B5002100220023BC
:103A5000446844F0080485682C43C5682C43056914
:103A60002C43456944EA4524856944EA4531C469E3
:103A70002468C5696D6844EA0524C5692D8944EA4E
:103A80000544C5692D7B44EA0562046A2468056A19
:103A90006D6844EA0524056A2D8944EA0544056AEF
:103AA0002D7B44EA05630468102C05D14FF02044B7
:103AB0002166A266E36608E0C14C21604FF0204415
:103AC000C4F88820BE4C0C34236030BD1021016046
:103AD000002141608160C160016141618161FC211F
:103AE000C2691160C2695160C2699160C269D160E6
:103AF000026A1160026A5160026A9160026AD160D2
:103B0000704799B1102808D14FF02042126E42F050
:103B100004024FF020431A661DE0A94A126842F0E1
:103B200004024FF02043C3F8802014E0102809D18C
:103B30004FF02042126EA14BDB1E1A404FF0204383
:103B40001A6608E09E4A12689C4BDB1E1A404FF032
:103B50002043C3F88020704799B1102808D14FF056
:103B60002042126E42F040024FF020431A661DE0E0
:103B7000934A126842F040024FF02043C3F880207D
:103B800014E0102809D14FF02042126E8B4B3F3BBE
:103B90001A404FF020431A6608E0894A1268874BA2
:103BA0003F3B1A404FF02043C3F880207047014646
:103BB0000020102903D14FF02042506F02E0804ACC
:103BC00014321068704718207D49203108600020A9
:103BD0000906C1F8A4004FF0FC307949283108608B
:103BE000091D0860091D08607047016841F0100157
:103BF000426841EA4221826841EA4231704A2032F9
:103C00001160C1680968C268526841EA0221C2684D
:103C1000128941EA0241C268127B41EA0261684AA4
:103C200028321160016909680269526841EA02217B
:103C30000269128941EA02410269127B41EA02618A
:103C40005F4A2C321160416909684269526841EA51
:103C500002214269128941EA02414269127B41EA2A
:103C600002614FF02042C2F8B0107047002101609D
:103C700041608160FC21C2681160C2685160C26805
:103C80009160C268D1600269116002695160026985
:103C900091600269D1604269116042695160426974
:103CA00091604269D160704748B145492031096847
:103CB00041F004014FF02042C2F8A01009E0404951
:103CC000203109683D4AD21E11404FF02042C2F80F
:103CD000A010704710B5F2B1102807D14FF0204363
:103CE0005B6E0B434FF02044636632E0B0F5807F9B
:103CF00008D1334B1B1D1B680B434FF02044C4F805
:103D0000843026E02E4B24331B680B434FF02044B5
:103D1000C4F8A4301DE0102807D14FF020435B6E9B
:103D20008B434FF02044636613E0B0F5807F08D1E9
:103D3000234B1B1D1B688B434FF02044C4F8843079
:103D400007E01F4B24331B688B434FF02044C4F81B
:103D5000A43010BD10B5024600200023102A03D164
:103D60004FF02044636E09E0B2F5807F03D1144C1C
:103D7000241D236802E0124C2434236803EA010462
:103D80000CB1012000E0002010BD102807D14FF039
:103D90002042526E8A434FF020435A6619E0B0F534
:103DA000807F0FD1064A121D12688A434FF02043CC
:103DB000C3F884200DE0000060BA0008FEFF0F0089
:103DC000800000A0234A12688A434FF02043C3F8C2
:103DD000A420704770B5024600200023002400256F
:103DE000102A03D14FF02046736E08E0B2F5807FB1
:103DF00003D1184E203E336801E0164E336803EAC3
:103E0000010403EAD10514B10DB1012000E0002046
:103E100070BD102808D14FF02042526E22EAD10224
:103E20004FF020435A6614E0B0F5807F09D1094A6B
:103E3000203A126822EAD1024FF02043C3F88420CE
:103E400007E0044A126822EAD1024FF02043C3F887
:103E5000A4207047A40000A0F948006840F00100C9
:103E6000F74908600020F64908310860F448006806
:103E7000F4490840F2490860F348091D0860F34816
:103E8000EF4984310860F0481038091D0860EC489B
:103E9000006820F48020EA4908600020E8490C31DD
:103EA0000860E7498C31086070470021E44A921CA1
:103EB000117011460870704710B5014600220023AA
:103EC00000204A11012A02D1DD4C236808E0022AB1
:103ED00003D1DB4C7034236802E0D94C743423687E
:103EE00001F01F02012494401C400CB1012000E0AD
:103EF000002010BD38B5002000900024002500BF30
:103F00003120FFF7D9FF05460098401C009000982B
:103F1000B0F5A04F01D0002DF2D03120FFF7CCFF3B
:103F200008B1012400E00024204638BD01460020ED
:103F3000C34A106820F0F80040EAC10010607047E2
:103F4000C349086070470021BD4A7032117011707A
:103F5000012802D004280AD104E00121B84A7032B5
:103F6000117005E00521B64A7032117000E000BF03
:103F700000BF7047B7490860704770B5049C41EABC
:103F800082150126C6EB530645EA0645054345EA78
:103F90000465AB4E361D356070BDAD49086670478F
:103FA000820142EA0172A64B84331A607047A84925
:103FB0008866704710B5830143EA016343EA0273E0
:103FC0009F4C8834236010BDA14908677047A04901
:103FD000C864704702460020994B0833186820F0E7
:103FE000EC6042EA01031843954B083318607047B0
:103FF00002460020924B0833186820F0784042EACD
:10400000010318438E4B08331860704701460020A7
:104010008B4A0832106820F0030008431060704794
:1040200087480830006800F00C0070470146002007
:10403000834A0832106820F0F0000843106070478F
:10404000014600207E4A0832106820F4E050084300
:104050001060704701460020794A0832106820F449
:10406000604040EAC10010607047F0B500210022B6
:104070000024022500260223714F08373F6807F00D
:104080000C0121B1042905D0082937D105E0724F70
:10409000076036E0714F076033E0694F3F1D3F68AE
:1040A000C7F38056664F3F1D3F6807F03F036EB170
:1040B0006A4FB7FBF3F7DFF888C10CF1040CDCF8AA
:1040C00000C0CCF3881C07FB0CF40CE0624FB7FB7C
:1040D000F3F7DFF86CC10CF1040CDCF800C0CCF392
:1040E000881C07FB0CF4564F3F1D3F68C7F3014780
:1040F0007F1C7D00B4FBF5F7076002E0564F0760B8
:1041000000BF00BF4E4F08373F6807F0F0010909B4
:10411000534F7A5C0768D7404760494F08373F687C
:1041200007F4E051890A4E4F7A5C4768D7408760B0
:10413000434F08373F6807F46041490B484F7A5CAA
:104140004768D740C760F0BD002100F44072B2F567
:10415000407F0AD13A4A0832116821F4F811414AE5
:1041600002401143364A08321160354A70321268F3
:10417000C0F30B031A43324B70331A607047354952
:104180004439086070473349403908607047364900
:104190000860704701460020294A8C32106820F0E0
:1041A0001F004A1E1043264A8C3210607047014699
:1041B0000020234A8C32106820F4F8504A1E40EA4E
:1041C00002201F4A8C3210607047014600201C4AB2
:1041D0008C32106820F4401008431060704701468C
:1041E0000020174A8C32106820F440000843106009
:1041F000704701460020124A8C32106820F440308B
:1042000008431060704719490860704739B10C4A7B
:104210003032126802430A4B30331A6006E0084A13
:10422000303212688243064B30331A607047F9B15E
:10423000034A343212680243014B34331A601CE0E3
:1042400000380240FFFFF6EA103000240030002062
:1042500000004742800E47420024F40000127A001A
:104260008A000020FFFCFF0F5C014742E01147423B
:104270008F4A126882438E4B1A60704739B18C4A5C
:10428000121D126802438A4B1B1D1A6006E0884A01
:10429000121D12688243864B1B1D1A60704739B18C
:1042A000834A0C3212680243814B0C331A6006E0D9
:1042B0007F4A0C32126882437D4B0C331A60704780
:1042C00039B17B4A103212680243794B10331A60BD
:1042D00006E0774A103212688243754B10331A6039
:1042E000704739B1724A243A12680243704B243B3A
:1042F0001A6006E06E4A243A126882436C4B243BF3
:104300001A60704739B16A4A203A12680243684B12
:10431000203B1A6006E0664A203A12688243644BEA
:10432000203B1A60704739B1614A1C3A1268024357
:104330005F4B1C3B1A6006E05D4A1C3A12688243E0
:104340005B4B1C3B1A60704739B1594A143A1268EA
:104350000243574B143B1A6006E0554A143A126860
:104360008243534B143B1A60704739B1504A103A9C
:10437000126802434E4B103B1A6006E04C4A103A5A
:10438000126882434A4B103B1A60704739B1484A61
:104390001C3212680243464B1C331A6006E0444A42
:1043A0001C3212688243424B1C331A60704739B189
:1043B0003F4A2032126802433D4B20331A6006E028
:1043C0003B4A203212688243394B20331A607047CF
:1043D00039B1374A243212680243354B24331A600C
:1043E00006E0334A243212688243314B24331A6088
:1043F000704739B12E4A2C32126802432C4B2C33B1
:104400001A6006E02A4A2C3212688243284B2C3369
:104410001A60704739B1264A303212680243244B81
:1044200030331A6006E0224A303212688243204B51
:1044300030331A607047012808D11D493C310968A2
:1044400041F008011A4A3C32116007E018493C313A
:10445000096821F00801164A3C321160704739B1F1
:10446000134A273A12780243114B273B1A7006E091
:104470000F4A273A127882430D4B273B1A70704738
:104480000B484030006840F08070094940310860B6
:10449000704701460020064A283A12680A400AB1CD
:1044A000012000E00020704701492639087070475C
:1044B0003438024010B50446FA48844208D101213C
:1044C0001020FFF752FF00211020FFF74EFF57E0AA
:1044D000F548844209D101214804FFF735FF002146
:1044E0004FF40030FFF730FF4AE0F048844209D132
:1044F00001218804FFF728FF00214FF48020FFF7F7
:1045000023FF3DE0EA48844209D10121C804FFF7B6
:104510001BFF00214FF40020FFF716FF30E0E548B5
:10452000844209D101210805FFF70EFF00214FF455
:104530008010FFF709FF23E0DF48844208D1012102
:104540002020FFF712FF00212020FFF70EFF17E0C9
:10455000DA48844209D101218807FFF7F5FE0021DE
:104560004FF08040FFF7F0FE0AE0D548844207D1C3
:1045700001214005FFF7E8FE00216005FFF7E4FE9A
:1045800010BD2DE9FF4705460E460024A14600BF99
:10459000A046B08900B100BF2C8A24F44054F088B2
:1045A00004432C82AC8941F20C608443B088318989
:1045B0000843718908430443AC81AC8A24F44074F5
:1045C000B0890443AC826846FFF74FFDB548854289
:1045D00002D0B948854202D1DDF80C9001E0DDF847
:1045E0000890A88900F4004040B109EBC90000EB35
:1045F000091031684900B0FBF1F707E009EBC90089
:1046000000EB091031688900B0FBF1F76420B7FBBB
:10461000F0F004012009642101FB1078A88900F45E
:10462000004040B1322000EBC800B0FBF1F000F0D8
:104630000700044308E0322000EB08106421B0FBBF
:10464000F1F000F00F0004432C81BDE8FF874FF428
:104650001651016000218180C18001810C214181BE
:1046600000218181704710B502460020108A20F495
:1046700070600B884C8823438C882343CC88234369
:104680001843108210BD0021018041808180C180CB
:10469000704721B1828942F40052828104E082890C
:1046A0004DF6FF731A4082817047028B02F47F42FD
:1046B0000283028B0A430283704721B1828942F44C
:1046C0000042828103E08289C2F30E028281704738
:1046D00021B1828A42F40062828204E0828A4FF22F
:1046E000FF731A4082827047C1F3080282807047CC
:1046F00001468888C0F308007047028A4FF6F073BD
:104700001A400282028A0A430282704721B18289DA
:1047100042F00202828104E082894FF6FD731A4062
:104720008281704782894FF2FF731A4082818289A9
:104730000A4382817047028A4FF6DF731A40028271
:10474000028A0A430282704721B1028A42F48042FF
:10475000028204E0028A4BF6FF731A40028270471D
:10476000818941F001018181704721B1828A42F043
:104770000802828204E0828A4FF6F7731A4082822E
:104780007047028BD2B20283028B42EA012202837B
:10479000704721B1828A42F02002828204E0828A3C
:1047A0004FF6DF731A408282704721B1828A42F04D
:1047B0001002828204E0828A4FF6EF731A408282EE
:1047C0007047828A4FF6FB731A408282828A0A43BC
:1047D0008282704721B1828A42F00202828204E022
:1047E000828A4FF6FD731A40828270471AB1838A1B
:1047F0000B43838202E0838A8B4383827047F0B548
:104800000346002400260025002040F66A17B9421E
:1048100000D100BF1846C1F3421401F01F06012762
:1048200007FA06F5012C01D10C3004E0022C01D16D
:10483000103000E014301AB107682F43076002E01F
:104840000768AF430760F0BD02460020B1F5007F66
:1048500000D100BF13880B400BB1012000E0002005
:10486000704701F40072B2F5007F00D100BFCA4367
:104870000280704770B50246002400230025002006
:1048800040F66A16B14200D100BFC1F3421501F0F3
:104890001F03012606FA03F3012D13D19689334035
:1048A00017E00000001001400044004000480040B4
:1048B000004C0040005000400014014000780040CF
:1048C000007C0040022D02D1168A334001E0968A16
:1048D00033400C12012606FA04F41688344013B152
:1048E0000CB1012000E0002070BD10B500220023B3
:1048F00040F66A14A14200D100BF0A12012494407C
:10490000A3B2DC43048010BD10B50446FE488442C7
:1049100008D101210846FFF728FD00210120FFF7FB
:1049200024FD9DE0B4F1804F08D101210846FFF736
:104930000BFD00210120FFF707FD91E0F3488442C1
:1049400008D101210220FFF7FFFC00210220FFF720
:10495000FBFC85E0EE48844208D101210420FFF7EA
:10496000F3FC00210420FFF7EFFC79E0E9488442E2
:1049700008D101210820FFF7E7FC00210820FFF7FC
:10498000E3FC6DE0E448844208D101211020FFF7E8
:10499000DBFC00211020FFF7D7FC61E0DF488442F8
:1049A00008D101212020FFF7CFFC00212020FFF7B4
:1049B000CBFC55E0DA48844208D101210220FFF700
:1049C000D4FC00210220FFF7D0FC49E0D548844206
:1049D00009D101210804FFF7C8FC00214FF4803001
:1049E000FFF7C3FC3CE0D048844209D101214804D0
:1049F000FFF7BBFC00214FF40030FFF7B6FC2FE0BF
:104A0000CA48844209D101218804FFF7AEFC002185
:104A10004FF48020FFF7A9FC22E0C548844208D16A
:104A200001214020FFF790FC00214020FFF78CFC83
:104A300016E0C048844208D101218020FFF784FCA1
:104A400000218020FFF780FC0AE0BB48844207D1A8
:104A500001218015FFF778FC0021A015FFF774FCF9
:104A600010BD00220288A84B98420ED0AC4B984251
:104A70000BD0B0F1804F08D0A44B984205D0A44B86
:104A8000984202D0A34B984204D14FF68F731A403C
:104A90004B881A43A04B984207D0A04B984204D0B1
:104AA0004FF6FF431A400B891A4302804B68C362DA
:104AB0000B880385944B984202D0994B984201D1C0
:104AC0008B7A03860123838270474FF0FF31416068
:104AD00000210180018141808172704701858282BD
:104AE00070470A46002101884FF68F731940114321
:104AF0000180704741627047C16270470146486A51
:104B000070470146088D704721B1028842F00202C9
:104B1000028004E002884FF6FD731A40028070475D
:104B200021B1028842F00402028004E002884FF6BC
:104B3000FB731A400280704721B1028842F0800264
:104B4000028004E002884FF67F731A4002807047AB
:104B500002884FF6F7731A40028002880A430280E7
:104B6000704702884FF6FF431A40028002880A43CA
:104B70000280704721B1028842F00102028004E005
:104B800002884FF6FE731A400280704770B5002409
:104B900000220023058C4FF6FE7635400584028CFA
:104BA0008388048B4FF68F752C40B51E2C400D88E2
:104BB0002C43751E2A408D892A434D882A43524D25
:104BC000A84202D0564DA84213D14FF6F7752A409D
:104BD000CD892A434FF6FB752A408D882A434FF62C
:104BE000FF652B404FF6FF552B400D8A2B434D8A16
:104BF0002B43838004838D684563028470BD70B548
:104C0000002400220023058C4FF6EF763540058402
:104C1000028C8388048B48F6FF752C404FF6FF45C5
:104C20002C400D884FF6FF7606EA05252C434FF6FB
:104C3000DF752A408D8906EA05152A434D8806EA64
:104C400005152A43304DA84202D0354DA8421DD14A
:104C50004FF67F752A40CD894FF6FF7606EA051597
:104C60002A434FF6BF752A408D8806EA05152A4368
:104C70004FF6FF352B404FF2FF752B400D8A06EAA9
:104C800085052B434D8A06EA85052B4383800483E3
:104C90008D688563028470BD70B5002400220023F6
:104CA000058C4FF6FF6635400584028C8388848B23
:104CB0004FF68F752C404FF6FC752C400D882C4319
:104CC0004FF6FF552A408D894FF6FF7606EA0525F7
:104CD0002A434D8806EA05252A430B4DA84202D0F7
:104CE0000F4DA84238D14FF2FF752A40CD894FF6BB
:104CF000FF7606EA05252A434FF6FF352A408D88C0
:104D000006EA05252A4319E000000140000400409E
:104D100000080040000C004000100040001400405B
:104D200000040140004001400044014000480140AF
:104D300000180040001C0040002000404EF6FF75A7
:104D40002B404DF6FF752B400D8A06EA05152B43C7
:104D50004D8A06EA05152B43838084838D68C563DD
:104D6000028470BD70B5002200230024058C4EF62D
:104D7000FF7635400584038C8488828B48F6FF7566
:104D80002A404FF6FF452A400D884FF6FF7606EA87
:104D900005252A434DF6FF752B408D8906EA05351A
:104DA0002B434D8806EA05352B43FE4DA84202D021
:104DB000FD4DA84208D14BF6FF752C400D8A4FF6E9
:104DC000FF7606EA85152C43848082838D6805640E
:104DD000038470BD002101804180818081608181D8
:104DE000C18101824182704770B5034600200024D2
:104DF0001846183001258D40ACB21D8CA5431D848A
:104E000009B108290AD100EB610005684FF68F76D9
:104E1000354005600568154305600FE00D1FC5F3BB
:104E20004E052844056848F6FF763540056005685C
:104E30004FF6FF7606EA02263543056070BD4163F2
:104E4000704781637047C1637047016470470A46C9
:104E50000021018B4FF68F73194011430183704776
:104E60000A460021018B48F6FF7319404FF6FF7385
:104E700003EA02231943018370470A460021818B0C
:104E80004FF68F7319401143818370470A46002102
:104E9000818B48F6FF7319404FF6FF7303EA022334
:104EA0001943818370470A460021018B4FF6F7733F
:104EB00019401143018370470A460021018B4FF2CC
:104EC000FF7319404FF6FF7303EA0223194301836E
:104ED00070470A460021818B4FF6F7731940114342
:104EE000818370470A460021818B4FF2FF7319407E
:104EF0004FF6FF7303EA02231943818370470A4682
:104F00000021018B4FF6FB73194011430183704759
:104F10000A460021018B4FF6FF3319404FF6FF730D
:104F200003EA02231943018370470A460021818B5B
:104F30004FF6FB7319401143818370470A460021E5
:104F4000818B4FF6FF3319404FF6FF7303EA0223BC
:104F50001943818370470A460021018B4FF67F7306
:104F600019401143018370470A460021018BC1F3A8
:104F70000E014FF6FF7303EA0223194301837047C2
:104F80000A460021818B4FF67F73194011438183BC
:104F900070470A460021818BC1F30E014FF6FF7363
:104FA00003EA02231943818370470A460021018CDA
:104FB0004FF6FD7319401143018470470A460021E2
:104FC000018C4FF6F77319401143018470470A466C
:104FD0000021018C4FF6DF7319404FF6FF7303EA8F
:104FE00002131943018470470A460021018C4FF6D1
:104FF0007F7319404FF6FF7303EA021319430184CC
:1050000070470A460021018C4FF6FF5319404FF6B6
:10501000FF7303EA02231943018470470A46002103
:10502000018C4FF2FF7319404FF6FF7303EA02231E
:105030001943018470470A460021018C4DF6FF7325
:1050400019404FF6FF7303EA023319430184704796
:1050500030B5002301248C40A3B2048C9C4304840B
:10506000048C02FA01F5ADB22C43048430BD30B596
:10507000002304248C40A3B2048C9C430484048C3D
:1050800002FA01F5ADB22C43048430BD828B4FF29D
:10509000FF331A408283828B4FF6FF7303EA0123AA
:1050A0001A4382837047F0B50C4615460021002252
:1050B0000026078C4EF6FF7C07EA0C070784818BDD
:1050C000028C4FF6FF7707EA043640F6FF47394077
:1050D0004FF6FF7707EA052739434FF6FF7707EAD0
:1050E0000337394345F6FF773A4046F480573A4351
:1050F00081830284F0BD828B4FF6F3731A40828362
:10510000828B0A4382837047F0B50C461546002116
:1051100000220026078C4FF6FF6C07EA0C07078475
:10512000818B028C4FF6FF7707EA04264FF60C7747
:1051300039404FF6FF7707EA03172F4339434FF201
:10514000FF573A4046F480773A4381830284F0BDAA
:10515000028B4FF2FF331A400283028B4FF6FF732C
:1051600003EA01231A4302837047F0B50C46154643
:10517000002100220026078C4FF6EF7C07EA0C077F
:105180000784018B028C4FF6FF7707EA041640F67E
:10519000FF4739404FF6FF7707EA033739434FF6A9
:1051A000FF7703E0000001400004014007EA052703
:1051B00039434FF65F773A4046F010073A43018390
:1051C0000284F0BD028B4FF6F3731A400283028B08
:1051D0000A4302837047F0B50C46154600210022B1
:1051E000068C4FF6FE773E400684018B028C4FF60C
:1051F0000C7631407E1C06EA03162E4331434FF6EF
:10520000F576324044F00106324301830284F0BD5A
:1052100070B505460C46208850B92389A28861885C
:105220002846FFF7D8FFE1882846FFF7CBFF25E0A7
:10523000208804280AD12389A28861882846FFF79C
:1052400094FFE1882846FFF783FF17E020880828AD
:105250000AD12389A28861882846FFF755FFE18893
:105260002846FFF748FF09E02389A288618828467D
:10527000FFF719FFE1882846FFF708FF70BD0021FE
:1052800001804180012181800021C180018170471E
:105290002DE9F04105460C4600260127608808B933
:1052A000022600E00026A088012801D1022700E0A4
:1052B00001272088A0B92389A28861882846FFF7A2
:1052C0008AFFE1882846FFF77DFF23893A46314669
:1052D0002846FFF74AFFE1882846FFF739FF13E029
:1052E0002389A28861882846FFF73FFFE188284686
:1052F000FFF72EFF23893A4631462846FFF76BFF1A
:10530000E1882846FFF75EFFBDE8F0810146486B63
:1053100070470146886B70470146C86B704701466D
:10532000086C70470A884B881A438B881A43CB88CD
:105330001A430B891A434B891A438B891A43A0F8E5
:10534000442070470021018041808180C18001811B
:1053500041818181704731B1B0F8442042F400426C
:10536000A0F8442005E0B0F84420C2F30E02A0F8F3
:105370004420704721B1828842F00402828004E018
:1053800082884FF6FB731A408280704721B1828871
:1053900042F00102828004E082884FF6FE731A40D8
:1053A000828070471AB183890B43838102E083892D
:1053B0008B43838170478182704702460020138AA5
:1053C0000B400BB1012000E000207047CA4302826D
:1053D000704730B50246002000230024158A05EAF4
:1053E0000103958905EA010413B10CB1012000E025
:1053F000002030BDCA430282704741EA0203A0F890
:10540000483070471AB183890B43838102E0838956
:105410008B438381704721B1828842F008028280E9
:1054200004E082884FF6F7731A4082807047018942
:105430004FF6F8721140018170470A460021018938
:105440004FF68F73194011430181704730B5044600
:105450000D4629462046FFF7F0FF208940F007005F
:10546000208130BD2DE9F04104460D4616461F4609
:10547000602D06D13B46012231462046FFF775FEDE
:1054800005E03B46012231462046FFF7A4FE2946AF
:105490002046FFF7D2FF208940F007002081BDE8B9
:1054A000F08130B50C4600210189C9B24FF6FF7575
:1054B00005EA0325154325432943018130BD2DE924
:1054C000F04105460E4617469846002443463A46A4
:1054D00031462846FFF7E5FF2C894FF6F870044067
:1054E00044F007044FF68F70044044F070042C81A0
:1054F000BDE8F081F0B504460D4616461F463B4612
:10550000324629462046FFF7CCFF208940F48040F0
:105510002081F0BD82884FF68F731A408280828886
:105520000A438280704702894FF6F8731A4002815D
:1055300002890A430281704702894FF67F731A403D
:10554000028102890A4302817047F0B50C46154674
:105550001E460021002200230189028B038C4FF696
:10556000F877394021434FF6FC473A4040F20117A3
:105570003A434FF6DD773B404FF6FF7707EA0617D1
:105580002F433B43018102830384F0BD21B1828814
:1055900042F08002828004E082884FF67F731A40D6
:1055A00082807047A0F850107047000010B58CB092
:1055B00004461E230BAA03A9204600F0A9FE009072
:1055C000009810B101200CB010BD9DF82C000444CF
:1055D00000200B900EE040489DF82C2050F822103F
:1055E00003A800F0FDFD00B908E09DF82C00401C68
:1055F000C0B20B909DF82C000728ECD300BF9DF89B
:105600002C00072863D2DFE800F004053C5E6564E7
:10561000630000BF31A001F097F831A001F094F8C9
:105620003FA001F091F84EA001F08EF85CA001F0CF
:105630008BF86BA001F088F879A001F085F886A0BE
:1056400001F082F88BA001F07FF890A001F07CF8C7
:1056500094A001F079F899A001F076F89EA001F0ED
:1056600073F8A4A001F070F8B0A001F06DF8BDA02F
:1056700001F06AF8C8A001F067F8D4A001F064F85E
:105680009AE216A001F060F8E0A001F05DF80020B9
:105690000B900EE0ED4800689DF82C2000EBC20056
:1056A0004168EBA001F050F89DF82C00401CC0B2FE
:1056B0000B90E648007D9DF82C108842EADC07A09C
:1056C00001F042F878E205A001F03EF8C4E171E291
:1056D00045E219E2ECE100009C0000200D0A000008
:1056E0002D2D2D2D2D2D2D2D2D2D2D2D2D2D2D2DEA
:1056F0002D2D2D2D2D2D2D2D55534D4152542056F0
:10570000332E312D2D2D2D2D2D2D2D2D2D2D2D2DBE
:105710002D2D2D2D2D2D2D2D2D2D2D200D0A000063
:105720002020202055534D415254CAC7D3C9414C63
:1057300049454E54454BBFAAB7A2B5C4D2BBB8F633
:10574000C1E9C7C9B5C4B4AEBFDAB5F7CAD4BBA501
:10575000BDBBD7E9BCFE2CCDA8B9FD200D0A0000C9
:10576000CBFC2CC4E3BFC9D2D4CDA8B9FDB4AEBF25
:10577000DAD6FACAD6B5F7D3C3B3CCD0F2C0EFC3EA
:10578000E6B5C4C8CEBACEBAAFCAFD2CB2A2D6B462
:10579000D0D02ED2F2B4CB2CC4E3BFC90D0A000086
:1057A000D2D4CBE6D2E2B8FCB8C4BAAFCAFDB5C415
:1057B000CAE4C8EBB2CECAFD28D6A7B3D6CAFDD775
:1057C000D62831302F3136BDF8D6C629A1A2D7D67A
:1057D000B7FBB4AEA1A2BAAFCAFDC8EB0D0A000078
:1057E000BFDAB5D8D6B7B5C8D7F7CEAAB2CECAFDFC
:1057F000292CB5A5B8F6BAAFCAFDD7EEB6E0D6A744
:10580000B3D63130B8F6CAE4C8EBB2CECAFD2CB27A
:10581000A2D6A7B3D6BAAFCAFDB7B5200D0A00000D
:10582000BBD8D6B5CFD4CABE2ED0C2D4F6B2CECA5B
:10583000FDCFD4CABEBDF8D6C6C9E8D6C3B9A6C482
:10584000DC2CD0C2D4F6BDF8D6C6D7AABBBBB9A64D
:10585000C4DC2E0D0A000000BCBCCAF5D6A7B3D626
:105860003A7777772E6F70656E6564762E636F6D0D
:105870000D0A000055534D415254D3D037B8F6CFDE
:10588000B5CDB3C3FCC1EE3A0D0A00003F3A20206B
:1058900020202020BBF1C8A1B0EFD6FAD0C5CFA2FE
:1058A0000D0A000068656C703A202020BBF1C8A189
:1058B000B0EFD6FAD0C5CFA20D0A00006C697374A0
:1058C0003A202020BFC9D3C3B5C4BAAFCAFDC1D0E6
:1058D000B1ED0D0A0A00000069643A202020202062
:1058E000BFC9D3C3BAAFCAFDB5C44944C1D0B1ED35
:1058F0000D0A0A006865783A20202020B2CECAFD41
:105900003136BDF8D6C6CFD4CABE2CBAF3B8FABF6A
:10591000D5B8F12BCAFDD7D6BCB4D6B4D0D0BDF81B
:10592000D6C6D7AABBBB0D0A0A0000006465633A5D
:1059300020202020B2CECAFD3130BDF8D6C6CFD44B
:10594000CABE2CBAF3B8FABFD5B8F12BCAFDD7D668
:10595000BCB4D6B4D0D0BDF8D6C6D7AABBBB0D0A4E
:105960000A00000072756E74696D653A312CBFAA29
:10597000C6F4BAAFCAFDD4CBD0D0BCC6CAB13B3096
:105980002CB9D8B1D5BAAFCAFDD4CBD0D0BCC6CA19
:10599000B13B0D0A0A000000C7EBB0B4D5D5B3CCBB
:1059A000D0F2B1E0D0B4B8F1CABDCAE4C8EBBAAF26
:1059B000CAFDC3FBBCB0B2CECAFDB2A2D2D4BBD822
:1059C000B3B5BCFCBDE1CAF82E0D0A002D2D2D2D5E
:1059D0002D2D2D2D2D2D2D2D2D2D2D2D2D2D2D2DF7
:1059E0002D2D2D2D2D2D414C49454E54454B2D2D02
:1059F0002D2D2D2D2D2D2D2D2D2D2D2D2D2D2D2DD7
:105A00002D2D2D2D2D2D2D200D0A00002D2D2D2D70
:105A10002D2D2D2D2D2D2D2D2D2D2D2D2D2D2D2DB6
:105A20002D2D2D2D2DBAAFCAFDC7E5B5A52D2D2DD8
:105A30002D2D2D2D2D2D2D2D2D2D2D2D2D2D2D2D96
:105A40002D2D2D2D2D2D2D2D200D0A00F0000020A7
:105A500025730D0A00000000EEA000F075FE002086
:105A60000B901AE0FB4909689DF82C2001EBC2015C
:105A700001AB02AA486803A900F070FCF548006871
:105A80009DF82C1050F8312003A9F3A000F05CFE23
:105A90009DF82C00401CC0B20B90EE48007D9DF894
:105AA0002C108842DEDCAFF2CC3000F04DFE83E0FB
:105AB000AFF2D83000F048FE0BAA03A9204600F050
:105AC00029FD9DF82C00C8B9694603A800F0BBFB6E
:105AD0000B909DF82C0020B9E4A0009900F034FE52
