:020000040800F2
:10000000C8120020E1690008190F00081B0F000842
:100010001F0F0008230F0008270F00080000000032
:100020000000000000000000000000002B0F00088E
:100030002D0F0008000000002F0F0008310F0008EE
:10004000FB690008FB690008FB690008FB69000800
:10005000FB690008FB690008FB690008FB690008F0
:10006000FB690008FB690008FB690008FB690008E0
:10007000FB690008FB690008FB690008FB690008D0
:10008000FB690008FB690008FB690008FB690008C0
:10009000FB690008FB690008FB690008FB690008B0
:1000A000FB690008FB690008FB690008FB690008A0
:1000B000FB690008275D000825910008FB6900081E
:1000C000FB690008FB690008FB690008FB69000880
:1000D000FB69000855690008FB690008755D0008A8
:1000E000FB690008FB690008FB690008FB69000860
:1000F000FB690008FB690008FB690008FB69000850
:10010000FB690008FB690008FB690008FB6900083F
:10011000FB690008FB690008FB690008455C0008F2
:10012000FB690008FB690008FB690008FB6900081F
:10013000FB690008FB690008FB690008FB6900080F
:10014000FB690008FB690008FB690008FB690008FF
:10015000FB690008FB690008FB690008FB690008EF
:10016000FB690008FB690008FB690008FB690008DF
:10017000FB690008FB690008FB690008FB690008CF
:10018000FB690008FB69000800F002F800F0B2F813
:100190000AA090E8000C82448344AAF10107DA45E2
:1001A00001D100F0A7F8AFF2090EBAE80F0013F082
:1001B000010F18BFFB1A43F00103184790E300003A
:1001C000B0E300000A444FF0000C10F8013B13F0BC
:1001D000070408BF10F8014B1D1108BF10F8015BA0
:1001E000641E05D010F8016B641E01F8016BF9D193
:1001F00013F0080F1EBF10F8014BAD1C0C1B09D1EA
:100200006D1E58BF01F801CBFAD505E014F8016B5B
:1002100001F8016B6D1EF9D59142D6D370470000ED
:100220000023002400250026103A28BF78C1FBD8FF
:10023000520728BF30C148BF0B6070476E2909F0D4
:100240006087702909F0E38566290CF0AD82652985
:100250000CF0AA8267290CF0A7826129AFF3008015
:1002600003681B0A28BF41F08001692909F0548501
:10027000642909F05185752909F04E856F290AF026
:100280006582782909F0AF85E9290AF0FF81E42920
:100290000AF0FC81F5290AF0F981EF290AF062825F
:1002A000F82909F0AE850368DB0928BF41F0800119
:1002B00063290AF06E8173290AF07381E3290AF039
:1002C000F382F3290AF0F882002070471FB50CF082
:1002D00066FA0AF051FA0400002000210BF0B2FC8B
:1002E000401C6060002000210BF096FCE0601FBD08
:1002F00010B510BD0AF07AFB1146FFF7E7FF00F0DA
:10030000A9FC0AF0A1FB03B4FFF7F2FF03BC06F05F
:10031000BDFA000070B578200546064600240EE0C0
:100320004FF4FC6322465021284605F01DFC06F1DF
:100330001000C6B205F11800C5B2601CC4B2062C8C
:10034000EEDB70BD1CB54AF25160FE490880FEA08C
:1003500018210B464FF49672CDE900101421282085
:1003600005F086FBFEA018210B464FF49672CDE9EE
:1003700000103221282005F07BFBFDA018210B4640
:100380004FF4C872CDE900105021282005F070FB11
:10039000FFF7C0FFF8A018210B464FF49672CDE985
:1003A00000106E21282005F063FBF9A018210B46F0
:1003B0004FF4C872CDE900108C21002005F058FBE5
:1003C0001CBD1CB5FFF7BEFF42F61230DD490880A8
:1003D000F7A1FD4809F03AFCFB4818210B46C8225A
:1003E000CDE90010A0213C2005F042FBF7A1F64822
:1003F00009F02CFCF44818210B46C822CDE9001066
:10040000BE213C2005F034FBF5A1EF4809F01EFCAD
:10041000ED4818210B46C822CDE90010DC213C2014
:1004200005F026FBF2A1E84809F010FCE648182187
:100430000B46C822CDE90010FA213C2005F018FB3C
:10044000F0A1E14809F002FCDF4818210B464FF407
:100450009672CDE900104FF48C713C2005F008FB3A
:10046000EBA1D94809F0F2FBD74818210B464FF40D
:100470009672CDE900104FF49B713C2005F0F8FA1C
:10048000E8A1D14809F0E2FBCF4818210B464FF410
:100490009672CDE900104FF4AA713C2005F0E8FAFD
:1004A000E6A1C94809F0D2FBC74818210B46C8226B
:1004B000CDE900104FF4B9713C2005F0D9FAE4A160
:1004C000C14809F0C3FBC04818210B46C822CDE93A
:1004D000001051003C2005F0CBFA1CBD1CB5FFF705
:1004E00031FF42F6123097490880DEA1B64809F084
:1004F000ADFBB54818210B46C822CDE90010A0215C
:100500003C2005F0B5FADDA1AF4809F09FFBAE48ED
:1005100018210B46C822CDE90010BE213C2005F071
:10052000A7FADBA1A84809F091FBA74818210B46C0
:10053000C822CDE90010DC213C2005F099FAD8A1B1
:10054000A14809F083FBA04818210B46C822CDE939
:100550000010FA213C2005F08BFAAAA19A4809F074
:1005600075FB994818210B46C822CDE900104FF4BD
:100570008C713C2005F07CFACEA1934809F066FB13
:10058000914818210B464FF49672CDE900104FF4B4
:100590009B713C2005F06CFACBA18B4809F056FB0F
:1005A000894818210B464FF49672CDE900104FF49C
:1005B000AA713C2005F05CFAA0A1834809F046FB33
:1005C000814818210B46C822CDE900104FF4B971BB
:1005D0003C2005F04DFAC2A17B4809F037FB7A4870
:1005E00018210B46C822CDE9001051003C2005F02F
:1005F0003FFA1CBD10B52DED048B82B0FFF7A2FEB3
:100600001F2050490880BB48D0F8490000EE100A6E
:10061000B8EE400AB0EE408A9FEDB70AC8EE000A75
:10062000B0EE608A10EE904A20460CF047F841EC9C
:10063000190BB04890F84D0053EC192BAFA1009066
:10064000614809F003FB604818210B46C822CDE938
:100650000010A0213C2005F00BFAA648406C00EEEB
:10066000100AB8EE400AB0EE408A9FEDA30AC8EE29
:10067000000AB0EE608A10EE904A20460CF01EF898
:1006800041EC190B9B4890F8480053EC192BA1A1A1
:1006900000904D4809F0DAFA4B4818210B46C82261
:1006A000CDE90010BE213C2005F0E2F99148D0F8D8
:1006B000630000EE100AB8EEC00AB0EE408AB2EE57
:1006C000040AC8EE000AB0EE608A10EE904A204696
:1006D0000BF0F4FF41EC190B53EC192B93A13A48A2
:1006E00009F0B4FA384818210B46C822CDE90010A9
:1006F000DC213C2005F0BCF97E48B0F8670000EE34
:10070000100AB8EE400AB0EE408A9FED8D0AC8EE9E
:10071000000AB0EE608A10EE904A20460BF0CEFF41
:1007200041EC190B53EC192B86A1274809F08EFADE
:10073000254818210B46C822CDE90010FA213C209B
:100740000AE100002A00002053544D333220475064
:10075000532D4D6F64756C652054657374000000F3
:100760004D6F64656C20203A4E656F2D364D00004C
:10077000417574686F723A004B5F4C4546543A4677
:10078000756E6374696F6E205377697463680000D7
:100790002D2D2D2D2D2D2D2D2D2D2D2D2D2D2D2D89
:1007A0002D2D2D2D2D2D2D2D2D2D2D2D2D2D2D00A6
:1007B0004C6F6E6769747564653A3131342E32332B
:1007C0003734352045200000200500204C61746935
:1007D000747564653A33302E3538343534204E0024
:1007E000416C7469747564653A35342E386D000057
:1007F00053706565643A302E3434306B6D2F682049
:1008000000000000466978204D6F64653A3344006B
:1008100056616C696420736174656C6C6974653AC7
:100820003038000056697369626C652073617465C5
:100830006C6C6974653A31310000000055544320F6
:10084000446174653A323032302F31302F33310009
:100850005554432054696D653A30323A31313A305B
:10086000360000004C6F6E6769747564653A31310B
:10087000342E313437343820452000004C617469FF
:10088000747564653A33302E3337343532204E0078
:10089000416C7469747564653A31392E346D0000A9
:1008A00053706565643A302E3133306B6D2F68209C
:1008B0000000000056616C696420736174656C6CA3
:1008C0006974653A3036000056697369626C652058
:1008D000736174656C6C6974653A303800000000AF
:1008E0005554432054696D653A30323A32373A31C3
:1008F00038000000B40400200050C3474C6F6E67FE
:1009000069747564653A252E35662025316320208B
:10091000200000004C617469747564653A252E35B9
:10092000662025316320202000000000416C74699E
:10093000747564653A252E31666D202020202000D4
:1009400000007A4453706565643A252E33666B6DFA
:100950002F6820202020200005F08AF8FE4890F81B
:100960005C00032814DCFC4890F85C00FB4951F85B
:100970002020FBA1FD4809F069F9FC4818210B462D
:10098000C822CDE900104FF48C713C2005F070F8BE
:10099000F14890F84F20F6A1F44809F057F9F348D0
:1009A00018210B464FF49672CDE900104FF49B715D
:1009B0003C2005F05DF8E8480078642190FBF1F2F6
:1009C00001FB12042246F0A1E84809F03FF9E7488C
:1009D00018210B464FF49672CDE900104FF4AA711E
:1009E0003C2005F045F8DC4890F840000090DA48DB
:1009F00090F83F30B0F83D20E9A1DC4809F026F935
:100A0000DA4818210B46C822CDE900104FF4B9711D
:100A10003C2005F02DF8D04890F843000090CE48D7
:100A200090F8423090F84120E4A1D04809F00EF946
:100A3000CE4818210B46C822CDE9001051003C20B9
:100A400005F016F802B0BDEC048B10BD10B52DED0D
:100A50000A8BB0EE408AF0EE608AB0EE419AF0EE7A
:100A6000619A53EC192B51EC190B0BF067FB41EC1D
:100A70001B0B53EC182B51EC180B0BF05FFB41ECEC
:100A80001C0B53EC1B2B0BF0FFF841EC1A0BB0EED8
:100A90004A0AF0EE6A0A0AF057FCBDEC0A8B10BD58
:100AA00000B52DED108B91B0B0EE408AF0EE608A6B
:100AB000B0EE41BAF0EE61BAB0EE429AF0EE629A50
:100AC000B0EE43CAF0EE63CA9FEDC30BB0EE40AA8E
:100AD000F0EE60AA9FEDC20BB0EE40DAF0EE60DA05
:100AE00053EC192B51EC180B0BF0CEF841EC1F0B0B
:100AF0009FEDBD0B53EC102B0BF06EF953EC1A2B42
:100B0000CDE900019DED000B51EC100B0BF016FB35
:100B10009FEDB70B53EC102BCDE902019DED020BBD
:100B200051EC100B0BF058F941EC1E0BB0EE4E0AD5
:100B3000F0EE6E0A0AF0A4FB8DED060B53EC1B2BB6
:100B400051EC1C0B0BF0D0FC41EC1F0B53EC1A2B9F
:100B50000BF0F4FA41EC1E0B53EC1D2B0BF0EEFAEC
:100B6000CDE904019DED060B53EC102B9DED040B1C
:100B700051EC100B0BF0E2FA9FED9D0B53EC102B98
:100B8000CDE908019DED080B51EC100B0BF024F999
:100B9000CDE90E0153EC192B51EC180B0BF0CCFBEB
:100BA00041EC1F0B53EC1A2B0BF0C8FA53EC1D2B26
:100BB000CDE908019DED080B51EC100B0BF0BEFACE
:100BC00041EC1E0B9FED8A0B53EC102B0BF004F93C
:100BD000CDE90C019DED0C1B9DED0E0BFFF736FFD3
:100BE0008DED0A0B9DED0A0B11B0BDEC108B00BD15
:100BF0002DE9F84F4FF0640A5748D0F849B0406CDF
:100C000000907D49088800EBD0714E107A494888E1
:100C100000EBD0714F1019E0B9B2B0B24FF4784286
:100C200000F090FE4C48D0F84940456CA4EB0B0016
:100C300000FB0AF80098281A00FB0AF946444F44C2
:100C4000A34600956D48007800B900E0E4E700BFD6
:100C5000BDE8F88F1CB500254FF4A06005F0E0FE5C
:100C6000A82005F091FD4FF4E13005F01DFE4FF492
:100C7000164005F0AEF8624841685420884700F0FD
:100C800061FA00F07FFA01F098F85D484168482069
:100C9000884742F2CF01632005F015F8FFF752FBB9
:100CA00001214FF47A7005F041FD60B314E04FF478
:100CB000165005F08EF84FF4164005F0DBFC4FF4AB
:100CC000164005F086F801224E494F4805F001FD17
:100CD00005F07AFC4D49087001214FF47A7005F057
:100CE00025FD18B1494800780028E0D14FF4FA708A
:100CF00005F0ACFD4FF6FF708823E62278210090C6
:100D00001E2004F027FCE0E0012005F09FFD404894
:100D1000008800F40040E8B13D480088C0F30E06AA
:100D2000002405E03B48005D3B490855601C84B247
:100D3000B442F7DB00203649088037490855064899
:100D400005F0CEFB3548007808B9FFF753FC0DB12C
:100D5000314965E067E00000B40400200000002095
:100D6000466978204D6F64653A25730020050020A0
:100D700056616C696420736174656C6C6974653A62
:100D8000253032640000000056697369626C65208A
:100D9000736174656C6C6974653A25303264000067
:100DA00055544320446174653A253034642F25300E
:100DB00032642F2530326420202000005554432017
:100DC00054696D653A253032643A253032643A25EB
:100DD0003032642020200000282D4454FB2109409B
:100DE00000000040E74D58410000000000000040B6
:100DF0000000000000806640520500201100002025
:100E0000A0000020A086010040420F00100000203A
:100E10002E000020800800209401002012000020F5
:100E20002AA008F007FF2B48007801281DD105B93A
:100E300000E0002005464FF478402749088055B16E
:100E400026A010210B46C822CDE9001064211E20E7
:100E500004F00EFE09E027A010210B46C822CDE9C0
:100E6000001064211E2004F003FE1A4800780128B7
:100E70001AD12649087026480078401C2449087079
:100E800008460078012806D14FF6FF7000F063FF96
:100E9000FFF797FA08E04FF6FF7000F05CFFFFF7EE
:100EA0001DFB00201A4908704FF4FA7097FBF0F10F
:100EB00000FB117038B91748006808B9012000E03C
:100EC000002014490860781C87B21DE70D0A2573BD
:100ED0000D0A0000100000202A0000204E4D454160
:100EE00020446174612055706C6F61643A4F4E20EC
:100EF000000000004E4D4541204461746120557052
:100F00006C6F61643A4F46460000000012000020FA
:100F100013000020A4824242704700BFFEE700BFDA
:100F2000FEE700BFFEE700BFFEE77047704770476F
:100F3000704700000CB500200190009076480068D2
:100F400040F480307449086000BF7348006800F4C2
:100F5000003000900198401C0190009818B9019849
:100F6000B0F5A04FF1D16C48006800F4003010B12A
:100F70000120009001E0002000900098012846D157
:100F800065484030006840F0805063494031086057
:100F90006248006840F44040604908605E4808309C
:100FA00000685D49083108600846006840F4004068
:100FB00008600846006840F4A05008605848091FBF
:100FC0000860081F006840F08070091F086000BFBB
:100FD0005148006800F000700028F9D040F2057018
:100FE000504908604C480830006820F003004A4926
:100FF000083108600846006840F00200086000BF41
:1010000045480830006800F00C000828F8D10CBDF5
:1010100010B54548006840F47000434908603E48F8
:10102000006840F001003C49086000203A4908315E
:101030000860394800683D490840374908603C4825
:10104000091D0860081F006820F48020091F08603F
:10105000002031490C310860FFF76CFF4FF0006051
:1010600031498039086010BD70B50020002202238C
:1010700000240221284D08352D6805F00C0020B110
:10108000042806D0082834D107E02A4D2A4E3560BE
:1010900033E02A4D284E35602FE01F4D2D1D2D6861
:1010A000C5F380541C4D2D1D2D6805F03F0154B132
:1010B000224DB5FBF1F5184E361D3668C6F388167D
:1010C00005FB06F209E01B4DB5FBF1F5124E361D8E
:1010D0003668C6F3881605FB06F20F4D2D1D2D68E8
:1010E000C5F301456D1C6B00B2FBF3F5124E356084
:1010F00003E0104D104E356000BF00BF064D0835AF
:101100002D68C5F303150E4E705D0B4D2D68C5405F
:10111000094E356070BD000000380240007000408C
:1011200008544007003C024088ED00E0FFFFF6FE57
:10113000103000240024F4001400002000127A0073
:10114000180000201CB50121202006F0E1FA4FF420
:10115000C060009001208DF8040000208DF806008A
:1011600003208DF8050001208DF80700694604482A
:1011700005F04CFD4FF4C061014805F0C3FD1CBDF6
:10118000001402401CB50121112006F0C1FA1C20F8
:10119000009000208DF8040003208DF80500012048
:1011A0008DF807006946354805F030FD01200090B4
:1011B00002208DF807006946314805F027FD1CBD67
:1011C00010B5044614B101202E4908702D4800784E
:1011D000002837D01021294805F07AFD78B1082180
:1011E000264805F075FD50B10421244805F070FD36
:1011F00028B10121224805F06BFD012822D10A20E7
:1012000005F024FB00201F49087010211B4805F041
:101210005FFD08B9012010BD0821184805F058FDF0
:1012200008B90220F7E70421144805F051FD08B978
:101230000320F0E70121124805F04AFD01281BD1E7
:101240000420E8E710210D4805F042FD012813D1E4
:1012500008210A4805F03CFD01280DD1042107486A
:1012600005F036FD012807D10121054805F030FDC4
:1012700010B90120034908700020CCE7001002409B
:10128000000002402800002001B5BDF800000090D9
:10129000BDF80000F749088008BD01B5BDF80000A1
:1012A0000090BDF80000F349891C088008BD08B50E
:1012B000F048801C00880090BDF8000008BD03B510
:1012C000BDF80000EB490880BDF804004FF0D8419C
:1012D000A1F880000CBD01B5BDF80000FFF7D4FFF8
:1012E000052005F06BFAFFF7E2FF08BDE248008930
:1012F000E04908807047DF49891C0880704730B595
:10130000014601F01F04C1F34513CA0AE50205EBCB
:1013100043151544A8B230BD00BF0100A0F1010281
:10132000D0B2FAD1704730B504460D46D248808815
:1013300049F24131884205D0CF48808845F21031CA
:10134000884214D1CC494889FFF79EFF2012FFF74D
:10135000A4FFE0B2FFF7A1FFC7498889FFF794FF18
:101360002812FFF79AFFE8B2FFF797FF5DE0C24847
:10137000808846F6040188421DD1BF488079012843
:1013800004D1BD480088401E001B84B2BA49488978
:10139000FFF77AFF2012FFF780FFE0B2FFF77DFF33
:1013A000B5498889FFF770FF2812FFF776FFE8B28A
:1013B000FFF773FF39E0B048808845F2105188424A
:1013C00020D1AD494889FFF75FFF2012FFF765FF85
:1013D000A9494989491C88B2FFF756FFE0B2FFF7D7
:1013E0005CFFA5498889FFF74FFF2812FFF755FFDB
:1013F000A1498989491C88B2FFF746FFE8B2FFF787
:101400004CFF12E09C488079012804D19A4800885A
:10141000401E001B84B2984948892146FFF74FFFC0
:10142000954988892946FFF74AFF30BD3EB50446F5
:101430000D4600200290019000908F480088A04245
:1014400003DD8D484088A84201DC00203EBD2946CE
:101450002046FFF768FF8848808849F2413188427A
:101460000BD08548808846F60401884205D0824822
:10147000808845F21031884203D12E20FFF704FF07
:101480000DE07D48808845F21051884204D14FF428
:101490003850FFF7F9FE02E02220FFF7F5FE76480C
:1014A000808849F22031884202D10220FFF734FFC0
:1014B000FFF7FDFE0220FFF72FFFFFF7F8FE029077
:1014C0006D48808849F2413188420BD06A48808853
:1014D00045F21031884205D06748808845F21051A6
:1014E000884210D10220FFF717FFFFF7E0FE0090BF
:1014F000BDF80800C0B20190BDF804004FF6FF71BE
:1015000001EA002001905C48808849F22531884238
:1015100016D05948808844F23551884210D0564838
:101520008088091F88420BD0534880884BF20551B0
:10153000884205D0504880884CF20551884202D13B
:10154000BDF8080082E74C48808849F24131884262
:101550000BD04948808845F21031884205D0464872
:10156000808845F2105188420DD1BDF80800C012A4
:10157000C002BDF80410891240EA4110BDF8001005
:1015800040EAE12062E7BDF80800FFF7B8FE5DE73A
:1015900000B53948808849F2413188420BD036483D
:1015A000808846F60401884205D03348808845F299
:1015B0001031884203D12920FFF766FE0FE02E4844
:1015C000808845F21051884204D14FF42450FFF72F
:1015D0005BFE04E040F273110720FFF770FE00BDD0
:1015E00000B52548808849F2413188420BD0224815
:1015F000808846F60401884205D01F48808845F25D
:101600001031884203D12820FFF73EFE0EE01A4831
:10161000808845F21051884204D14FF42050FFF7E2
:1016200033FE03E000210720FFF749FE00BD2DE94E
:10163000F04305460024A1460F488079012822D1B5
:101640000D48808846F6040188421CD0082D19D226
:10165000DFE805F00406080A0C0E1416062511E052
:1016600007250FE004250DE005250BE0012509E025
:10167000002507E07E00006C52050020032501E0F4
:10168000022500BF00BFFE48808849F241318842F0
:1016900011D0FB48808846F6040188420BD0F848F8
:1016A000808845F21031884205D0F548808845F29F
:1016B0001051884278D1082D1CD2DFE805F00406CD
:1016C000090C0F12151800BF14E044F0800411E05B
:1016D00044F040040EE044F0C0040BE044F0200469
:1016E00008E044F0600405E044F0A00402E044F0A7
:1016F000E00400BF00BFE248808845F210518842F4
:1017000002D14FF4585901E04FF03609DC48808887
:1017100045F21031884207D0D948808845F21051EF
:10172000884201D044F00804D548808846F6040178
:10173000884201D144F0020421464846FFF7BFFD2C
:1017400004F0200018B9CE48807901280FD1CC4888
:101750000088CB494988884218DAC948B0F8008027
:101760004088C74908800846A0F802800EE0C448B7
:101770000088C3494988884208DDC148B0F8008024
:101780004088BF4908800846A0F80280BC4880799C
:1017900001280AD1BA48808846F60401884204D05C
:1017A000B7484688078803E07AE0B5480688478846
:1017B000B348808845F2105188424AD1B0494889DF
:1017C000FFF762FD0020FFF768FDAD494989491C1C
:1017D00088B2FFF759FD0020FFF75FFDA84949894E
:1017E000891C88B2FFF750FD711EC1F30F20FFF76F
:1017F00054FDA3494989C91C88B2FFF745FD711EF4
:10180000C8B2FFF74AFD9E498889FFF73DFD0020D9
:10181000FFF743FD9A498989491C88B2FFF734FDD7
:101820000020FFF73AFD96498989891C88B2FFF7A5
:101830002BFD791EC1F30F20FFF72FFD90498989F9
:10184000C91C88B2FFF720FD791EC8B2FFF725FD3D
:101850005AE08B494889FFF717FD0020FFF71DFD6F
:101860000020FFF71AFD711EC1F30F20FFF715FDD1
:10187000711EC8B2FFF711FD81498889FFF704FD89
:101880000020FFF70AFD0020FFF707FD791EC1F3D6
:101890000F20FFF702FD791EC8B2FFF7FEFC33E010
:1018A000082D1CD2DFE805F004070A0D0F121518E9
:1018B00044F0300413E044F0100410E044F020043D
:1018C0000DE000BF0BE044F0380408E044F02804C9
:1018D00005E044F0180402E044F0080400BF00BF33
:1018E0006748808848F68911884205D14FF0110970
:1018F00046F24000044303E04FF0030944F48054EF
:1019000021464846FFF7DBFCBDE8F08330B50446CE
:101910000D4629462046FFF706FDFFF7E7FC59482C
:1019200000885949088030BDF0B505460E4614467A
:1019300054480788048031462846FFF7E7FF51489E
:101940000780F0BD70B504460D4616464C488088A9
:1019500049F24131884205D04948808845F210312A
:10196000884214D146494889FFF78EFC2012FFF7C0
:1019700094FCE0B2FFF791FC41498889FFF784FCB1
:101980002812FFF78AFCE8B2FFF787FC5DE03C48CD
:10199000808845F21051884220D139494889FFF7A3
:1019A00073FC2012FFF779FC35494989491C88B23C
:1019B000FFF76AFCE0B2FFF770FC31498889FFF756
:1019C00063FC2812FFF769FC2D498989491C88B2FC
:1019D000FFF75AFCE8B2FFF760FC36E02848808841
:1019E00046F6040188421DD125488079012804D19A
:1019F00023480088401E001B84B221494889FFF714
:101A000043FC2012FFF749FCE0B2FFF746FC1C49FB
:101A10008889FFF739FC2812FFF73FFCE8B2FFF78F
:101A20003CFC12E016488079012804D11448008853
:101A3000401E001B84B2124948892146FFF73FFC33
:101A40000F4988892946FFF73AFC0D4800890E495D
:101A5000891E08804FF0D840A0F8806070BD10B596
:101A60000446002C59D106498871F02008804FF4B3
:101A7000A07048800846808849F24131884205E0DC
:101A8000520500202A0000208000006C0BD0FE4888
:101A9000808846F60401884205D0FB48808845F2DC
:101AA000103188421AD12C20F74908812A20488118
:101AB0002B2088810846808846F60401884205D09C
:101AC000F148808845F21031884206D14FF4A07069
:101AD000ED4908804FF4F070488079E0EA4880884A
:101AE00045F21051884210D14FF43050E649088138
:101AF0004FF4285048814FF42C5088814FF4F070F7
:101B000008804FF44870488062E02220DE49088156
:101B100020204881212088815AE00120DA498871FB
:101B20004FF4A0700880F02048800846808849F271
:101B30004131884205D0D448808845F2103188422E
:101B400007D12C20D04908812A2048812B20888168
:101B50002BE0CD48808846F60401884207D12C202E
:101B6000C94908812B2048812A2088811DE0C64868
:101B7000808845F21051884210D14FF43050C2494C
:101B800008814FF4285048814FF42C5088814FF43D
:101B9000487008804FF4F070488006E02220BA496F
:101BA00008812120488120208881B748808846F616
:101BB0000401884205D0B448808845F2103188423B
:101BC00006D14FF4F070B04908804FF4A0704880FF
:101BD0000020FFF72CFD10BD2DE9FF4F04460D46F8
:101BE00016461F46A019401E86B2E819401E87B24D
:101BF000A548808849F2413188420BD0A2488088AC
:101C000045F21031884205D09F48808846F604018D
:101C1000884220D19C494889FFF736FB2012FFF704
:101C20003CFBE0B2FFF739FB3012FFF736FBF0B2B6
:101C3000FFF733FB94498889FFF726FB2812FFF74B
:101C40002CFBE8B2FFF729FB3812FFF726FBF8B2AE
:101C5000FFF723FB7DE08C48808845F210518842D5
:101C600044D189494889FFF70FFB2012FFF715FB84
:101C700085494989491C88B2FFF706FBE0B2FFF7A6
:101C80000CFB81494989891C88B2FFF7FDFA3012A3
:101C9000FFF703FB7C494989C91C88B2FFF7F4FAB6
:101CA000F0B2FFF7FAFA78498889FFF7EDFA2812BF
:101CB000FFF7F3FA74498989491C88B2FFF7E4FAFF
:101CC000E8B2FFF7EAFA70498989891C88B2FFF700
:101CD000DBFA3812FFF7E1FA6B498989C91C88B22F
:101CE000FFF7D2FAF8B2FFF7D8FA32E06648807907
:101CF00001280ED1A846B94663480088801B401EC3
:101D00001FFA80FA60480088001B401E1FFA80FB03
:101D100003E0A046B146AA46BB465020039051209E
:101D20000290522001905320009041460398FFF703
:101D3000C6FA49460298FFF7C2FA51460198FFF7E2
:101D4000BEFA59460098FFF7BAFA29462046FFF72F
:101D5000EAFABDE8FF8F70B5044600264A480588B8
:101D6000408845434848808846F60401884216D199
:101D700045488079012812D10020434988712A20E2
:101D800048812B20888100210846FFF7CCFA0120EA
:101D90003D4988712B2048812A20888103E0002159
:101DA0000846FFF7C0FAFFF7A1FA002602E037481D
:101DB0000480761CAE42FAD370BD00B5A1B00020FD
:101DC000209001217A2005F0A3FC0121084605F0AE
:101DD000D7FC4FF400401E9001208DF87C000020BD
:101DE0008DF87E0002208DF87D0001208DF87F00A7
:101DF0001EA9274804F00AFF4CF233701E900220FF
:101E00008DF87C0000208DF87E0003208DF87D0089
:101E100001208DF87F001EA91E4804F0F7FE4FF642
:101E200080701E9002208DF87C0000208DF87E00CE
:101E300003208DF87D0001208DF87F001EA9164833
:101E400004F0E4FE4FF480501E9002208DF87C00D8
:101E500000208DF87E0003208DF87D0001208DF894
:101E60007F001EA90D4804F0D1FE4FF480501E9053
:101E700002208DF87C0000208DF87E0003208DF874
:101E80007D0001200CE00000520500208000006C65
:101E900000040240000C0240001002400014024006
:101EA0008DF87F001EA9FE4804F0B0FE0C22002130
:101EB000FC4804F036FF0C220121FA4804F031FFFF
:101EC0000C220421F74804F02CFF0C220521F548D0
:101ED00004F027FF0C220821F24804F022FF0C2214
:101EE0000921F04804F01DFF0C220A21ED4804F0FE
:101EF00018FF0C220E21EB4804F013FF0C220F21D7
:101F0000E84804F00EFF0C220721E74804F009FF1F
:101F10000C220821E44804F004FF0C220921E248C5
:101F200004F0FFFE0C220A21DF4804F0FAFE0C2226
:101F30000B21DD4804F0F5FE0C221146DA4804F0CE
:101F4000F0FE0C220D21D84804F0EBFE0C220E21ED
:101F5000D54804F0E6FE0C220F21D34804F0E1FE40
:101F60000C221146D14804F0DCFE0C221146CC486C
:101F700004F0D7FE0F2008900020099018200A9046
:101F800000200B900C900D900E90082001900020E6
:101F9000029008200390002004900590069007907E
:101FA00006200F9000201090119010201290002019
:101FB000139015901490169017904FF4805018902D
:101FC000002019904FF480401A9000201B9008A820
:101FD0001C9001A81D900FA804F0F7FE0121062017
:101FE00004F07EFF322004F031FC01210020FFF7D5
:101FF00066F9322004F02AFC0020FFF76CF9AC49A6
:10200000888008468088FF280ADB084680884FF6CB
:10201000FF71884204D0A6488088B0F5134F7CD168
:10202000D320FFF731F9FFF742F9A1498880FFF784
:102030003EF99F498880FFF73AF99D498880084614
:1020400080884FF6FF7101EA002099498880FFF7E8
:102050002EF99749898808439549888008468088E1
:1020600049F24131884278D0BF20FFF70DF9FFF7E0
:102070001EF98F498880FFF71AF98D498880FFF78C
:1020800016F98B498880FFF712F98949888008463C
:1020900080884FF6FF7101EA002085498880FFF7AC
:1020A00006F98349898808438149888008468088E1
:1020B00046F60401884250D0D420FFF7E5F8FFF738
:1020C000F6F87B498880FFF7F2F879498880FFF7B6
:1020D000EEF877498880084680884FF6FF7101EA5C
:1020E000002073498880FFF7E2F871498988084326
:1020F0006F4988800846808845F2103188422CD08C
:102100004FF45A40FFF7C0F8FFF7D1F868498880CC
:102110004FF45B40FFF7B8F800E01EE0FFF7C7F8A8
:1021200063498880084680884FF6FF7101EA0020E5
:102130005F4988804FF45C40FFF7A6F8FFF7B7F8D7
:102140005B49898808435A49888008468088B0F5E9
:10215000004F02D145F2105088805548808849F2DE
:10216000413188420BD05248808845F21031884274
:1021700005D04F48808845F2105188421DD14D4806
:10218000006820F00F004FF02041C1F81C01084604
:10219000D0F81C0120F47060C1F81C010846D0F88A
:1021A0001C0140F00300C1F81C010846D0F81C01D6
:1021B00040F40070C1F81C0128E03D48808846F6D4
:1021C0000401884205D03A4880884CF20551884283
:1021D0001CD13848006820F00F004FF02041C1F8B2
:1021E0001C010846D0F81C0120F47060C1F81C01E5
:1021F0000846D0F81C0140F00A00C1F81C0108464E
:10220000D0F81C0140F44060C1F81C0128488188C6
:1022100029A007F00FFD2648808849F24131884205
:102220007DD1CF20FFF730F80020FFF736F8209857
:10223000401C2090C120FFF730F83020FFF72DF828
:10224000ED20FFF721F86420FFF727F80320FFF7C0
:1022500024F81220FFF721F88120FFF71EF8E8206C
:10226000FFF712F88520FFF718F81020FFF715F890
:102270007A20FFF712F8CB20FFF706F83920FFF796
:102280000CF82C20FFF709F80020FFF706F834209F
:10229000FFF703F80220FFF700F8F72014E0000032
:1022A00000180240000C02400010024000140240DE
:1022B000520500201C0100A0204C43442049443A10
:1022C00025780D0A00000000FEF7DEFF2020FEF753
:1022D000E4FFEA20FEF7D8FF0020FEF7DEFF002033
:1022E000FEF7DBFFC020FEF7CFFF1B20FEF7D5FF78
:1022F000C120FEF7C9FF0120FEF7CFFFC520FEF782
:10230000C3FF3020FEF7C9FF3020FEF7C6FFC7200D
:10231000FEF7BAFFB720FEF7C0FF362000E0B1E0BD
:10232000FEF7B2FF4820FEF7B8FF3A20FEF7ACFFF9
:102330005520FEF7B2FFB120FEF7A6FF0020FEF702
:10234000ACFF1A20FEF7A9FFB620FEF79DFF0A207A
:10235000FEF7A3FFA220FEF7A0FFF220FEF794FFF6
:102360000020FEF79AFF2620FEF78EFF0120FEF7E1
:1023700094FFE020FEF788FF0F20FEF78EFF2A2053
:10238000FEF78BFF2820FEF788FF0820FEF785FF69
:102390000E20FEF782FF0820FEF77FFF5420FEF795
:1023A0007CFFA920FEF779FF4320FEF776FF0A2085
:1023B000FEF773FF0F20FEF770FF0020FEF76DFFA2
:1023C0000020FEF76AFF0020FEF767FF0020FEF7FF
:1023D00064FFE120FEF758FF0020FEF75EFF1520A6
:1023E000FEF75BFF1720FEF758FF0720FEF755FFAB
:1023F0001120FEF752FF0620FEF74FFF2B20FEF7BD
:102400004CFF5620FEF749FF3C20FEF746FF052013
:10241000FEF743FF1020FEF740FF0F20FEF73DFFC1
:102420003F20FEF73AFF3F20FEF737FF0F20FEF771
:1024300034FF2B20FEF728FF0020FEF72EFF0020A0
:10244000FEF72BFF0120FEF728FF3F20FEF725FFB8
:102450002A20FEF719FF0020FEF71FFF0020FEF7DD
:102460001CFF0020FEF719FFEF20FEF716FF1120DA
:10247000FEF70AFF782004F0E9F92920FEF704FFAF
:1024800003F05CB8FE48808846F6040188427CD19F
:102490001120FEF7F9FE142004F0D8F9D020FEF741
:1024A000F3FE0720FEF7F9FE4220FEF7F6FE1D20A0
:1024B000FEF7F3FED120FEF7E7FE0020FEF7EDFE6B
:1024C0001A20FEF7EAFE0920FEF7E7FED220FEF70B
:1024D000DBFE0120FEF7E1FE2220FEF7DEFEC0203B
:1024E000FEF7D2FE1020FEF7D8FE3B20FEF7D5FE09
:1024F0000020FEF7D2FE0220FEF7CFFE1120FEF7ED
:10250000CCFEC520FEF7C0FE0320FEF7C6FEC820A5
:10251000FEF7BAFE0020FEF7C0FE2520FEF7BDFE46
:102520002120FEF7BAFE0520FEF7B7FE0020FEF7D9
:10253000B4FE0A20FEF7B1FE6520FEF7AEFE2520B0
:10254000FEF7ABFE7720FEF7A8FE5020FEF7A5FEB3
:102550000F20FEF7A2FE0020FEF79FFEF820FEF7F8
:1025600093FE0120FEF799FEFE20FEF78DFE00206F
:10257000FEF793FE0220FEF790FE2020FEF784FE79
:102580003620FEF781FE082000E02CE0FEF785FEF5
:102590003A20FEF779FE5520FEF77FFE2B20FEF74E
:1025A00073FE0020FEF779FE0020FEF776FE012084
:1025B000FEF773FE3F20FEF770FE2A20FEF764FE52
:1025C0000020FEF76AFE0020FEF767FE0120FEF7FE
:1025D00064FEDF20FEF761FE782004F037F9292041
:1025E000FEF752FE4CE7A648808845F2103188423B
:1025F00040F07C87ED20FEF747FE0120FEF74DFE00
:10260000FE20FEF74AFEEE20FEF73EFEDE20FEF73D
:1026100044FE2120FEF741FEF120FEF735FE0120A9
:10262000FEF73BFEDF20FEF72FFE1020FEF735FE03
:10263000C420FEF729FE8F20FEF72FFEC620FEF7EE
:1026400023FE0020FEF729FEE220FEF726FEE22010
:10265000FEF723FEE220FEF720FEBF20FEF714FE69
:10266000AA20FEF71AFEB020FEF70EFE0D20FEF7A0
:1026700014FE0020FEF711FE0D20FEF70EFE0020D6
:10268000FEF70BFE1120FEF708FE0020FEF705FE08
:102690001920FEF702FE0020FEF7FFFD2120FEF7C5
:1026A000FCFD0020FEF7F9FD2D20FEF7F6FD0020D1
:1026B000FEF7F3FD3D20FEF7F0FD0020FEF7EDFDF7
:1026C0005D20FEF7EAFD0020FEF7E7FD5D20FEF746
:1026D000E4FD0020FEF7E1FDB120FEF7D5FD8020EE
:1026E000FEF7DBFD0020FEF7D8FD8B20FEF7D5FDC1
:1026F0000020FEF7D2FD9620FEF7CFFD0020FEF76A
:10270000CCFDB220FEF7C0FD0020FEF7C6FD002084
:10271000FEF7C3FD0220FEF7C0FD0020FEF7BDFD61
:102720000320FEF7BAFD0020FEF7B7FDB320FEF749
:10273000ABFD0020FEF7B1FD0020FEF7AEFD00204E
:10274000FEF7ABFD0020FEF7A8FD0020FEF7A5FD7B
:102750000020FEF7A2FD0020FEF79FFD0020FEF7FF
:102760009CFD0020FEF799FD0020FEF796FD00205D
:10277000FEF793FD0020FEF790FD0020FEF78DFD93
:102780000020FEF78AFD0020FEF787FD0020FEF7FF
:1027900084FD0020FEF781FD0020FEF77EFD002075
:1027A000FEF77BFD0020FEF778FD0020FEF775FDAB
:1027B0000020FEF772FD0020FEF76FFD0020FEF7FF
:1027C0006CFDB420FEF760FD8B20FEF766FD002057
:1027D000FEF763FD9620FEF760FD0020FEF75DFD2D
:1027E000A120FEF75AFD0020FEF757FDB520FEF7A9
:1027F0004BFD0220FEF751FD0020FEF74EFD0320A9
:10280000FEF74BFD0020FEF748FD0420FEF745FDD6
:102810000020FEF742FDB620FEF736FD0020FEF751
:102820003CFD0020FEF739FDB720FEF72DFD00200E
:10283000FEF733FD0020FEF730FD3F20FEF72DFDB3
:102840000020FEF72AFD5E20FEF727FD0020FEF7A0
:1028500024FD6420FEF721FD0020FEF71EFD8C20E4
:10286000FEF71BFD0020FEF718FDAC20FEF715FD5E
:102870000020FEF712FDDC20FEF70FFD002001E036
:1028800052050020FEF709FD7020FEF706FD00202E
:10289000FEF703FD9020FEF700FD0020FEF7FDFC93
:1028A000EB20FEF7FAFC0020FEF7F7FCDC20FEF739
:1028B000F4FC0020FEF7F1FCB820FEF7E5FC002058
:1028C000FEF7EBFC0020FEF7E8FC0020FEF7E5FC3D
:1028D0000020FEF7E2FC0020FEF7DFFC0020FEF700
:1028E000DCFC0020FEF7D9FC0020FEF7D6FCBA2065
:1028F000FEF7CAFC2420FEF7D0FC0020FEF7CDFC3A
:102900000020FEF7CAFC0020FEF7C7FCC120FEF73E
:10291000BBFC2020FEF7C1FC0020FEF7BEFC5420CB
:10292000FEF7BBFC0020FEF7B8FCFF20FEF7B5FC6D
:102930000020FEF7B2FCC220FEF7A6FC0A20FEF73C
:10294000ACFC0020FEF7A9FC0420FEF7A6FC00204A
:10295000FEF7A3FCC320FEF797FC3C20FEF79DFC8E
:102960000020FEF79AFC3A20FEF797FC0020FEF7C5
:1029700094FC3920FEF791FC0020FEF78EFC3720F6
:10298000FEF78BFC0020FEF788FC3C20FEF785FC60
:102990000020FEF782FC3620FEF77FFC0020FEF7C9
:1029A0007CFC3220FEF779FC0020FEF776FC2F201D
:1029B000FEF773FC0020FEF770FC2C20FEF76DFC88
:1029C0000020FEF76AFC2920FEF767FC0020FEF7D6
:1029D00064FC2620FEF761FC0020FEF75EFC24204C
:1029E000FEF75BFC0020FEF758FC2420FEF755FCA8
:1029F0000020FEF752FC2320FEF74FFC0020FEF7DC
:102A00004CFC3C20FEF749FC0020FEF746FC36203B
:102A1000FEF743FC0020FEF740FC3220FEF73DFCB1
:102A20000020FEF73AFC2F20FEF737FC0020FEF7CF
:102A300034FC2C20FEF731FC0020FEF72EFC292070
:102A4000FEF72BFC0020FEF728FC2620FEF725FCD5
:102A50000020FEF722FC2420FEF71FFC0020FEF7DA
:102A60001CFC2420FEF719FC0020FEF716FC232096
:102A7000FEF713FC0020FEF710FCC420FEF704FC58
:102A80006220FEF70AFC0020FEF707FC0520FEF797
:102A900004FC0020FEF701FC8420FEF7FEFB002072
:102AA000FEF7FBFBF020FEF7F8FB0020FEF7F5FB3E
:102AB0001820FEF7F2FB0020FEF7EFFBA420FEF744
:102AC000ECFB0020FEF7E9FB1820FEF7E6FB0020F8
:102AD000FEF7E3FB5020FEF7E0FB0020FEF7DDFBF6
:102AE0000C20FEF7DAFB0020FEF7D7FB1720FEF7DD
:102AF000D4FB0020FEF7D1FB9520FEF7CEFB002093
:102B0000FEF7CBFBF320FEF7C8FB0020FEF7C5FB6A
:102B1000E620FEF7C2FB0020FEF7BFFBC520FEF754
:102B2000B3FB3220FEF7B9FB0020FEF7B6FB4420D2
:102B3000FEF7B3FB0020FEF7B0FB6520FEF7ADFB10
:102B40000020FEF7AAFB7620FEF7A7FB0020FEF789
:102B5000A4FB8820FEF7A1FB0020FEF79EFBC62009
:102B6000FEF792FB2020FEF798FB0020FEF795FB76
:102B70001720FEF792FB0020FEF78FFB0120FEF7E7
:102B80008CFB0020FEF789FBC720FEF77DFB0020B1
:102B9000FEF783FB0020FEF780FB0020FEF77DFBA5
:102BA0000020FEF77AFBC820FEF76EFB0020FEF740
:102BB00074FB0020FEF771FB0020FEF76EFB002087
:102BC000FEF76BFBC920FEF75FFB0020FEF765FBFD
:102BD0000020FEF762FB0020FEF75FFB0020FEF7FF
:102BE0005CFB0020FEF759FB0020FEF756FB00209F
:102BF000FEF753FB0020FEF750FB0020FEF74DFBD5
:102C00000020FEF74AFB0020FEF747FB0020FEF7FE
:102C100044FB0020FEF741FB0020FEF73EFB0020B6
:102C2000FEF73BFB0020FEF738FBE020FEF72CFB15
:102C30001620FEF732FB0020FEF72FFB1C20FEF7CC
:102C40002CFB0020FEF729FB2120FEF726FB0020AD
:102C5000FEF723FB3620FEF720FB0020FEF71DFBCE
:102C60004620FEF71AFB0020FEF717FB5220FEF766
:102C700014FB0020FEF711FB6420FEF70EFB002082
:102C8000FEF70BFB7A20FEF708FB0020FEF705FBA2
:102C90008B20FEF702FB0020FEF7FFFA9920FEF7DB
:102CA000FCFA0020FEF7F9FAA820FEF7F6FA002059
:102CB000FEF7F3FAB920FEF7F0FA0020FEF7EDFA7E
:102CC000C420FEF7EAFA0020FEF7E7FACA20FEF772
:102CD000E4FA0020FEF7E1FAD220FEF7DEFA002047
:102CE000FEF7DBFAD920FEF7D8FA0020FEF7D5FA76
:102CF000E020FEF7D2FA0020FEF7CFFAF320FEF72D
:102D0000CCFA0020FEF7C9FAE120FEF7BDFA162042
:102D1000FEF7C3FA0020FEF7C0FA1C20FEF7BDFA4A
:102D20000020FEF7BAFA2220FEF7B7FA0020FEF7DD
:102D3000B4FA3620FEF7B1FA0020FEF7AEFA4520CD
:102D4000FEF7ABFA0020FEF7A8FA5220FEF7A5FA2C
:102D50000020FEF7A2FA6420FEF79FFA0020FEF79B
:102D60009CFA7A20FEF799FA0020FEF796FA8B205B
:102D7000FEF793FA0020FEF790FA9920FEF78DFAFD
:102D80000020FEF78AFAA820FEF787FA0020FEF757
:102D900084FAB920FEF781FA0020FEF77EFAC420FB
:102DA000FEF77BFA0020FEF778FACA20FEF775FAE4
:102DB0000020FEF772FAD220FEF76FFA0020FEF72D
:102DC0006CFAD820FEF769FA0020FEF766FAE020D8
:102DD000FEF763FA0020FEF760FAF320FEF75DFAD3
:102DE0000020FEF75AFAE220FEF74EFA0520FEF721
:102DF00054FA0020FEF751FA0B20FEF74EFA00209D
:102E0000FEF74BFA1B20FEF748FA0020FEF745FAC2
:102E10003420FEF742FA0020FEF73FFA4420FEF786
:102E20003CFA0020FEF739FA4F20FEF736FA002070
:102E3000FEF733FA6120FEF730FA0020FEF72DFA94
:102E40007920FEF72AFA0020FEF727FA8820FEF7FD
:102E500024FA0020FEF721FA9720FEF71EFA002040
:102E6000FEF71BFAA620FEF718FA0020FEF715FA67
:102E7000B720FEF712FA0020FEF70FFAC220FEF785
:102E80000CFA0020FEF709FAC720FEF706FA002028
:102E9000FEF703FAD120FEF700FA0020FEF7FDF955
:102EA000D620FEF7FAF90020FEF7F7F9DD20FEF74D
:102EB000F4F90020FEF7F1F9F320FEF7EEF9002017
:102EC000FEF7EBF9E320FEF7DFF90520FEF7E5F961
:102ED0000020FEF7E2F90A20FEF7DFF90020FEF7F6
:102EE000DCF91C20FEF7D9F90020FEF7D6F93320D3
:102EF000FEF7D3F90020FEF7D0F94420FEF7CDF914
:102F00000020FEF7CAF95020FEF7C7F90020FEF7AF
:102F1000C4F96220FEF7C1F90020FEF7BEF978205F
:102F2000FEF7BBF90020FEF7B8F98820FEF7B5F9E7
:102F30000020FEF7B2F99720FEF7AFF90020FEF768
:102F4000ACF9A620FEF7A9F90020FEF7A6F9B720F4
:102F5000FEF7A3F90020FEF7A0F9C220FEF79DF9C5
:102F60000020FEF79AF9C720FEF797F90020FEF738
:102F700094F9D120FEF791F90020FEF78EF9D520C3
:102F8000FEF78BF90020FEF788F9DD20FEF785F9C2
:102F90000020FEF782F9F320FEF77FF90020FEF70C
:102FA0007CF9E420FEF770F90120FEF776F90020A5
:102FB000FEF773F90120FEF770F90020FEF76DF9B6
:102FC0000220FEF76AF90020FEF767F92A20FEF7D3
:102FD00064F90020FEF761F93C20FEF75EF900205D
:102FE000FEF75BF94B20FEF758F90020FEF755F984
:102FF0005D20FEF752F90020FEF74FF97420FEF72E
:103000004CF90020FEF749F98420FEF746F900202C
:10301000FEF743F99320FEF740F90020FEF73DF953
:10302000A220FEF73AF90020FEF737F9B320FEF7A9
:1030300034F90020FEF731F9BE20FEF72EF900200A
:10304000FEF72BF9C420FEF728F90020FEF725F93A
:10305000CD20FEF722F90020FEF71FF9D320FEF75E
:103060001CF90020FEF719F9DD20FEF716F9002003
:10307000FEF713F9F320FEF710F90020FEF70DF923
:10308000E520FEF701F90020FEF707F90020FEF722
:1030900004F90020FEF701F90020FEF7FEF80220F7
:1030A000FEF7FBF80020FEF7F8F82920FEF7F5F808
:1030B0000020FEF7F2F83C20FEF7EFF80020FEF7C4
:1030C000ECF84B20FEF7E9F80020FEF7E6F85D206B
:1030D000FEF7E3F80020FEF7E0F87420FEF7DDF8D5
:1030E0000020FEF7DAF88420FEF7D7F80020FEF77C
:1030F000D4F89320FEF7D1F80020FEF7CEF8A220F6
:10310000FEF7CBF80020FEF7C8F8B320FEF7C5F8AD
:103110000020FEF7C2F8BE20FEF7BFF80020FEF741
:10312000BCF8C420FEF7B9F80020FEF7B6F8CD20B1
:10313000FEF7B3F80020FEF7B0F8D320FEF7ADF8A5
:103140000020FEF7AAF8DC20FEF7A7F80020FEF723
:10315000A4F8F320FEF7A1F80020FEF79EF8E62081
:10316000FEF792F81120FEF798F80020FEF795F888
:103170003420FEF792F80020FEF78FF85620FEF775
:103180008CF80020FEF789F87620FEF786F80020FC
:10319000FEF783F87720FEF780F80020FEF77DF831
:1031A0006620FEF77AF80020FEF777F88820FEF711
:1031B00074F80020FEF771F89920FEF76EF80020F1
:1031C000FEF76BF8BB20FEF768F80020FEF765F805
:1031D0009920FEF762F80020FEF75FF86620FEF700
:1031E0005CF80020FEF759F85520FEF756F800204D
:1031F000FEF753F85520FEF750F80020FEF74DF883
:103200004520FEF74AF80020FEF747F84320FEF776
:1032100044F80020FEF741F84420FEF73EF8002075
:10322000FEF73BF8E720FEF72FF83220FEF735F8DF
:103230000020FEF732F85520FEF72FF80020FEF7A9
:103240002CF87620FEF729F80020FEF726F86620F5
:10325000FEF723F80020FEF720F86720FEF71DF8A0
:103260000020FEF71AF86720FEF717F80020FEF797
:1032700014F88720FEF711F80020FEF70EF89920C9
:10328000FEF70BF80020FEF708F8BB20FEF705F864
:103290000020FEF702F89920FDF7FFFF0020FDF760
:1032A000FCFF7720FDF7F9FF0020FDF7F6FF442033
:1032B000FDF7F3FF0020FDF7F0FF5620FDF7EDFFCF
:1032C0000020FDF7EAFF2320FDF7E7FF0020FDF7D0
:1032D000E4FF3320FDF7E1FF0020FDF7DEFF45208E
:1032E000FDF7DBFF0020FDF7D8FFE820FDF7CCFF5E
:1032F0000020FDF7D2FF0020FDF7CFFF9920FDF75A
:10330000CCFF0020FDF7C9FF8720FDF7C6FF002096
:10331000FDF7C3FF8820FDF7C0FF0020FDF7BDFFCC
:103320007720FDF7BAFF0020FDF7B7FF6620FDF715
:10333000B4FF0020FDF7B1FF8820FDF7AEFF0020AD
:10334000FDF7ABFFAA20FDF7A8FF0020FDF7A5FFC2
:10335000BB20FDF7A2FF0020FDF79FFF9920FDF79E
:103360009CFF0020FDF799FF6620FDF796FF0020E7
:10337000FDF793FF5520FDF790FF0020FDF78DFF2F
:103380005520FDF78AFF0020FDF787FF4420FDF759
:1033900084FF0020FDF781FF4420FDF77EFF002021
:1033A000FDF77BFF5520FDF778FF0020FDF775FF47
:1033B000E920FDF769FFAA20FDF76FFF0020FDF768
:1033C0006CFF0020FDF769FF0020FDF766FF00207D
:1033D000FDF75AFFAA20FDF760FFCF20FDF754FF4D
:1033E0000020FDF75AFF0020FDF757FF0020FDF7F2
:1033F00054FF0020FDF751FF0020FDF74EFF002095
:10340000FDF74BFF0020FDF748FF0020FDF745FFCB
:103410000020FDF742FF0020FDF73FFF0020FDF7F1
:103420003CFF0020FDF739FF0020FDF736FF0020AC
:10343000FDF733FF0020FDF730FF0020FDF72DFFE3
:103440000020FDF72AFFF020FDF71EFF0020FDF70A
:1034500024FF5020FDF721FF0020FDF71EFF002074
:10346000FDF71BFF0020FDF718FFF320FDF70CFF11
:103470000020FDF712FFF920FDF706FF0620FDF7FB
:103480000CFF1020FDF709FF2920FDF706FF0020A3
:10349000FDF703FF3A20FDF7F7FE5520FDF7FDFE8F
:1034A0001120FDF7F1FE642003F0D0F92920FDF78B
:1034B000EBFE3520FDF7E8FE0020FDF7EEFE512083
:1034C000FDF7E2FEFF20FDF7E8FE5320FDF7DCFEEE
:1034D0002C20FDF7E2FE5520FDF7D6FE8220FDF7F9
:1034E000DCFE2C20FDF7D0FE02F028B8FE488088D4
:1034F00045F2105188427DD155214FF47040FDF7BF
:10350000DEFEAA214FF20100FDF7D9FE52214FF253
:103510000200FDF7D4FE08214FF20300FDF7CFFEB5
:1035200001214FF20400FDF7CAFE0D214FF4304097
:10353000FDF7C5FE0D214BF20100FDF7C0FE0D2188
:103540004BF20200FDF7BBFE34214FF43640FDF78D
:10355000B6FE34214BF20160FDF7B1FE34214BF28F
:103560000260FDF7ACFE0D214FF43140FDF7A7FEE0
:103570000D214BF20110FDF7A2FE0D214BF20210BE
:10358000FDF79DFE34214FF43740FDF798FE3421BE
:103590004BF20170FDF793FE34214BF20270FDF700
:1035A0008EFE00214FF43240FDF789FE00214BF2E0
:1035B0000120FDF784FE00214BF20220FDF77FFE83
:1035C00024214FF43840FDF77AFE24214BF6010008
:1035D000FDF775FE24214BF60200FDF770FE012178
:1035E0004FF43F40FDF76BFE0F214FF43340FDF7E2
:1035F00066FE00E0FDE30F214BF20130FDF75FFEB8
:103600000F214BF20230FDF75AFE34214FF43940BE
:10361000FDF755FE34214BF60110FDF750FE342125
:103620004BF60210FDF74BFE08214FF43540FDF735
:1036300046FE08214BF20150FDF741FE08214BF2F6
:103640000250FDF73CFE03214FF44240FDF737FEE8
:1036500024214FF43A40FDF732FE24214BF601209D
:10366000FDF72DFE24214BF60220FDF728FE002158
:103670004FF43C40FDF723FE78214BF60140FDF767
:103680001EFE00214BF60240FDF719FE00214FF40B
:103690003D40FDF714FE78214BF60150FDF70FFE7B
:1036A00000214BF60250FDF70AFE00214FF43E4088
:1036B000FDF705FE64214BF60160FDF700FE0021D9
:1036C0004FF45140FDF7FBFD33214DF20110FDF7A2
:1036D000F6FD00214DF20210FDF7F1FD34214DF20F
:1036E0000310FDF7ECFD00214DF20410FDF7E7FD9E
:1036F0003A214DF20510FDF7E2FD00214DF20610D2
:10370000FDF7DDFD4A214DF20710FDF7D8FD002140
:103710004DF20810FDF7D3FD5C214DF20910FDF7C5
:10372000CEFD00214DF20A10FDF7C9FD81214DF2B9
:103730000B10FDF7C4FD00214DF20C10FDF7BFFD8D
:10374000A6214DF20D10FDF7BAFD00214DF20E102D
:10375000FDF7B5FDE5214DF20F10FDF7B0FD01219C
:103760004DF21010FDF7ABFD13214DF21110FDF7D6
:10377000A6FD01214DF21210FDF7A1FD54214DF2DD
:103780001310FDF79CFD01214DF21410FDF797FD7C
:1037900082214DF21510FDF792FD01214DF2161018
:1037A000FDF78DFDCA214DF21710FDF788FD0221AE
:1037B0004DF21810FDF783FD00214DF21910FDF7B1
:1037C0007EFD02214DF21A10FDF779FD01214DF227
:1037D0001B10FDF774FD02214DF21C10FDF76FFD6B
:1037E00034214DF21D10FDF76AFD02214DF21E102D
:1037F000FDF765FD67214DF21F10FDF760FD022109
:103800004DF22010FDF75BFD84214DF22110FDF7F4
:1038100056FD02214DF22210FDF751FDA4214DF27B
:103820002310FDF74CFD02214DF22410FDF747FD5A
:10383000B7214DF22510FDF742FD02214DF2261071
:10384000FDF73DFDCF214DF22710FDF738FD022198
:103850004DF22810FDF733FDDE214DF22910FDF762
:103860002EFD02214DF22A10FDF729FDF2214DF225
:103870002B10FDF724FD02214DF22C10FDF71FFD4A
:10388000FE214DF22D10FDF71AFD03214DF22E10F1
:10389000FDF715FD10214DF22F10FDF710FD03214E
:1038A0004DF23010FDF70BFD33214DF23110FDF7D5
:1038B00006FD03214DF23210FDF701FD6D214DF2A1
:1038C0003310FDF7FCFC00214FF45240FDF7F7FCEC
:1038D00033214DF20120FDF7F2FC00214DF20220D0
:1038E000FDF7EDFC342101E0520500204DF20320EC
:1038F000FDF7E5FC00214DF20420FDF7E0FC3A2144
:103900004DF20520FDF7DBFC00214DF20620FDF70E
:10391000D6FC4A214DF20720FDF7D1FC00214DF2E3
:103920000820FDF7CCFC5C214DF20920FDF7C7FC17
:1039300000214DF20A20FDF7C2FC81214DF20B203F
:10394000FDF7BDFC00214DF20C20FDF7B8FCA621CF
:103950004DF20D20FDF7B3FC00214DF20E20FDF7D6
:10396000AEFCE5214DF20F20FDF7A9FC01214DF23F
:103970001020FDF7A4FC13214DF21120FDF79FFC50
:1039800001214DF21220FDF79AFC54214DF2132033
:10399000FDF795FC01214DF21420FDF790FC8221EA
:1039A0004DF21520FDF78BFC01214DF21620FDF79D
:1039B00086FCCA214DF21720FDF781FC02214DF251
:1039C0001820FDF77CFC00214DF21920FDF777FC53
:1039D00002214DF21A20FDF772FC01214DF21B204D
:1039E000FDF76DFC02214DF21C20FDF768FC34212F
:1039F0004DF21D20FDF763FC02214DF21E20FDF764
:103A00005EFC67214DF21F20FDF759FC02214DF2AB
:103A10002020FDF754FC84214DF22120FDF74FFCBE
:103A200002214DF22220FDF74AFCA4214DF2232071
:103A3000FDF745FC02214DF22420FDF740FCB721A3
:103A40004DF22520FDF73BFC02214DF22620FDF72B
:103A500036FCCF214DF22720FDF731FC02214DF23B
:103A60002820FDF72CFCDE214DF22920FDF727FC54
:103A700002214DF22A20FDF722FCF2214DF22B20EB
:103A8000FDF71DFC02214DF22C20FDF718FCFE2154
:103A90004DF22D20FDF713FC03214DF22E20FDF7F2
:103AA0000EFC10214DF22F20FDF709FC03214DF2F1
:103AB0003020FDF704FC33214DF23120FDF7FFFBF0
:103AC00003214DF23220FDF7FAFB6D214DF2332038
:103AD000FDF7F5FB00214FF45340FDF7F0FB3321D8
:103AE0004DF20130FDF7EBFB00214DF20230FDF706
:103AF000E6FB34214DF20330FDF7E1FB00214DF2EE
:103B00000430FDF7DCFB3A214DF20530FDF7D7FB21
:103B100000214DF20630FDF7D2FB4A214DF207306D
:103B2000FDF7CDFB00214DF20830FDF7C8FB5C210D
:103B30004DF20930FDF7C3FB00214DF20A30FDF7CD
:103B4000BEFB81214DF20B30FDF7B9FB00214DF298
:103B50000C30FDF7B4FBA6214DF20D30FDF7AFFBA5
:103B600000214DF20E30FDF7AAFBE5214DF20F309A
:103B7000FDF7A5FB01214DF21030FDF7A0FB13214D
:103B80004DF21130FDF79BFB01214DF21230FDF794
:103B900096FB54214DF21330FDF791FB01214DF2BC
:103BA0001430FDF78CFB82214DF21530FDF787FBB9
:103BB00001214DF21630FDF782FBCA214DF217307C
:103BC000FDF77DFB02214DF21830FDF778FB002157
:103BD0004DF21930FDF773FB02214DF21A30FDF75B
:103BE0006EFB01214DF21B30FDF769FB02214DF206
:103BF0001C30FDF764FB34214DF21D30FDF75FFBF7
:103C000002214DF21E30FDF75AFB67214DF21F30A5
:103C1000FDF755FB02214DF22030FDF750FB8421CA
:103C20004DF22130FDF74BFB02214DF22230FDF722
:103C300046FBA4214DF22330FDF741FB02214DF25A
:103C40002430FDF73CFBB7214DF22530FDF737FB63
:103C500002214DF22630FDF732FBCF214DF2273005
:103C6000FDF72DFB02214DF22830FDF728FBDE2168
:103C70004DF22930FDF723FB02214DF22A30FDF7EA
:103C80001EFBF2214DF22B30FDF719FB02214DF204
:103C90002C30FDF714FBFE214DF22D30FDF70FFB0C
:103CA00003214DF22E30FDF70AFB10214DF22F308B
:103CB000FDF705FB03214DF23030FDF700FB33210A
:103CC0004DF23130FDF7FBFA03214DF23230FDF7B2
:103CD000F6FA6D214DF23330FDF7F1FA00214FF481
:103CE0005440FDF7ECFA33214DF20140FDF7E7FABD
:103CF00000214DF20240FDF7E2FA34214DF203407B
:103D0000FDF7DDFA00214DF20440FDF7D8FA3A2123
:103D10004DF20540FDF7D3FA00214DF20640FDF7C4
:103D2000CEFA4A214DF20740FDF7C9FA00214DF2C3
:103D30000840FDF7C4FA5C214DF20940FDF7BFFAD7
:103D400000214DF20A40FDF7BAFA81214DF20B40F5
:103D5000FDF7B5FA00214DF20C40FDF7B0FAA621AF
:103D60004DF20D40FDF7ABFA00214DF20E40FDF78C
:103D7000A6FAE5214DF20F40FDF7A1FA01214DF21F
:103D80001040FDF79CFA13214DF21140FDF797FA10
:103D900001214DF21240FDF792FA54214DF21340E9
:103DA000FDF78DFA01214DF21440FDF788FA8221CA
:103DB0004DF21540FDF783FA01214DF21640FDF753
:103DC0007EFACA214DF21740FDF779FA02214DF231
:103DD0001840FDF774FA00214DF21940FDF76FFA13
:103DE00002214DF21A40FDF76AFA01214DF21B4003
:103DF00000E006E3FDF763FA02214DF21C40FDF7F7
:103E00005EFA34214DF21D40FDF759FA02214DF2C0
:103E10001E40FDF754FA67214DF21F40FDF74FFA9F
:103E200002214DF22040FDF74AFA84214DF2214053
:103E3000FDF745FA02214DF22240FDF740FAA42198
:103E40004DF22340FDF73BFA02214DF22440FDF7ED
:103E500036FAB7214DF22540FDF731FA02214DF235
:103E60002640FDF72CFACF214DF22740FDF727FA27
:103E700002214DF22840FDF722FADE214DF22940C1
:103E8000FDF71DFA02214DF22A40FDF718FAF22142
:103E90004DF22B40FDF713FA02214DF22C40FDF7B5
:103EA0000EFAFE214DF22D40FDF709FA03214DF2E5
:103EB0002E40FDF704FA10214DF22F40FDF7FFF9D7
:103EC00003214DF23040FDF7FAF933214DF2314034
:103ED000FDF7F5F903214DF23240FDF7F0F96D21C0
:103EE0004DF23340FDF7EBF900214FF45540FDF75B
:103EF000E6F933214DF20150FDF7E1F900214DF2D1
:103F00000250FDF7DCF934214DF20350FDF7D7F9EB
:103F100000214DF20450FDF7D2F93A214DF205503F
:103F2000FDF7CDF900214DF20650FDF7C8F94A2101
:103F30004DF20750FDF7C3F900214DF20850FDF78F
:103F4000BEF95C214DF20950FDF7B9F900214DF29F
:103F50000A50FDF7B4F981214DF20B50FDF7AFF98E
:103F600000214DF20C50FDF7AAF9A6214DF20D509B
:103F7000FDF7A5F900214DF20E50FDF7A0F9E5215E
:103F80004DF20F50FDF79BF901214DF21050FDF756
:103F900096F913214DF21150FDF791F901214DF2DF
:103FA0001250FDF78CF954214DF21350FDF787F9AB
:103FB00001214DF21450FDF782F982214DF2155086
:103FC000FDF77DF901214DF21650FDF778F9CA2170
:103FD0004DF21750FDF773F902214DF21850FDF71D
:103FE0006EF900214DF21950FDF769F902214DF2E9
:103FF0001A50FDF764F901214DF21B50FDF75FF9EE
:1040000002214DF21C50FDF75AF934214DF21D509A
:10401000FDF755F902214DF21E50FDF750F96721C9
:104020004DF21F50FDF74BF902214DF22050FDF7E4
:1040300046F984214DF22150FDF741F902214DF25C
:104040002250FDF73CF9A4214DF22350FDF737F93A
:1040500002214DF22450FDF732F9B7214DF22550DF
:10406000FDF72DF902214DF22650FDF728F9CF2159
:104070004DF22750FDF723F902214DF22850FDF7AC
:104080001EF9DE214DF22950FDF719F902214DF2FA
:104090002A50FDF714F9F2214DF22B50FDF70FF9DC
:1040A00002214DF22C50FDF70AF9FE214DF22D5060
:1040B000FDF705F903214DF22E50FDF700F910210F
:1040C0004DF22F50FDF7FBF803214DF23050FDF774
:1040D000F6F833214DF23150FDF7F1F803214DF29E
:1040E0003250FDF7ECF86D214DF23350FDF7E7F853
:1040F00000214FF45640FDF7E2F833214DF2016004
:10410000FDF7DDF800214DF20260FDF7D8F834210B
:104110004DF20360FDF7D3F800214DF20460FDF786
:10412000CEF83A214DF20560FDF7C9F800214DF2B5
:104130000660FDF7C4F84A214DF20760FDF7BFF8AD
:1041400000214DF20860FDF7BAF85C214DF20960DC
:10415000FDF7B5F800214DF20A60FDF7B0F88121B6
:104160004DF20B60FDF7ABF800214DF20C60FDF74E
:10417000A6F8A6214DF20D60FDF7A1F800214DF241
:104180000E60FDF79CF8E5214DF20F60FDF797F802
:1041900001214DF21060FDF792F813214DF21160EC
:1041A000FDF78DF801214DF21260FDF788F85421DA
:1041B0004DF21360FDF783F801214DF21460FDF715
:1041C0007EF882214DF21560FDF779F801214DF25C
:1041D0001660FDF774F8CA214DF21760FDF76FF80D
:1041E00002214DF21860FDF76AF800214DF21960C6
:1041F000FDF765F802214DF21A60FDF760F8012124
:104200004DF21B60FDF75BF802214DF21C60FDF7DB
:1042100056F834214DF21D60FDF751F802214DF2A0
:104220001E60FDF74CF867214DF21F60FDF747F85F
:1042300002214DF22060FDF742F884214DF2216009
:10424000FDF73DF802214DF22260FDF738F8A42178
:104250004DF22360FDF733F802214DF22460FDF7A3
:104260002EF8B7214DF22560FDF729F802214DF215
:104270002660FDF724F8CF214DF22760FDF71FF8E7
:1042800002214DF22860FDF71AF8DE214DF2296077
:10429000FDF715F802214DF22A60FDF710F8F22122
:1042A0004DF22B60FDF70BF802214DF22C60FDF76B
:1042B00006F8FE214DF22D60FDF701F803214DF2C5
:1042C0002E60FCF7FCFF10214DF22F60FCF7F7FF8A
:1042D00003214DF23060FCF7F2FF33214DF23160E3
:1042E000FCF7EDFF03214DF23260FCF7E8FF6D2192
:1042F0004DF23360FCF7E3FF55214FF47040FCF7BB
:10430000DEFFAA214FF20100FCF7D9FF52214FF244
:104310000200FCF7D4FF08214FF20300FCF7CFFFA7
:1043200000214FF20400FCF7CAFFCC214FF43140CA
:10433000FCF7C5FF00214BF20110FCF7C0FF05217F
:104340004FF43640FCF7BBFF70214FF43740FCF7C9
:10435000B6FF70214BF20170FCF7B1FF01214FF461
:104360003840FCF7ACFF03214BF60100FCF7A7FF38
:1043700003214BF60200FCF7A2FF03214BF60300DA
:10438000FCF79DFF02214FF43C40FCF798FF002111
:104390004BF60140FCF793FF00214BF60240FCF77F
:1043A0008EFFD0214FF44940FCF789FF02214CF6E3
:1043B0000110FCF784FF50214CF60210FCF77FFF40
:1043C00050214CF60310FCF77AFF50214CF60410F4
:1043D000FCF775FF00214FF45450FCF770FF552196
:1043E0004FF46850FCF76BFF4FF48850FCF74CFF1C
:1043F000782002F0E3F94FF42450FCF745FF01F078
:104400009DB8FE48808849F2253188427ED147F622
:10441000F001E520FCF753FF4FF480710120FCF719
:104420004EFF4FF4E0610220FCF749FF41F23001FA
:104430000320FCF744FF00210420FCF740FF40F27A
:1044400002210820FCF73BFF00210920FCF737FF81
:1044500000210A20FCF733FF00210C20FCF72FFF7E
:1044600000210D20FCF72BFF00210F20FCF727FF78
:1044700000211020FCF723FF07211120FCF71FFF6C
:1044800000211220FCF71BFF00211320FCF717FF6F
:1044900000210720FCF713FF41F290611020FCF788
:1044A0000EFF40F227211120FCF709FF9D21122069
:1044B000FCF705FF4FF4C8511320FCF700FF25213E
:1044C0002920FCF7FCFE0D212B20FCF7F8FE07212C
:1044D0003020FCF7F4FE40F203313120FCF7EFFE10
:1044E00003213220FCF7EBFE40F206213520FCF7D9
:1044F000E6FE08213620FCF7E2FE40F206413720B6
:10450000FCF7DDFE4FF44171382000E057E0FCF786
:10451000D6FE07213920FCF7D2FE40F202613C2092
:10452000FCF7CDFE08213D20FCF7C9FE00215020FC
:10453000FCF7C5FEEF215120FCF7C1FE00215220FF
:10454000FCF7BDFE40F23F115320FCF7B8FE4FF4DC
:1045500027416020FCF7B3FE01216120FCF7AFFE8C
:1045600000216A20FCF7ABFE00218020FCF7A7FEAB
:1045700000218120FCF7A3FE00218220FCF79FFE92
:1045800000218320FCF79BFE00218420FCF797FE8E
:1045900000218520FCF793FE10219020FCF78FFE70
:1045A0004FF4C0619220FCF78AFE40F233110720DD
:1045B000FCF785FE22210020FCF781FE1FE78F48D3
:1045C000808849F2283188427ED141F28F01EC2067
:1045D000FCF775FE41F23421EF20FCF770FE4FF43A
:1045E00080710120FCF76BFE4FF4E0610220FCF7C4
:1045F00066FE41F230010320FCF761FE0021042039
:10460000FCF75DFE40F202210820FCF758FE002175
:104610000920FCF754FE00210A20FCF750FE01217E
:104620000C20FCF74CFE00210D20FCF748FE002179
:104630000F20FCF744FE00211020FCF740FE07216C
:104640001120FCF73CFE00211220FCF738FE00216F
:104650001320FCF734FE01210720FCF730FE322046
:1046600002F0F4F841F290411020FCF728FE40F2ED
:1046700027211120FCF723FE322002F0E7F88A21DF
:104680001220FCF71CFE322002F0E0F84FF4D0516B
:104690001320FCF714FE06212920FCF710FE0D2143
:1046A0002B20FCF70CFE322002F0D0F80021202055
:1046B000FCF705FE00212120FCF701FE322002F06C
:1046C000C5F80021302000E074E0FCF7F8FD40F26E
:1046D00004613120FCF7F3FD40F205313220FCF794
:1046E000EEFD00213520FCF7EAFD40F609413620B9
:1046F000FCF7E5FD4FF401713720FCF7E0FD40F2D7
:1047000001313820FCF7DBFD40F207713920FCF75E
:10471000D6FD00213C20FCF7D2FD40F60A213D20C9
:10472000FCF7CDFD322002F091F800215020FCF77B
:10473000C6FDEF215120FCF7C2FD00215220FCF7FD
:10474000BEFD40F23F115320FCF7B9FD4FF4274165
:104750006020FCF7B4FD01216120FCF7B0FD0021D1
:104760006A20FCF7ACFD00218020FCF7A8FD0021A9
:104770008120FCF7A4FD00218220FCF7A0FD002190
:104780008320FCF79CFD00218420FCF798FD00218C
:104790008520FCF794FD10219020FCF790FD4FF44C
:1047A000C0619220FCF78BFD40F233110720FCF72B
:1047B00086FD24E61148808849F2203188427DD167
:1047C00000210846FCF77BFD4FF480710120FCF7C7
:1047D00076FD4FF4E0610220FCF771FD41F23001FB
:1047E0000320FCF76CFD00210420FCF768FD40F27B
:1047F00002210820FCF763FD002101E052050020A2
:104800000920FCF75CFD00210A20FCF758FD01217E
:104810000C20FCF754FD00210D20FCF750FD002179
:104820000F20FCF74CFD322002F010F840F201118D
:104830000720FCF744FD322002F008F84FF48651BF
:104840001020FCF73CFD07211120FCF738FD4FF448
:1048500088711220FCF733FD4FF430611320FCF710
:104860002EFD00212920FCF72AFD44F210012B2007
:10487000FCF725FD00215020FCF721FDEF21512000
:10488000FCF71DFD00215220FCF719FD40F23F11FD
:104890005320FCF714FD4FF41C516020FCF70FFD72
:1048A00001216120FCF70BFD00216A20FCF707FDC8
:1048B00000218020FCF703FD002100E031E0812091
:1048C000FCF7FDFC00218220FCF7F9FC002183208D
:1048D000FCF7F5FC00218420FCF7F1FC0021852089
:1048E000FCF7EDFC10219020FCF7E9FC0021922060
:1048F000FCF7E5FC01219320FCF7E1FC4FF4887103
:104900009520FCF7DCFC00219720FCF7D8FC002167
:104910009820FCF7D4FC40F273110720FCF7CFFC81
:104920006DE5FE48808849F2313188427DD141F2FF
:104930001401E720FCF7C3FC4FF480710120FCF761
:10494000BEFC4FF400710220FCF7B9FC41F23801C3
:104950000320FCF7B4FC40F202210820FCF7AFFC76
:1049600000210920FCF7ABFC00210A20FCF7A7FC82
:1049700000210C20FCF7A3FC00210D20FCF79FFC7C
:1049800000210F20FCF79BFC00211020FCF797FC76
:1049900007211120FCF793FC00211220FCF78FFC6B
:1049A00000211320FCF78BFCC82001F04FFF41F2DF
:1049B00090611020FCF783FC40F227211120FCF7C6
:1049C0007EFC322001F042FF0C211220FCF777FC24
:1049D000322001F03BFF4FF400611320FCF76FFC25
:1049E00011212920FCF76BFC0B212B20FCF767FC25
:1049F000322001F02BFF00212020FCF760FC40F268
:104A00003F112120FCF75BFC00213020FCF757FC14
:104A10004FF483713120FCF752FC00213220FCF767
:104A20004EFC4FF40171352000E064E0FCF747FCD8
:104A300041F20A613620FCF742FC40F20771372050
:104A4000FCF73DFC4FF483713820FCF738FC40F252
:104A500007713920FCF733FC40F202413C20FCF79F
:104A60002EFC40F60F413D20FCF729FC0021502090
:104A7000FCF725FCEF215120FCF721FC00215220FE
:104A8000FCF71DFC40F23F115320FCF718FC4FF4DB
:104A90001C516020FCF713FC01216120FCF70FFC86
:104AA00000216A20FCF70BFC00218020FCF707FCAA
:104AB00000218120FCF703FC00218220FCF7FFFB92
:104AC00000218320FCF7FBFB00218420FCF7F7FB8F
:104AD00000218520FCF7F3FB10219020FCF7EFFB71
:104AE0004FF4C0619220FCF7EAFB40F2331107203B
:104AF000FCF7E5FB83E48948808845F20841884259
:104B00007ED14FF480710120FCF7D9FB4FF4E061B6
:104B10000220FCF7D4FB41F230010320FCF7CFFB6D
:104B200000210420FCF7CBFB40F207210820FCF712
:104B3000C6FB00210920FCF7C2FB00210A20FCF77C
:104B4000BEFB00210C20FCF7BAFB00210D20FCF776
:104B5000B6FB00210F20FCF7B2FB142001F076FE1B
:104B600041F2B0611020FCF7AAFB01211120FCF7F3
:104B7000A6FB01211720FCF7A2FB4FF49C71122029
:104B8000FCF79DFB4FF400611320FCF798FB092113
:104B90002920FCF794FB09212A20FCF790FB002137
:104BA000A420FCF78CFB00215020FCF788FBEF21B0
:104BB0005120FCF784FB00215220FCF780FB40F2DF
:104BC0003F115320FCF77BFB4FF41C516020FCF796
:104BD00076FB01216120FCF772FB00216A20FCF7C3
:104BE0006EFB00218020FCF76AFB00218120FCF78E
:104BF00066FB00218220FCF762FB0021832000E09D
:104C000023E0FCF75CFB00218420FCF758FB00212B
:104C10008520FCF754FB13219020FCF750FB00216A
:104C20009220FCF74CFB03219320FCF748FB4FF448
:104C300088719520FCF743FB40F273110720FCF7C5
:104C40003EFB322001F002FEB8E43448808841F295
:104C5000055188427ED100210720FCF730FB32202D
:104C600001F0F4FD4FF48E711220FCF728FB0121B6
:104C7000A420FCF724FB0F210820FCF720FB0821CF
:104C80000A20FCF71CFB08210D20FCF718FB40F262
:104C900007713020FCF713FB07213120FCF70FFBD5
:104CA00040F203613220FCF70AFB4FF4E06133204D
:104CB000FCF705FB40F202213420FCF700FB022147
:104CC0003520FCF7FCFA41F60F713620FCF7F7FAB5
:104CD00040F207713720FCF7F2FA00213820FCF788
:104CE000EEFA00213920FCF7EAFA40F207713A2087
:104CF000FCF7E5FA00213B20FCF7E1FA07213C2014
:104D0000FCF7DDFA00213D20FCF7D9FA322001F052
:104D10009DFD01210720FCF7D2FA01E05205002099
:104D200001211720FCF7CBFA322001F08FFD4FF460
:104D3000BD511020FCF7C3FA40F217211120FCF7F7
:104D4000BEFA4FF48F711220FCF7B9FA4FF470617C
:104D5000132000E097E0FCF7B2FA00212A20FCF7CC
:104D6000AEFA0A212920FCF7AAFA4FF49F7112200B
:104D7000FCF7A5FA00215020FCF7A1FAEF21512001
:104D8000FCF79DFA00215220FCF799FA40F23F11FE
:104D90005320FCF794FA4FF41C516020FCF78FFA73
:104DA00001216120FCF78BFA00216A20FCF787FAC9
:104DB00000218020FCF783FA00218120FCF77FFA94
:104DC00000218220FCF77BFA00218320FCF777FA90
:104DD00000218420FCF773FA00218520FCF76FFA8C
:104DE00013219020FCF76BFA4FF440719220FCF7EE
:104DF00066FA05219320FCF762FA00219520FCF762
:104E00005EFA00219720FCF75AFA00219820FCF75F
:104E100056FA4FF480710120FCF751FA4FF4E0612B
:104E20000220FCF74CFA41F238010320FCF747FA64
:104E300000210420FCF743FA00210C20FCF73FFA84
:104E400000210F20FCF73BFA00212020FCF737FA65
:104E500000212120FCF733FA21210720FCF72FFA4B
:104E6000142001F0F3FC61210720FCF728FA14203C
:104E700001F0ECFC40F273110720FCF720FA14203B
:104E800001F0E4FC5AE3FE4880884BF20551884269
:104E90007ED100210846FCF712FA00210846FCF7F3
:104EA0000EFA00210846FCF70AFA00210846FCF732
:104EB00006FA0121A420FCF702FA142001F0C6FC36
:104EC0004FF41C516020FCF7FAF940F2022108204F
:104ED000FCF7F5F94FF405713020FCF7F0F943F2D7
:104EE00015713120FCF7EBF940F204613220FCF738
:104EF000E6F940F616613320FCF7E1F942F21121A0
:104F00003420FCF7DCF94FF4A8513520FCF7D7F931
:104F100048F207513620FCF7D2F941F20741372019
:104F2000FCF7CDF941F203413820FCF7C8F9202104
:104F30003920FCF7C4F91A219020FCF7C0F90021B0
:104F40001020FCF7BCF907211120FCF7B8F900216B
:104F50001220FCF7B4F900211320FCF7B0F914205B
:104F600001F074FC4FF4E6611020FCF7A8F940F260
:104F700037111120FCF7A3F9142001F067FC4FF45E
:104F8000DC711220FCF79BF9142001F05FFC00E0BB
:104F900083E04FF470611320FCF791F980212A20FF
:104FA000FCF78DF948212920FCF789F9142001F03C
:104FB0004DFC4FF480710120FCF781F94FF4E06162
:104FC0000220FCF77CF941F238010320FCF777F965
:104FD00040F202210820FCF772F900210A20FCF7B8
:104FE0006EF900210C20FCF76AF900210D20FCF776
:104FF00066F930210E20FCF762F900215020FCF701
:105000005EF9EF215120FCF75AF900215220FCF7FC
:1050100056F940F23F115320FCF751F94FF41C515F
:105020006020FCF74CF901216120FCF748F90021D0
:105030006A20FCF744F911219020FCF740F94FF465
:10504000C0619220FCF73BF940F202419320FCF74B
:1050500036F902219420FCF732F9142001F0F6FB16
:1050600001210720FCF72BF9142001F0EFFB61214F
:105070000720FCF724F940F273110720FCF71FF911
:1050800000212020FCF71BF900212120FCF717F953
:1050900022210020FCF713F950E2794880884CF275
:1050A000055188427ED100210846FCF708F900210D
:1050B0000846FCF704F9142001F0C8FB002108465B
:1050C000FCF7FDF800210846FCF7F9F80021084636
:1050D000FCF7F5F800210846FCF7F1F80121A420BF
:1050E000FCF7EDF8142001F0B1FB4FF41C516020E7
:1050F000FCF7E5F840F606010820FCF7E0F840F27E
:1051000003713020FCF7DBF801213120FCF7D7F8E0
:1051100004213220FCF7D3F84FF481713320FCF7DF
:10512000CEF84FF440713420FCF7C9F840F2031177
:105130003520FCF7C4F81F213620FCF7C0F840F2F8
:1051400003713720FCF7BBF801213820FCF7B7F8D2
:1051500004213920FCF7B3F815219020FCF7AFF8B3
:105160004FF482611020FCF7AAF840F24721112089
:10517000FCF7A5F84FF4DE711220FCF7A0F84FF40D
:1051800060611320FCF79BF8782001F05FFB4FF47F
:1051900080710120FCF793F84FF400710220FCF7B6
:1051A0008EF800E050E041F230010320FCF787F870
:1051B00008210A20FCF783F800210C20FCF77FF877
:1051C00020210E20FCF77BF800210F20FCF777F858
:1051D00000212020FCF773F800212120FCF76FF854
:1051E0003D212A20FCF76BF8142001F02FFB2D2124
:1051F0002920FCF764F800215020FCF760F84DF2FC
:10520000EF015120FCF75BF800215220FCF757F822
:1052100040F23F115320FCF752F800216120FCF7C7
:105220004EF800216A20FCF74AF84FF440719220B2
:10523000FCF745F805219320FCF741F84FF4807105
:105240000720FCF73CF879E10D48808844F23151A1
:1052500088427CD101210020FCF731F80A2001F0BE
:10526000F5FA41F228611020FCF729F80E211220EE
:10527000FCF725F840F639211320FCF720F801E06F
:10528000520500200A2001F0E1FA40211120FCF72C
:1052900016F850211520FCF712F80A2001F0D6FA72
:1052A0001E211220FCF70BF80A2001F0CFFA4FF470
:1052B000B1511020FCF703F842F639211320FBF717
:1052C000FEFF0A2001F0C2FA4FF480710120FBF7C3
:1052D000F6FF4FF440710220FBF7F1FF41F2380175
:1052E0000320FBF7ECFF40F202210820FBF7E7FF69
:1052F00008210A20FBF7E3FF00213020FBF7DFFF46
:1053000040F202413120FBF7DAFF4FF48371322083
:10531000FBF7D5FF40F203513320FBF7D0FF4FF4EA
:1053200082713420FBF7CBFF40F201313520FBF7CF
:10533000C6FF40F207713620FBF7C1FF40F205318E
:105340003720FBF7BCFF4FF40271382000E040E04B
:10535000FBF7B5FF40F60B713920FBF7B0FF0221D8
:105360004120FBF7ACFF4FF41C516020FBF7A7FF77
:1053700001216120FBF7A3FF4FF404719020FBF79C
:105380009EFF4FF485719220FBF799FF0421932033
:10539000FBF795FF4FF48071A020FBF790FF0121F0
:1053A0000720FBF78CFF21210720FBF788FF232133
:1053B0000720FBF784FF33210720FBF780FF40F233
:1053C00033110720FBF77BFF0021A020FBF777FFBD
:1053D000B4E0FE48808844F235518842F8D130214B
:1053E0001520FBF76CFF10219A20FBF768FF2021A6
:1053F0001120FBF764FF43F228411020FBF75FFF09
:1054000002211220FBF75BFF41F238011320FBF76A
:1054100056FF282001F01AFA12210846FBF74FFF29
:10542000282001F013FA43F220411020FBF747FF38
:1054300043F238011320FBF742FF462001F006FA41
:1054400000213020FBF73BFF40F202413120FBF707
:1054500036FF40F207313220FBF731FF4FF4417144
:105460003320FBF72CFF04213420FBF728FF40F208
:1054700001413520FBF723FF40F207713620FBF78F
:105480001EFF40F205313720FBF719FF4FF4C261D0
:105490003820FBF714FF4FF4C2613920FBF70FFFF0
:1054A0004FF480710120FBF70AFF4FF44071022096
:1054B000FBF705FF41F230010320FBF700FF40F648
:1054C00008010820FBF7FBFE08210A20FBF7F7FE86
:1054D0004FF41C516020FBF7F2FE01216120FBF725
:1054E000EEFE4FF49F719020FBF7E9FE4FF48071C0
:1054F0009220FBF7E4FE4FF480719320FBF7DFFE70
:105500004FF44051A020FBF7DAFE1021A320FBF757
:10551000D6FE01210720FBF7D2FE21210720FBF751
:10552000CEFE23210720FBF7CAFE33210720FBF71D
:10553000C6FE40F233110720FBF7C1FE0020FCF746
:105540008EFA0120A24908604FF6FF70FCF703FCB9
:1055500021B000BD2DE9FC4F05460E461746984682
:10556000DDF82C90002001909848808846F60401D0
:10557000884229D195488079012825D1AB46354606
:1055800092480088C01B401E86B247468F4800885C
:10559000A0EB0B00401E1FFA80F800208B49887199
:1055A0002A2048812B20888143463A4631462846A6
:1055B000CDF80090FFF7CEFF0120844988712B20A1
:1055C00048812A2088811DE0781B401C80B2019010
:1055D000344615E021462846FBF7A5FEFBF786FE7C
:1055E0004FF0000A07E04FF0D840A0F880900AF191
:1055F00001001FFA80FA01988245F4DB601C84B236
:105600004445E7DDBDE8FC8F2DE9F84F07460D4620
:1056100090469946DDF828B0A8EB0700401C1FFA19
:1056200080FAA9EB0500401C80B20090002414E031
:10563000281981B23846FBF776FEFBF757FE0026A5
:1056400007E004FB0A603BF8100062490880701C08
:1056500086B25645F5DB601C84B200988442E7DBD5
:10566000BDE8F88F2DE9FF4F84B081468A460020BF
:10567000039002900698A0EB09050798A0EB0A0694
:10568000CDF80490CDF800A0002D01DD012705E044
:105690000DB9002702E04FF0FF376D42002E02DD0A
:1056A0004FF0010806E016B94FF0000802E04FF095
:1056B000FF387642B54201DD2C4600E034464FF01B
:1056C000000B21E0009A91B2019A90B2FCF71EF90A
:1056D0000398284403900298304402900398A04213
:1056E00005DD0398001B039001983844019002984F
:1056F000A04205DD0298001B0290009840440090F3
:105700000BF101001FFA80FB601C8345DADD08B055
:10571000BDE8F08FF0B504460D4616461F462B46F1
:10572000324629462046FFF79DFF3B462246294642
:105730002046FFF797FF3B46324639462046FFF7A3
:1057400091FF3B46324629463046FFF78BFFF0BDBE
:105750002DE9F04306460F469046002445460320B7
:10576000A0EB480944E07A1B91B2321990B2FCF7E1
:10577000CDF83A1B91B2721990B2FCF7C7F83A19FA
:1057800091B2721990B2FCF7C1F87A1991B232193C
:1057900090B2FCF7BBF87A1991B2321B90B2FCF7C9
:1057A000B5F83A1991B2721B90B2FCF7AFF87A1BB8
:1057B00091B2321B90B2FCF7A9F83A1B91B2721B5E
:1057C00090B2FCF7A3F8641C06E00000520500202C
:1057D000BC8240428000006CB9F1000F03DAA000E7
:1057E000801D814404E0601B80000A3081446D1EEE
:1057F000AC42B8DDBDE8F0832DE9F84F80460E4697
:1058000017461C46B3462046E31704EB5373DB10E0
:1058100021464FEAE47C04EB5C7C4FEAEC0CA4EB01
:10582000CC0CBCF1000F02D04FF0010C01E04FF0A6
:10583000000C6344224604EBD27C4FEA6C0C03FB61
:105840000CF3DBB20093A7F12000C7B2002556E0AD
:105850000C2C07D107EB4700F24901EB800010F850
:10586000059013E0102C05D1EF4800EB071010F85D
:1058700005900BE0182C07D107EBC700EB4901EBB3
:10588000800010F8059001E0BDE8F88F4FF0000AA5
:105890002FE009F0800030B1E548028831464046EB
:1058A000FCF750F807E00A9828B9E2480288314628
:1058B0004046FCF747F84FEA49604FEA1069701C10
:1058C00086B2DD484088B04200DCDDE7A6EB0B0085
:1058D000A0420AD15E4608F101001FFA80F8D648BE
:1058E0000088404500DCCFE706E00AF1010000F047
:1058F000FF0ABAF1080FCCDB00BF681CC5B20098E4
:105900008542A5DB00BFBFE710B50246012000E0DD
:1059100050430B00A1F10104E1B2F9D110BD2DE912
:10592000FF4F81B0074691461E460E9D4FF0000A7C
:10593000002439E0301B401EC1B20A20FFF7E4FF0B
:10594000B9FBF0F00A21B0FBF1F201FB1208BAF149
:10595000000F16D1701EA04213DDB8F1000F0ED15A
:105960000020AB4605EBDB71491001FB0471009090
:1059700088B22B4620220299FFF73EFF12E04FF03B
:10598000010A0020AB4605EBDB71491001FB0471F5
:10599000009088B208F13001CAB22B460299FFF795
:1059A0002BFF00BF601CC4B2B442C3DB05B0BDE82E
:1059B000F08F2DE9FF4F82B0064692461F46DDE983
:1059C0000F480020019000254DE0781B401EC1B219
:1059D0000A20FFF799FFBAFBF0F00A21B0FBF1F2C1
:1059E00001FB1209019850BB781EA84227DDB9F1CE
:1059F000000F22D108F0800078B108F00100A34622
:105A000004EBDB71491001FB0561009088B223466D
:105A100030220399FFF7F0FE0EE008F00100A346E4
:105A200004EBDB71491001FB0561009088B223464D
:105A300020220399FFF7E0FE13E00120019008F017
:105A40000100A34604EBDB71491001FB05610090E6
:105A500088B209F13001CAB223460399FFF7CCFEA0
:105A600000BF681CC5B2BD42AFDB06B0BDE8F08F19
:105A70002DE9F84704460D4690469946DDE9096749
:105A800004F0FF0A08EB04001FFA80F809EB050098
:105A90001FFA80F916E0444502DB5446A81985B286
:105AA0004D4500DB14E0002000903A78334629464B
:105AB0002046FFF7A1FE304606EBD07104EB6101F2
:105AC0008CB27F1C38787E2802DC38782028E2DA15
:105AD00000BFBDE8F8872DE9F04F07460D46164692
