:020000040800F2
:10000000C8120020D12E000845040008470400084B
:100010004B0400084F0400085304000800000000CF
:10002000000000000000000000000000570400086D
:1000300059040008000000005B0400085D0400088B
:10004000EB2E0008EB2E0008EB2E0008EB2E00082C
:10005000EB2E0008EB2E0008EB2E0008EB2E00081C
:10006000EB2E0008EB2E0008EB2E0008EB2E00080C
:10007000EB2E0008EB2E0008EB2E0008EB2E0008FC
:10008000EB2E0008EB2E0008EB2E0008EB2E0008EC
:10009000EB2E0008EB2E0008EB2E0008EB2E0008DC
:1000A000EB2E0008EB2E0008EB2E0008EB2E0008CC
:1000B000EB2E00081722000815560008EB2E00084A
:1000C000EB2E0008EB2E0008EB2E0008EB2E0008AC
:1000D000EB2E0008452E0008EB2E000865220008D4
:1000E000EB2E0008EB2E0008EB2E0008EB2E00088C
:1000F000EB2E0008EB2E0008EB2E0008EB2E00087C
:10010000EB2E0008EB2E0008EB2E0008EB2E00086B
:10011000EB2E0008EB2E0008EB2E0008352100081E
:10012000EB2E0008EB2E0008EB2E0008EB2E00084B
:10013000EB2E0008EB2E0008EB2E0008EB2E00083B
:10014000EB2E0008EB2E0008EB2E0008EB2E00082B
:10015000EB2E0008EB2E0008EB2E0008EB2E00081B
:10016000EB2E0008EB2E0008EB2E0008EB2E00080B
:10017000EB2E0008EB2E0008EB2E0008EB2E0008FB
:10018000EB2E0008EB2E000800F002F800F0B2F8A9
:100190000AA090E8000C82448344AAF10107DA45E2
:1001A00001D100F0A7F8AFF2090EBAE80F0013F082
:1001B000010F18BFFB1A43F00103184750AF0000AE
:1001C00070AF00000A444FF0000C10F8013B13F030
:1001D000070408BF10F8014B1D1108BF10F8015BA0
:1001E000641E05D010F8016B641E01F8016BF9D193
:1001F00013F0080F1EBF10F8014BAD1C0C1B09D1EA
:100200006D1E58BF01F801CBFAD505E014F8016B5B
:1002100001F8016B6D1EF9D59142D6D370470000ED
:100220000023002400250026103A28BF78C1FBD8FF
:10023000520728BF30C148BF0B6070476E2906F0D7
:10024000D881702906F05B80662908F0258565292C
:1002500008F02285672908F01F856129AFF3008027
:1002600003681B0A28BF41F08001692905F0CC878B
:10027000642905F0C987752905F0C6876F2906F03E
:10028000DD84782906F02780E92906F07784E429BF
:1002900006F07484F52906F07184EF2906F0DA84FB
:1002A000F82906F026800368DB0928BF41F08001A9
:1002B000632906F0E683732906F0EB83E32906F051
:1002C0006B85F32906F07085002070471FB508F094
:1002D000DEFC06F0C9FC04000020002107F02AFF24
:1002E000401C60600020002107F00EFFE0601FBD91
:1002F00010B510BD06F0F2FD1146FFF7E7FF00F064
:1003000009F806F019FE03B4FFF7F2FF03BC02F090
:1003100035FD00004FF4A06002F0FAFDA82002F0C5
:10032000ABFC4FF4E13002F037FD4FF4164001F022
:10033000C8FF3A4841685420884701F059FE01F04F
:1003400077FE00F031FB354841684820884742F28B
:10035000CF01632001F02FFF01F069F901214FF473
:100360007A7002F05BFC18B314E04FF4165001F001
:10037000A8FF4FF4164002F0F5FB4FF4164001F0D1
:10038000A0FF01222649274802F01BFC02F094FB43
:100390002549087001214FF47A7002F03FFC18B132
:1003A000214800780028E0D14FF4FA7002F0C6FC32
:1003B00032E0012002F0C2FC1C48008800F400403A
:1003C000D0B11A480088C0F30E05002405E0184893
:1003D000005D18490855601C84B2AC42F7DB002070
:1003E0001249088013490855134802F0F1FA1348DE
:1003F000007808B901F073FA642096FBF0F100FB75
:10040000116038B90E48006808B9012000E00020EA
:100410000B490860701C86B2CBE70000AC000020DE
:10042000A086010040420F00000000203A0000209A
:1004300080080020A0010020C0040020020000204D
:10044000A4824242704700BFFEE700BFFEE700BF44
:10045000FEE700BFFEE77047704770477047000037
:100460000CB50020019000907648006840F4803080
:100470007449086000BF7348006800F400300090C1
:100480000198401C0190009818B90198B0F5A04F50
:10049000F1D16C48006800F4003010B101200090E8
:1004A00001E0002000900098012846D165484030C6
:1004B000006840F08050634940310860624800683D
:1004C00040F44040604908605E48083000685D497B
:1004D000083108600846006840F40040086008469B
:1004E000006840F4A05008605848091F0860081FC1
:1004F000006840F08070091F086000BF5148006824
:1005000000F000700028F9D040F2057050490860F2
:100510004C480830006820F003004A490831086060
:100520000846006840F00200086000BF45480830F7
:10053000006800F00C000828F8D10CBD10B5454843
:10054000006840F47000434908603E48006840F08D
:1005500001003C49086000203A49083108603948E8
:1005600000683D490840374908603C48091D08605B
:10057000081F006820F48020091F0860002031490E
:100580000C310860FFF76CFF4FF000603149803993
:10059000086010BD70B50020002202230024022153
:1005A000284D08352D6805F00C0020B1042806D030
:1005B000082834D107E02A4D2A4E356033E02A4D11
:1005C000284E35602FE01F4D2D1D2D68C5F380543A
:1005D0001C4D2D1D2D6805F03F0154B1224DB5FB7A
:1005E000F1F5184E361D3668C6F3881605FB06F27F
:1005F00009E01B4DB5FBF1F5124E361D3668C6F30A
:10060000881605FB06F20F4D2D1D2D68C5F301451B
:100610006D1C6B00B2FBF3F5124E356003E0104D1C
:10062000104E356000BF00BF064D08352D68C5F37C
:1006300003150E4E705D0B4D2D68C540094E35609B
:1006400070BD0000003802400070004008544007B0
:10065000003C024088ED00E0FFFFF6FE1030002471
:100660000024F4000800002000127A000C00002092
:100670001CB50121782003F0C3FA0C220E21FE489C
:1006800002F0C7FD0C220F21FB4802F0C2FD0C2234
:100690000021F94802F0BDFD0C220121F64802F0CC
:1006A000B8FD0C220721F54802F0B3FD0C22082109
:1006B000F24802F0AEFD0C220921F04802F0A9FD3B
:1006C0000C220A21ED4802F0A4FD0C220B21EB487C
:1006D00002F09FFD0C221146E84802F09AFD0C2220
:1006E0000D21E64802F095FD0C220E21E34802F0B0
:1006F00090FD0C220F21E14802F08BFD0C22082115
:10070000DD4802F086FD0C220921DB4802F081FD64
:100710000C220A21D84802F07CFD0C220421D64884
:1007200002F077FD0C220521D34802F072FD0C2265
:100730001146D34802F06DFD0C221146D14802F05B
:1007400068FD4CF23370009002208DF80400002008
:100750008DF8060003208DF8050001208DF80700B4
:100760006946C54802F0CAFC4FF68070009002202E
:100770008DF8040000208DF8060003208DF8050098
:1007800001208DF807006946BC4802F0B7FC4FF421
:100790008050009002208DF8040000208DF80600A3
:1007A00003208DF8050001208DF807006946B44844
:1007B00002F0A4FC4FF48050009002208DF8040059
:1007C00000208DF8060003208DF8050001208DF82B
:1007D00007006946AB4802F091FC1CBD00B59DB016
:1007E0000121084603F044FA0120079000200890F8
:1007F0000F20099000200A900B900C900D9006207D
:100800000E9000200F901090102011900020129058
:1008100014901390159016904FF48050179000206C
:1008200018904FF48040199000201A9007A81B9050
:10083000CDF870D00EA802F040FD0121062002F094
:10084000C7FD1DB000BD9049088070478E49891CC6
:100850000880704700B503460A461846FFF7F3FFC5
:100860001046FFF7F3FF00BD8749891C08807047D9
:100870008548801C0088704700B502467AB936204A
:10088000FFF7E1FF0020FFF7E1FF4FF4F0707F4931
:1008900048804FF4A0700880002088710EE0362058
:1008A000FFF7D1FF6020FFF7D1FF4FF4A070774929
:1008B00048804FF4F07008800120887100BD70B549
:1008C00004460D462A20FFF7BEFF2646E11704EB3B
:1008D0001161C1F30F20FFF7B9FFE11704EB1161BC
:1008E0000912A4EB012188B2FFF7B0FF1646D11719
:1008F00002EB1161C1F30F20FFF7A8FF1646D117D5
:1009000002EB11610912A2EB012188B2FFF79EFFF1
:100910002B20FFF798FF2E46E91705EB1161C1F375
:100920000F20FFF793FFE91705EB11610912A5EB03
:10093000012188B2FFF78AFF1E46D91703EB116128
:10094000C1F30F20FFF782FF1E46D91703EB116199
:100950000912A3EB012188B2FFF778FF2C20FFF7E3
:1009600072FF70BD70B5064648484088401E83B28D
:1009700046480088401E82B200210846FFF79FFFCC
:1009800000240CE0002504E03046FFF76DFF681CF2
:1009900085B23E484088A842F6DC601C84B23B48E1
:1009A0000088A042EEDC70BD10B5FFF761FEFFF7D6
:1009B00015FF322002F0C2F9D320FFF744FF32487E
:1009C000801C0088314988802F48801C00888880DE
:1009D0002D48801C00888880084680884FF6FF716B
:1009E00001EA002029498880084680884FF0D841D4
:1009F000B1F880100843254988800846818824A0E2
:100A000005F090FBFF20FFF71EFFFF20FFF71BFF05
:100A1000052002F093F9FF20FFF715FFFF20FFF7F5
:100A200012FFFF20FFF70FFFFF20FFF70CFF0A2048
:100A300002F084F9B020FFF706FF0020FFF706FF61
:100A4000B320FFF700FF0220FFF700FF0020FFF7B1
:100A5000FDFE0020FFF7FAFE0020FFF7F7FEC020A2
:100A6000FFF7F1FE1320FFF7F1FE3B20FFF7EEFE4C
:100A70000020FFF7EBFE13E0000C024000100240E4
:100A800000140240001802407E00006C300000207C
:100A9000204C43442049443A25780D0A00000000C8
:100AA0000020FFF7D3FE0020FFF7D0FE0120FFF764
:100AB000CDFE0020FFF7CAFE4320FFF7C7FEC1208E
:100AC000FFF7C1FE0820FFF7C1FE1B20FFF7BEFEA7
:100AD0000820FFF7BBFE0820FFF7B8FEC420FFF791
:100AE000B2FE1120FFF7B2FE0120FFF7AFFE732028
:100AF000FFF7ACFE0120FFF7A9FEC620FFF7A3FE1B
:100B00000020FFF7A3FEC820FFF79DFE0F20FFF790
:100B10009DFE0520FFF79AFE1420FFF797FE5C204C
:100B2000FFF794FE0320FFF791FE0720FFF78EFEEC
:100B30000720FFF78BFE1020FFF788FE0020FFF74D
:100B400085FE2320FFF782FE1020FFF77FFE07209F
:100B5000FFF77CFE0720FFF779FE5320FFF776FEB4
:100B60000C20FFF773FE1420FFF770FE0520FFF73F
:100B70006DFE0F20FFF76AFE2320FFF767FE0020BF
:100B8000FFF764FE3520FFF75EFE0020FFF75EFEF4
:100B90004420FFF758FE0020FFF758FE0120FFF722
:100BA00055FED020FFF74FFE0720FFF74FFE07202E
:100BB000FFF74CFE1D20FFF749FE0320FFF746FE1E
:100BC000D120FFF740FE0320FFF740FE5B20FFF738
:100BD0003DFE1020FFF73AFED220FFF734FE03203F
:100BE000FFF734FE2420FFF731FE0420FFF72EFE2E
:100BF0002A20FFF728FE0020FFF728FE0020FFF73D
:100C000025FE0120FFF722FE3F20FFF71FFE2B20CD
:100C1000FFF719FE0020FFF719FE0020FFF716FE70
:100C20000120FFF713FEDF20FFF710FE3620FFF74D
:100C30000AFE0020FFF70AFEC020FFF704FE132083
:100C4000FFF704FE3A20FFF7FEFD5520FFF7FEFDFB
:100C50001120FFF7F8FD962002F070F82920FFF729
:100C6000F2FD1E2002F06AF82C20FFF7ECFD0020B8
:100C7000FFF702FE4FF6FF70FFF774FE10BD2DE97F
:100C8000F04304460D4616461F46DDF81C80B4426C
:100C900001DCBD4201DDBDE8F0833B46324629461A
:100CA0002046FFF70CFE301B401C84B2781B401C12
:100CB00085B20BE0A94602E04046FFF7D5FD5FEAAA
:100CC0000900A9F101011FFA81F9F5D12000A4F171
:100CD00001018CB2EED100BFDDE730B504460D4610
:100CE0002B46224629462046FFF7E9FDF9480088B1
:100CF000FFF7BAFD30BD70B504460D4616462B46CB
:100D0000224629462046FFF7DAFD3046FFF7ACFDC4
:100D100070BD2DE9F04104460D4600260027B0467F
:100D2000ED480088A04203DDEB484088A84202DC81
:100D30000020BDE8F0812B46224629462046FFF7D9
:100D4000BEFD2E20FFF77FFDFFF792FD0646FFF761
:100D50008FFD0646FFF78CFD8046FFF789FD0746AD
:100D6000F012C002B91240EA411040EAE820E0E780
:100D70002DE9FF4F84B081468A46002003900290FF
:100D80000698A0EB09050798A0EB0A06CDF8049099
:100D9000CDF800A0002D01DD012705E00DB90027E9
:100DA00002E04FF0FF376D42002E02DD4FF00108E8
:100DB00006E016B94FF0000802E04FF0FF38764227
:100DC000B54201DD2C4600E034464FF0000B21E037
:100DD000009A91B2019A90B2FFF77FFF03982844DE
:100DE00003900298304402900398A04205DD0398D6
:100DF000001B03900198384401900298A04205DD41
:100E00000298001B02900098404400900BF10100F2
:100E10001FFA80FB601C8345DADD08B0BDE8F08F67
:100E20002DE9FF4F84B081468A4600200290834618
:100E30000698A0EB09050798A0EB0A06CDF80490E8
:100E4000CDF800A0002D01DD012705E00DB9002738
:100E500002E04FF0FF376D42002E02DD4FF0010837
:100E600006E016B94FF0000802E04FF0FF38764276
:100E7000B54201DD2C4600E03446002003901EE020
:100E8000009A91B2019A90B2119AFFF734FF02983A
:100E900028440290B3440298A04205DD0298001B4A
:100EA0000290019838440190A34504DDABEB040B9C
:100EB0000098404400900398401C80B20390611C4D
:100EC00003988842DCDD08B0BDE8F08FF0B5044639
:100ED0000D46174605F1010C1FFA8CF304F1010CC5
:100EE0001FFA8CF2A5F1010C1FFA8CF1A4F1010C90
:100EF0001FFA8CF0FFF7E3FC002604E03846FFF70A
:100F0000B3FC701CC6B2092EF8DB211D8AB2211F6A
:100F100088B22B462946FFF7D2FC002604E038466B
:100F2000FFF7A2FC701CC6B2092EF8DB281D83B2A5
:100F3000281F81B222462046FFF7C1FC002604E0AC
:100F40003846FFF791FC701CC6B2092EF8DBF0BDE5
:100F5000F0B504460D4616461F462B463246294636
:100F60002046FFF705FF3B46224629462046FFF76D
:100F7000FFFE3B46324639462046FFF7F9FE3B4628
:100F8000324629463046FFF7F3FEF0BD2DE9F04327
:100F900006460F469046002445460320A0EB48092C
:100FA0003CE07A1B91B2321990B2FFF796FE3A1BE1
:100FB00091B2721990B2FFF790FE3A1991B272197C
:100FC00090B2FFF78AFE7A1991B2321990B2FFF708
:100FD00084FE7A1991B2321B90B2FFF77EFE3A1965
:100FE00091B2721B90B2FFF778FE7A1B91B2321B5E
:100FF00090B2FFF772FE3A1B91B2721B90B2FFF7EC
:101000006CFE641CB9F1000F03DAA000801D81445E
:1010100004E0601B80000A3081446D1EAC42C0DDDC
:10102000BDE8F0832DE9F84F80460E4617461C4672
:10103000B3462046E31704EB5373DB1021464FEA17
:10104000E47C04EB5C7C4FEAEC0CA4EBCC0CBCF134
:10105000000F02D04FF0010C01E04FF0000C634490
:10106000224604EBD27C4FEA6C0C03FB0CF3DBB2A0
:101070000093A7F12000C7B2002561E00C2C07D136
:1010800007EB4700154901EB800010F8059013E0CD
:10109000102C05D1124800EB071010F805900BE05A
:1010A000182C07D107EBC7000E4901EB800010F8A0
:1010B000059001E0BDE8F88F4FF0000A3AE009F032
:1010C000800088B10348028831464046FFF713FE8E
:1010D00012E000001C000020300000209C8C000862
:1010E00010910008009700080A9828B9FE48028865
:1010F00031464046FFF7FFFD4FEA49604FEA10696D
:10110000701C86B2F9484088B04200DCD2E7A6EBFA
:101110000B00A0420AD15E4608F101001FFA80F8D8
:10112000F2480088404500DCC4E706E00AF101000F
:1011300000F0FF0ABAF1080FC1DB00BF681CC5B29E
:10114000009885429ADB00BFB4E710B50246012043
:1011500000E050430B00A1F10104E1B2F9D110BD50
:101160002DE9FF4F81B0074691461E460E9D4FF078
:10117000000A002439E0301B401EC1B20A20FFF7EC
:10118000E4FFB9FBF0F00A21B0FBF1F201FB120819
:10119000BAF1000F16D1701EA04213DDB8F1000F96
:1011A0000ED10020AB4605EBDB71491001FB047149
:1011B000009088B22B4620220299FFF733FF12E0FD
:1011C0004FF0010A0020AB4605EBDB71491001FB33
:1011D0000471009088B208F13001CAB22B4602991E
:1011E000FFF720FF00BF601CC4B2B442C3DB05B0F0
:1011F000BDE8F08F2DE9FF4F82B0064692461F46AC
:10120000DDE90F480020019000254DE0781B401ECD
:10121000C1B20A20FFF799FFBAFBF0F00A21B0FB38
:10122000F1F201FB1209019850BB781EA84227DD9C
:10123000B9F1000F22D108F0800078B108F0010068
:10124000A34604EBDB71491001FB0561009088B2F5
:10125000234630220399FFF7E5FE0EE008F0010077
:10126000A34604EBDB71491001FB0561009088B2D5
:10127000234620220399FFF7D5FE13E001200190B9
:1012800008F00100A34604EBDB71491001FB056186
:10129000009088B209F13001CAB223460399FFF7E2
:1012A000C1FE00BF681CC5B2BD42AFDB06B0BDE8E1
:1012B000F08F2DE9F84704460D4690469946DDE942
:1012C000096704F0FF0A08EB04001FFA80F809EB35
:1012D00005001FFA80F916E0444502DB5446A819C0
:1012E00085B24D4500DB14E0002000903A7833468B
:1012F00029462046FFF796FE304606EBD07104EBF8
:1013000061018CB27F1C38787E2802DC3878202876
:10131000E2DA00BFBDE8F8872DE9F84F04460F4632
:101320001546A346009760E0002657E006EB8600CE
:10133000C0EB86106E4911F81000297888424BD115
:1013400006EB8600C0EB8610694901EB400040784F
:101350006978884240D14FF000083AE006EB8600F9
:10136000C0EB8610624901EB4000801C10F808A019
:101370004FF0000926E00AF08000802806D15D4881
:10138000028839462046FFF7B6FC05E05648028839
:1013900039462046FFF7AFFC4FF6FF7000EA4A0AD5
:1013A000601C84B2A4EB0B00202807D15C46781C9B
:1013B00087B20098381A1D2800D1009F09F101005A
:1013C00000F0FF09B9F1080FD5DB08F1010000F0CA
:1013D000FF08B8F1740FC1DB701CC6B2142EA5DB78
:1013E000AD1C04F1200084B2A346287800289BD1CC
:1013F000BDE8F88F2DE9F04F8046894615461E4618
:10140000DDF824A000270024A34609EB0600401EB7
:1014100083B208EB0500401E82B249464046FFF702
:101420004EFA05FB06F04FEA400B00BF601C1AF8AD
:1014300000704FF6FF7000EA07271AF80400074310
:101440003846FFF711FAA41C5C45EFDBBDE8F08FCE
:101450002DE9F84F04460F461546A34600976BE06A
:10146000002662E006EB860000EB4610224911F8E8
:1014700010002978884256D106EB860000EB461012
:101480001D4901EB40004078697888424BD14FF00C
:10149000000845E006EB860000EB4610164901EB1C
:1014A0004000801C10F808A04FF0000931E00AF05D
:1014B0008000802806D10F48028839462046FFF771
:1014C0001AFC05E00848028839462046FFF713FC5D
:1014D0004FF6FF7000EA4A0A601C84B2A4EB0B00CE
:1014E000182812D15C4609E01E00002030000020C0
:1014F0005CA400081C0000206EA90008781C87B2BC
:101500000098381A182800D1009F09F1010000F056
:10151000FF09B9F1080FCADB08F1010000F0FF086C
:10152000B8F1740FB6DB701CC6B2142E9ADBAD1C7A
:1015300004F1180084B2A3462878002890D1BDE8B1
:10154000F88F2DE9F04F07460D4616469846AB46F4
:10155000002450E0182C09DA06EB460000EB4000AE
:10156000FD4901EBC00010F804901AE0302C0CDAB1
:1015700006EB4600401C00EB4000F74901EBC001C0
:10158000A4F1180011F800900BE006EB4600801C57
:1015900000EB4000F04901EBC001A4F1300011F86C
:1015A00000904FF0000A20E009F0800028B1424688
:1015B00029463846FFF79FFB05E0E84802882946A0
:1015C0003846FFF798FB4FEA49604FEA1069681CFC
:1015D00085B2A5EB0B00182803D15D46781C87B2B5
:1015E00006E00AF1010000F0FF0ABAF1080FDBDBA8
:1015F00000BF601CC4B2482CACDBBDE8F08F70B5F6
:1016000078200546064600240EE04FF4FC6322468F
:1016100050212846FFF795FF06F11000C6B205F1EC
:101620001800C5B2601CC4B2062CEEDB70BD0CB550
:101630004AF25160CA490880CAA018210B464FF4EB
:101640009672CDE9001014212820FFF732FECBA0BE
:1016500018210B464FF49672CDE900103221282054
:10166000FFF727FEC9A018210B464FF49672CDE96B
:10167000001050212820FFF71CFEC6A018210B46A1
:101680004FF49672CDE900106E212820FFF711FE6D
:10169000C6A018210B464FF4A072CDE90010872197
:1016A0000020FFF706FE0CBD1CB5FFF7C0FF42F699
:1016B0001230AB490880C5A1CA4804F03FFDC948B3
:1016C00018210B46C822CDE90010A0213C20FFF7CD
:1016D000F0FDC5A1C34804F031FDC24818210B46F6
:1016E000C822CDE90010BE213C20FFF7E2FDC3A1D6
:1016F000BC4804F023FDBB4818210B46C822CDE9A5
:101700000010DC213C20FFF7D4FDC0A1B54804F057
:1017100015FDB44818210B46C822CDE90010FA2166
:101720003C20FFF7C6FDBEA1AE4804F007FDAD4862
:1017300018210B464FF49672CDE900104FF48C71CE
:101740003C20FFF7B6FDB9A1A64804F0F7FCA54878
:1017500018210B464FF49672CDE900104FF49B719F
:101760003C20FFF7A6FDB6A19E4804F0E7FC9D488B
:1017700018210B464FF49672CDE900104FF4AA7170
:101780003C20FFF796FDB4A1964804F0D7FC95489D
:1017900018210B464FF48272CDE900104FF4B97155
:1017A0003C20FFF786FDB1A18E4804F0C7FC8D48B0
:1017B00018210B46C822CDE9001051003C20FFF74C
:1017C00078FD1CBD1CB5FFF732FF42F612306449AC
:1017D0000880ABA1834804F0B1FC824818210B4675
:1017E000C822CDE90010A0213C20FFF762FDAAA18C
:1017F0007C4804F0A3FC7B4818210B46C822CDE9A5
:101800000010BE213C20FFF754FDA8A1754804F04C
:1018100095FC744818210B46C822CDE90010DC2144
:101820003C20FFF746FDA5A16E4804F087FC6D48FB
:1018300018210B46C822CDE90010FA213C20FFF701
:1018400038FD77A1674804F079FC664818210B46FB
:10185000C822CDE900104FF48C713C20FFF729FD20
:101860009BA1604804F06AFC5E4818210B464FF4C7
:101870009672CDE900104FF49B713C20FFF719FDE3
:1018800098A1584804F05AFC564818210B464FF4CA
:101890009672CDE900104FF4AA713C20FFF709FDC4
:1018A0006DA1504804F04AFC4E4818210B464FF4F5
:1018B0008272CDE900104FF4B9713C20FFF7F9FCBA
:1018C0008EA1484804F03AFC464818210B46C8222D
:1018D000CDE9001051003C20FFF7EBFC1CBD10B51A
:1018E0002DED048B82B0FFF7A2FE1F201C4908805B
:1018F0008748D0F8490000EE100AB8EE400AB0EE72
:10190000408A9FED840AC8EE000AB0EE608A10EEAD
:10191000904A204607F04AF941EC190B7C4890F8B0
:101920004D0053EC192B7CA100902E4804F006FCCE
:101930002C4818210B46C822CDE90010A0213C20DC
:10194000FFF7B7FC7248406C00EE100AB8EE400A90
:10195000B0EE408AECE000002AAB00081E00002038
:101960001C00002053544D3332204750532D4D6FEF
:1019700064756C6520546573740000004D6F646578
:101980006C20203A4E656F2D364D0000417574680D
:101990006F723A004B5F4C4546542046756E637437
:1019A000696F6E2053776974636800002D2D2D2DAB
:1019B0002D2D2D2D2D2D2D2D2D2D2D2D2D2D2D2D57
:1019C0002D2D2D2D2D2D2D2D2D2D2D004C6F6E6798
:1019D00069747564653A3131342E323337343520C9
:1019E000452000002C0500204C6174697475646505
:1019F0003A33302E3538343534204E00416C74691A
:101A0000747564653A35342E386D00005370656521
:101A1000643A302E3434306B6D2F682000000000A3
:101A2000466978204D6F64653A33440056616C69AD
:101A30006420736174656C6C6974653A30380000B9
:101A400056697369626C6520736174656C6C697446
:101A5000653A3131000000005554432044617465FB
:101A60003A323032302F31302F3331005554432049
:101A700054696D653A30323A31313A3036000000FF
:101A80004C6F6E6769747564653A3131342E313448
:101A900037343820452000004C61746974756465E2
:101AA0003A33302E3337343532204E00416C74696E
:101AB000747564653A31392E346D00005370656574
:101AC000643A302E3133306B6D2F682000000000F7
:101AD00056616C696420736174656C6C6974653AF5
:101AE0003036000056697369626C652073617465F5
:101AF0006C6C6974653A303800000000555443201E
:101B000054696D653A30323A32373A313800000064
:101B1000C00400200050C3474C6F6E676974756441
:101B2000653A252E356620253163202020000000EF
:101B30001FED080AC8EE000AB0EE608A10EE904A67
:101B4000204607F033F841EC190BEE4890F84800B6
:101B500053EC192BECA10090F14804F0EFFAF04897
:101B600018210B46C822CDE90010BE213C20FFF70A
:101B7000A0FBE448D0F8630000EE100AB8EEC00AFB
:101B8000B0EE408AB2EE040AC8EE000AB0EE608AF7
:101B900010EE904A204607F009F841EC190B53EC7F
:101BA000192BE0A1DE4804F0C9FADD4818210B46E4
:101BB000C822CDE90010DC213C20FFF77AFBD14898
:101BC000B0F8670000EE100AB8EE400AB0EE408AA6
:101BD0009FEDD90AC8EE000AB0EE608A10EE904A76
:101BE000204606F0E3FF41EC190B53EC192BD3A16F
:101BF000CB4804F0A3FACA4818210B46C822CDE905
:101C00000010FA213C20FFF754FBBE4890F85C001E
:101C1000032814DCBB4890F85C00CD4951F8202023
:101C2000CCA1BF4804F08AFABD4818210B46C8224F
:101C3000CDE900104FF48C713C20FFF73AFBB1481E
:101C400090F84F20C6A1B64804F078FAB44818219D
:101C50000B464FF49672CDE900104FF49B713C2077
:101C6000FFF727FBA7480078642190FBF1F201FB06
:101C700012042246C0A1AA4804F060FAA84818211C
:101C80000B464FF49672CDE900104FF4AA713C2038
:101C9000FFF70FFB9B4890F840000090994890F8A0
:101CA0003F30B0F83D20BAA19D4804F047FA9C4867
:101CB00018210B464FF48272CDE900104FF4B97130
:101CC0003C20FFF7F6FA8F4890F8430000908D48CB
:101CD00090F8423090F84120B4A1914804F02EFAD7
:101CE0008F4818210B46C822CDE9001051003C2036
:101CF000FFF7DFFA02B0BDEC048B10BD10B52DED7F
:101D00000A8BB0EE408AF0EE608AB0EE419AF0EEB7
:101D1000619A53EC192B51EC190B06F087FC41EC3E
:101D20001B0B53EC182B51EC180B06F07FFC41EC0D
:101D30001C0B53EC1B2B06F01FFA41EC1A0BB0EEF8
:101D40004A0AF0EE6A0A05F077FDBDEC0A8B10BD79
:101D500000B52DED108B91B0B0EE408AF0EE608AA8
:101D6000B0EE41BAF0EE61BAB0EE429AF0EE629A8D
:101D7000B0EE43CAF0EE63CA9FED930BB0EE40AAFB
:101D8000F0EE60AA9FED920BB0EE40DAF0EE60DA72
:101D900053EC192B51EC180B06F0EEF941EC1F0B2C
:101DA0009FED8D0B53EC102B06F08EFA53EC1A2B93
:101DB000CDE900019DED000B51EC100B06F036FC57
:101DC0009FED870B53EC102BCDE902019DED020B2B
:101DD00051EC100B06F078FA41EC1E0BB0EE4E0AF7
:101DE000F0EE6E0A05F0C4FC8DED060B53EC1B2BD8
:101DF00051EC1C0B06F0F0FD41EC1F0B53EC1A2BC1
:101E000006F014FC41EC1E0B53EC1D2B06F00EFCEF
:101E1000CDE904019DED060B53EC102B9DED040B59
:101E200051EC100B06F002FC9FED6D0B53EC102BE8
:101E3000CDE908019DED080B51EC100B06F044FABA
:101E4000CDE90E0153EC192B51EC180B06F0ECFC0C
:101E500041EC1F0B53EC1A2B06F0E8FB53EC1D2B47
:101E6000CDE908019DED080B51EC100B06F0DEFBEF
:101E700041EC1E0B9FED5A0B53EC102B06F024FA8D
:101E8000CDE90C019DED0C1B9DED0E0BFFF736FF10
:101E90008DED0A0B9DED0A0B11B0BDEC108B00BD52
:101EA0002DE9F84F4FF0640A1648D0F849B0406C5D
:101EB00000904D49088800EBD0714E104A4948887F
:101EC00000EBD0714F1019E0B9B2B0B24FF47842C4
:101ED000FEF711FF0B48D0F84940456CA4EB0B000E
:101EE00000FB0AF80098281A00FB0AF946444F4400
:101EF000A34600953D48007800B900E0E4E700BF44
:101F0000BDE8F88FC00400204C6174697475646585
:101F10003A252E3566202531632020200000000060
:101F20002C050020416C7469747564653A252E3166
:101F3000666D20202020200000007A4453706565E3
:101F4000643A252E33666B6D2F68202020202000F8
:101F500020000020466978204D6F64653A257300A3
:101F600056616C696420736174656C6C6974653A60
:101F7000253032640000000056697369626C652088
:101F8000736174656C6C6974653A25303264000065
:101F900055544320446174653A253034642F25300C
:101FA00032642F2530326420202000005554432015
:101FB00054696D653A253032643A253032643A25E9
:101FC0003032642020200000282D4454FB21094099
:101FD00000000040E74D58410000000000000040B4
:101FE000000000000080664030000020010000205A
:101FF0001CB50121202001F003FE4FF4C0600090C9
:1020000001208DF8040000208DF8060003208DF8D3
:10201000050001208DF807006946044801F06EF8BC
:102020004FF4C061014801F0E5F81CBD0014024006
:102030001CB50121112001F0E3FD1C2000900020BF
:102040008DF8040003208DF8050001208DF80700AD
:102050006946354801F052F80120009002208DF8C1
:1020600007006946314801F049F81CBD10B5044627
:1020700014B101202E4908702D480078002837D06F
:102080001021294801F09CF878B10821264801F078
:1020900097F850B10421244801F092F828B10121A9
:1020A000224801F08DF8012822D10A2000F046FED6
:1020B00000201F49087010211B4801F081F808B961
:1020C000012010BD0821184801F07AF808B9022053
:1020D000F7E70421144801F073F808B90320F0E78A
:1020E0000121124801F06CF801281BD10420E8E717
:1020F00010210D4801F064F8012813D108210A4885
:1021000001F05EF801280DD10421074801F058F8CC
:10211000012807D10121054801F052F810B901202A
:10212000034908700020CCE7001002400000024084
:102130003800002010B50121454802F044FE68B186
:102140004448008840F4004042490880012140484A
:1021500002F04AFE00213E4802F006FA10BD7FB5AB
:1021600005460C460121202001F093FD0195ADF8B4
:1021700000400020ADF80800ADF802006946344880
:1021800002F069F901221146314802F005FE0121F1
:102190002F4802F0E9F937208DF80C0000208DF867
:1021A0000D0002208DF80E0001208DF80F0003A80D
:1021B00000F0B3FE7FBD7FB505460C46012102202D
:1021C00001F067FD0295ADF804400020ADF80C0069
:1021D000ADF8060001A9204802F03DF901221146A0
:1021E0001D4802F0D9FD01211B4802F0FDFD1D2014
:1021F0008DF8000001208DF8010002208DF802000A
:1022000001208DF80300684600F087FE0121124886
:1022100002F0AAF97FBD10B501210F4802F0D3FDED
:1022200080B10020FFF722FF0C49087008460078B3
:10223000022807D10A48007808B9012000E00020F0
:10224000074908700121044802F0CEFD10BD0000CE
:10225000001400403A00002000040040000000206C
:102260000100002010B540F22551584801F0FCFF54
:10227000F8B1564801F036FFC4B25548008800F462
:102280000040B0B952480088B0F5487F12DA00210A
:10229000504802F029F94E48008818B901214D48EC
:1022A00002F062F94A490888411C494A11804A49AA
:1022B0000C5405E04648008840F40040444908803A
:1022C00010BD10B588B004460121022001F098FC31
:1022D0000121880401F0DDFC3C4801F0E5FD072206
:1022E0000B213E4800F095FF07220A213B4800F0F1
:1022F00090FF4FF44060059002208DF818008DF893
:10230000190000208DF81A0001208DF81B0005A986
:10231000324800F0F3FE01940020ADF80800ADF85B
:102320000A00ADF80C00ADF810000C20ADF80E005E
:1023300001A9264801F01FFE0121244801F0A3FE57
:10234000012240F22551214801F053FF27208DF84A
:102350001C0000208DF81D008DF81E0001208DF856
:102360001F0007A800F0D9FD42F2CF016320FFF75C
:10237000F6FE0020164908800021164802F0F4F805
:1023800008B010BD0FB438B505A800901448009AE5
:10239000049903F0B5FE00200090114804F090F875
:1023A00085B200240DE000BF4021084801F046FF3F
:1023B0000028F9D00A48015D044801F08FFE601C36
:1023C00084B2AC42EFDB38BC5DF814FB004800403F
:1023D0003A00002000140040800800200004024061
:1023E000600500200246134610E010782A2805D028
:1023F0001078202802DB10787A2801DDFF20704752
:1024000010782C2801D1481EC1B2521C0029ECD1F1
:10241000D01AC0B2F3E710B50246012000E05043E5
:102420000B00A1F10104E1B2F9D110BD2DE9F34F88
:1024300081B007463C460020009083468146002636
:10244000804628E020782D2802D148F00208641C3C
:1024500020782C2802D020782A2800D11CE020786F
:102460002E2803D148F00108641C09E0207839289F
:1024700002DC2078302803DA4FF0000900260BE058
:1024800008F0010010B1701CC6B203E009F10100B0
:1024900000F0FF09641CD5E700BF08F0020000B19E
:1024A0007F1C00250EE0A9F10100401BC1B20A20EB
:1024B000FFF7B1FF795D3039009A00FB01200090F1
:1024C000681CC5B24D45EEDB052E00DD05260298E1
:1024D000067000250EE0701E401BC1B20A20FFF7F7
:1024E0009AFF09F101012944795C303900FB01BBF5
:1024F000681CC5B2B542EEDB31460A20FFF78BFF00
:10250000009901FB00BA08F0020008B1CAF1000A04
:102510005046BDE8FE8F2DE9FC5F07468A464FF026
:102520000008CDF804A0FEA1019803F0B7FF06460D
:10253000F079303800F0FF0B03213046FFF752FFEF
:102540000546FF2D04D070196946FFF76FFF3870FC
:102550004FF000096CE0F2A1019803F09FFF0646DE
:1025600000245CE0042000EB8400C1B23046FFF799
:1025700039FF0546FF2D09D070196946FFF756FF50
:10258000C1B208EB8802781C815400E049E00520C4
:1025900000EB8400C1B23046FFF724FF0546FF2D53
:1025A0000AD070196946FFF741FFC1B208EB8802F3
:1025B000781C1044417000E033E0062000EB8400FA
:1025C000C1B23046FFF70EFF0546FF2D0AD0701945
:1025D0006946FFF72BFF81B208EB8802781C104494
:1025E000418000E01DE0072000EB8400C1B23046CE
:1025F000FFF7F8FE0546FF2D0AD070196946FFF770
:1026000015FFC1B208EB8802781C1044017100E08C
:1026100007E008F1010000F0FF08601CC4B2042CC0
:10262000A0DB00BF701C019009F1010000F0FF0960
:10263000D94590DBBDE8FC9FF8B505460F46BAA129
:10264000384603F02BFF064606213046FFF7CAFE48
:102650000446FF2C05D030196946FFF7E7FE85F8E0
:102660004E0007213046FFF7BDFE0446FF2C05D083
:1026700030196946FFF7DAFE85F84F000921304628
:10268000FFF7B0FE0446FF2C05D030196946FFF76E
:10269000CDFEC5F86300F8BD2DE9F8430546884630
:1026A000A3A1404603F0FAFE064602213046FFF79A
:1026B00099FE0446FF2C05D030196946FFF7B6FE97
:1026C00085F85C00002713E0F81CC1B23046FFF724
:1026D00089FE0446FF2C08D030196946FFF7A6FE94
:1026E000C1B205F15000C15500E003E0781CC7B24B
:1026F0000C2FE9DB00BF0F213046FFF773FE0446C5
:10270000FF2C05D030196946FFF790FEA5F85D0053
:1027100010213046FFF766FE0446FF2C05D0301925
:102720006946FFF783FEA5F85F0011213046FFF7E9
:1027300059FE0446FF2C05D030196946FFF776FE96
:10274000A5F86100BDE8F8832DE9F0432DED028B7B
:1027500081B00446884678A1404603F09FFE0746B4
:1027600001213846FFF73EFE0546FF2D23D078199C
:102770006946FFF75BFE81469DF800100A20FFF7CF
:102780004AFEB9FBF0F642F21070B6FBF0F0C1B2AF
:10279000412001556420B6FBF0F06421B0FBF1F25A
:1027A00001FB1201422001556420B6FBF0F100FB51
:1027B00011614320015503213846FFF713FE0546FA
:1027C000FF2D40D078196946FFF730FE06469DF888
:1027D0000000801CC1B20A20FFF71DFEB6FBF0F01E
:1027E00060649DF80000801CC1B20A20FFF713FE50
:1027F000B6FBF0F100FB116000EE100AB8EE408A63
:1028000005210A20FFF707FE616C484300EE100A1D
:10281000F8EE400A9DF80000C0F10500C1B20A20A0
:10282000FFF7F9FD00EE100AB8EE400A20EE080AA4
:102830009FED431AC0EE011A30EEA10ABCEEC00AA9
:1028400010EE100A606404213846FFF7CBFD054600
:10285000FF2D02D0785D84F8480005213846FFF747
:10286000C1FD0546FF2D44D078196946FFF7DEFD0E
:1028700006469DF80000801CC1B20A20FFF7CBFD80
:10288000B6FBF0F044F8490F9DF80000801CC1B27F
:102890000A20FFF7C0FDB6FBF0F100FB116000EE6F
:1028A000100AB8EE400AB0EE408A05210A20FFF770
:1028B000B2FD2168484300EE100AF8EE400A9DF888
:1028C0000000C0F10500C1B20A20FFF7A4FD00EE30
:1028D000100AB8EE400A20EE080A9FED191AC0EE61
:1028E000011A30EEA10ABCEEC00A10EE100A44F83C
:1028F000490906213846FFF775FD0546FF2D02D030
:10290000785D84F84D0009213846FFF76BFD0546D8
:10291000FF2D31D078196946FFF788FD064611E092
:102920002447504753560000244750474741000072
:1029300024475047534100004750524D4300000088
:102940000000704242F21070B6FBF0F0C1B24020BD
:1029500001556420B6FBF0F06421B0FBF1F201FBFD
:1029600012013F2001556420B6FBF0F100FB11601D
:1029700000F5FA60A4F83D0001B0BDEC028BBDE8A3
:10298000F083F8B504460D46B5A1284603F086FD50
:10299000064607213046FFF725FD0746FF2F16D0D4
:1029A000F0196946FFF742FDA4F867009DF80000A2
:1029B00003280CDA9DF80000C0F10300C1B20A2020
:1029C000FFF729FDB4F867104843A4F86700F8BD85
:1029D00070B504460D4629462046FFF79CFD294662
:1029E0002046FFF729FE29462046FFF755FE2946D7
:1029F0002046FFF7A9FE29462046FFF7C2FF70BD1B
:102A000070B50446002515701D70002009E015788A
:102A1000265C354415701D78167835441D70451CAC
:102A2000A8B28842F3DB70BD70B50025002604E033
:102A3000681C85B2052000F081F98B48008800F4FD
:102A4000004008B9642DF3DBFA2D1BDA86480088B4
:102A5000C0F30E05002406E08448005DB52800D1CF
:102A600003E0601C84B2AC42F6DB00BFAC4201D193
:102A7000022608E07D49E01C085C08B9032602E054
:102A8000002600E00126002077490880304670BD0E
:102A900010B5024600200CE000BF754B1B8803F008
:102AA0004003002BF9D0135C714C241D2380431C80
:102AB00098B28842F0DB10BD70B56E4C46F2B5207E
:102AC000208040F6061060800D20A0800020C4F811
:102AD00006004FF6FF70C4F80A000020C4F80E008C
:102AE0000420A07404F114035A1E1121A01CFFF746
:102AF00087FF15212046FFF7CBFF002505E0FFF7F4
:102B000093FF00B903E0681CC5B2062DF7DB00BFD8
:102B1000062D01D1012070BD0020FCE770B50546EF
:102B20000E46544C46F2B52020804FF483706080EE
:102B30000820A080F020A071E5710120207266724B
:102B4000A072E0722073607304F10F035A1E0C210F
:102B5000A01CFFF755FF10212046FFF799FFFFF754
:102B600063FF70BD70B50546424C46F2B52020802B
:102B7000062060801420A0800120A0710020E07158
:102B800020814FF40D60C4F80A00C4F80E500720ED
:102B90006082A0820020E082208304F11B035A1E81
:102BA0001821A01CFFF72CFF1C212046FFF770FF07
:102BB000C82000F0C3F82846FFF783FBFFF734FF77
:102BC00070BD2DE9F04105460E461746294C46F2E8
:102BD000B520208040F2067060801420A080C4F8E8
:102BE0000650C4F80A60A7730020E0732074607474
:102BF0004FF44D7060820020A082C4F8160004F1EA
:102C00001B035A1E1821A01CFFF7FAFE1C212046A8
:102C1000FFF73EFFFFF708FFBDE8F08170B50546FE
:102C20000E46144CC82D01DA012070BD46F2B520C5
:102C3000208040F6060060800620A080E58001200C
:102C40002081668104F10D035A1E0A21A01CFFF7A2
:102C5000D7FE0E212046FFF71BFFFFF7E5FEE4E756
:102C600024475056544700003A00002080080020B6
:102C7000004800406005002010B504466FF00400D5
:102C800000F098F9E11704EB5171C1F3C701394A1B
:102C900011701046007800EB4001C1EBC0104FF6F8
:102CA000FF7101EAC0003449088010BD0146314A75
:102CB00012784A434FF0E0235A6100229A611A4683
:102CC000126942F001021A6100BF4FF0E022106960
:102CD00000F001021AB100F48032002AF5D04FF062
:102CE000E022126922F001024FF0E0231A61002273
:102CF0009A6170470146204A12884A434FF0E02308
:102D00005A6100229A611A46126942F001021A6160
:102D100000BF4FF0E022106900F001021AB100F488
:102D20008032002AF5D04FF0E022126922F0010231
:102D30004FF0E0231A6100229A61704770B5044693
:102D40004FF4077094FBF0F0C6B24FF4077094FB99
:102D5000F0F100FB114085B205E04FF40770FFF77A
:102D6000C9FF701EC6B2002EF7D115B12846FFF775
:102D7000C1FF70BD3C0000203E000020014600BFA6
:102D8000704700BF4E4A128802F04002002AF9D074
:102D9000C2B24B4B9A80704710B588B004460121EF
:102DA000084600F02DFF0121102000F083FF0722CC
:102DB0000921444800F02DFA07220A21414800F079
:102DC00028FA4FF4C060069002208DF81C008DF8A0
:102DD0001D0000208DF81E0001208DF81F0006A99F
:102DE000384800F08BF902940020ADF80C00ADF8E3
:102DF0000E00ADF81000ADF814000C20ADF8120074
:102E000002A92F4801F0B7F801212D4801F03BF944
:102E100040212B4801F01FFA012240F22551284899
:102E200001F0E7F925208DF8040003208DF8050056
:102E30008DF8060001208DF8070001A800F06DF85C
:102E400008B010BD10B540F225511D4801F00CFA34
:102E500010B31B4801F046F9C4B21B48008800F4C7
:102E60000040C8B91848008800F4804060B10A2CBE
:102E700003D000201449088020E01348008840F463
:102E800000401149088019E00D2C06D10E48008839
:102E900040F480400C49088010E00B480088C0F3E3
:102EA0000D000A490C5408480088401C0649088057
:102EB00008460088C72801DD0020088010BD0000FA
:102EC000001001400000024044000020A00B002040
:102ED0000948804709480047FEE7FEE7FEE7FEE7AE
:102EE000FEE7FEE7FEE7FEE7FEE7FEE704480549EA
:102EF000054A064B704700003D050008890100089F
:102F0000C80C0020C8120020C80E0020C80E0020E7
:102F100032490143324A1160704770B500210023E5
:102F20000F22C4781CB32E4C246804F4E064C4F56A
:102F3000E064C4F30721C1F10404E3B20A41447818
:102F40009C40E1B28478144021430C07210E254CAB
:102F500005786155047804F01F050124AC4005781C
:102F60006D11AD0005F1E025C5F8004109E00478D8
:102F700004F01F050124AC401B4D0678761145F87E
:102F8000264070BD194A0A400243154B1B1F1A60A8
:102F9000704739B1124A121D12680243104B1B1DB3
:102FA0001A6006E00E4A121D126882430C4B1B1D6C
:102FB0001A607047042808D14FF0E021096941F0F8
:102FC00004014FF0E022116107E04FF0E0210969B0
:102FD00021F004014FF0E022116170470000FA0572
:102FE0000CED00E000E400E080E100E080FFFF1F66
:102FF00010B504469848844208D10121084600F0E3
:103000006AFE0021012000F066FE76E093488442CB
:1030100008D10121022000F05EFE0021022000F014
:103020005AFE6AE08E48844208D10121042000F053
:1030300052FE0021042000F04EFE5EE089488442EA
:1030400008D10121082000F046FE0021082000F0F0
:1030500042FE52E08448844208D10121102000F051
:103060003AFE0021102000F036FE46E07F48844200
:1030700008D10121202000F02EFE0021202000F0A8
:103080002AFE3AE07A48844208D10121402000F02B
:1030900022FE0021402000F01EFE2EE075488442F2
:1030A00008D10121802000F016FE0021802000F0D0
:1030B00012FE22E07048844208D10121801500F000
:1030C0000AFE0021A01500F006FE16E06B488442BF
:1030D00008D10121401500F0FEFD0021601500F02F
:1030E000FAFD0AE06648844207D10121001500F08C
:1030F000F2FD0021201500F0EEFD10BDF0B50A46EE
:1031000000210023002400BF3DE0012505FA01F362
:10311000156805EA03049C4234D105684F00032674
:10312000BE40B543056015794E00B540066835438D
:1031300005601579012D02D01579022D16D185680B
:103140004F000326BE40B543856055794E00B5401B
:10315000866835438560456801268E40B5434560E5
:10316000456896798E40B6B235434560C5684F00D4
:103170000326BE40B543C560D5794E00B540C6684C
:103180003543C560491C1029BFD3F0BD4FF6FF7110
:1031900001600021017141718171C171704708B5F1
:1031A0004FF480320092009A0A430092009AC26162
:1031B000C161009AC261C2690092C269009208BDF1
:1031C0000246002013690B400BB1012000E00020F3
:1031D00070470146086980B2704702460020536973
:1031E0000B400BB1012000E0002070470146486908
:1031F00080B2704701837047418370470AB10183F1
:1032000000E0418370474161704742694A40426132
:103210007047F0B5002300244D07ED0E02FA05F3C8
:10322000CE1000F1200555F826504E07F70E0F2658
:10323000BE40B543CF1000F1200646F82750CE100F
:1032400000F1200555F8265045EA0304CE1000F1A0
:10325000200545F82640F0BD000002400004024071
:1032600000080240000C024000100240001402401E
:1032700000180240001C02400020024000240240CE
:103280000028024030B943F2DB028100A1F1C041C5
:103290000A6005E043F2D2028100A1F1C0410A6058
:1032A0006FF07042411C8900A1F1C0410A608100A9
:1032B000A1F1C041C1F804217047D0E901121143C6
:1032C000C268114302691143426911438269114383
:1032D000C2691143026A1143426A1143826A11436F
:1032E000C26A1143026B114302689200A2F1C0420C
:1032F0001160816808290BD101688900A1F1C041E2
:10330000096841F0400201688900A1F1C0410A60EA
:10331000416B0968426B526841EA0211426B926844
:1033200041EA0221426B928941EA0241426B128AD0
:1033300041EA0251426B127D41EA0261426B92699D
:1033400011430268521C9200A2F1C0421160C16A8E
:10335000B1F5804F1BD1816B0968826B526841EADD
:103360000211826B926841EA0221826B128A41EA61
:103370000251826B127D41EA0261826B92691143B4
:1033800002689200A2F1C042C2F8041107E06FF097
:10339000704201688900A1F1C041C1F80421704761
:1033A000002101600221416000218160C160016152
:1033B00041618161C16101624FF480514162490004
:1033C00081620021C1620163F849416381637047F2
:1033D00051B18200A2F1C042126842F001038200A2
:1033E000A2F1C042136009E08200A2F1C04212685B
:1033F000EF4B1A408300A3F1C0431A6070471028B6
:103400000AD118214FF020421166402151664FF039
:10341000FC319166D16610E01821E64A1160402126
:103420004FF02042C2F884104FF0FC31E14A0832DC
:1034300011604FF02042C2F88C10704730B5002167
:1034400000220023446844F0080485682C43C568C2
:103450002C4305692C43456944EA4524856944EABF
:103460004531C4692468C5696D6844EA0524C569A5
:103470002D8944EA0544C5692D7B44EA0562046A46
:103480002468056A6D6844EA0524056A2D8944EAC2
:103490000544056A2D7B44EA05630468102C05D1B8
:1034A0004FF020442166A266E36608E0C14C21602B
:1034B0004FF02044C4F88820BE4C0C34236030BD4B
:1034C00010210160002141608160C16001614161A2
:1034D0008161FC21C2691160C2695160C269916059
:1034E000C269D160026A1160026A5160026A916029
:1034F000026AD160704799B1102808D14FF020427C
:10350000126E42F004024FF020431A661DE0A94AF1
:10351000126842F004024FF02043C3F8802014E008
:10352000102809D14FF02042126EA14BDB1E1A4029
:103530004FF020431A6608E09E4A12689C4BDB1E3F
:103540001A404FF02043C3F88020704799B11028EB
:1035500008D14FF02042126E42F040024FF020435B
:103560001A661DE0934A126842F040024FF0204371
:10357000C3F8802014E0102809D14FF02042126EC9
:103580008B4B3F3B1A404FF020431A6608E0894AB4
:103590001268874B3F3B1A404FF02043C3F880200E
:1035A000704701460020102903D14FF02042506F90
:1035B00002E0804A14321068704718207D4920319B
:1035C000086000200906C1F8A4004FF0FC307949DA
:1035D00028310860091D0860091D086070470168EE
:1035E00041F01001426841EA4221826841EA4231D9
:1035F000704A20321160C1680968C268526841EAA5
:103600000221C268128941EA0241C268127B41EA82
:103610000261684A283211600169096802695268CA
:1036200041EA02210269128941EA02410269127BE0
:1036300041EA02615F4A2C321160416909684269BE
:10364000526841EA02214269128941EA0241426913
:10365000127B41EA02614FF02042C2F8B01070477D
:103660000021016041608160FC21C2681160C26874
:103670005160C2689160C268D160026911600269DC
:103680005160026991600269D160426911604269CA
:103690005160426991604269D160704748B14549C3
:1036A0002031096841F004014FF02042C2F8A01017
:1036B00009E04049203109683D4AD21E11404FF0CF
:1036C0002042C2F8A010704710B5F2B1102807D1FF
:1036D0004FF020435B6E0B434FF02044636632E0B3
:1036E000B0F5807F08D1334B1B1D1B680B434FF097
:1036F0002044C4F8843026E02E4B24331B680B434F
:103700004FF02044C4F8A4301DE0102807D14FF03A
:1037100020435B6E8B434FF02044636613E0B0F5AB
:10372000807F08D1234B1B1D1B688B434FF0204427
:10373000C4F8843007E01F4B24331B688B434FF0E1
:103740002044C4F8A43010BD10B502460020002368
:10375000102A03D14FF02044636E09E0B2F5807F58
:1037600003D1144C241D236802E0124C2434236836
:1037700003EA01040CB1012000E0002010BD102874
:1037800007D14FF02042526E8A434FF020435A66D1
:1037900019E0B0F5807F0FD1064A121D12688A43E6
:1037A0004FF02043C3F884200DE00000ACAD0008CA
:1037B000FEFF0F00800000A0234A12688A434FF0EA
:1037C0002043C3F8A420704770B5024600200023B0
:1037D00000240025102A03D14FF02046736E08E024
:1037E000B2F5807F03D1184E203E336801E0164EBB
:1037F000336803EA010403EAD10514B10DB10120D5
:1038000000E0002070BD102808D14FF02042526E19
:1038100022EAD1024FF020435A6614E0B0F5807FCF
:1038200009D1094A203A126822EAD1024FF0204316
:10383000C3F8842007E0044A126822EAD1024FF05C
:103840002043C3F8A4207047A40000A0F9480068F2
:1038500040F00100F74908600020F649083108608F
:10386000F4480068F4490840F2490860F348091D2B
:103870000860F348EF4984310860F0481038091DAA
:103880000860EC48006820F48020EA4908600020C5
:10389000E8490C310860E7498C3108607047002125
:1038A000E44A921C117011460870704710B5014629
:1038B0000022002300204A11012A02D1DD4C236896
:1038C00008E0022A03D1DB4C7034236802E0D94CB3
:1038D0007434236801F01F02012494401C400CB191
:1038E000012000E0002010BD38B500200090002429
:1038F000002500BF3120FFF7D9FF05460098401C86
:1039000000900098B0F5A04F01D0002DF2D03120EA
:10391000FFF7CCFF08B1012400E00024204638BDA9
:1039200001460020C34A106820F0F80040EAC100B8
:1039300010607047C349086070470021BD4A70326B
:1039400011701170012802D004280AD104E001216D
:10395000B84A7032117005E00521B64A7032117014
:1039600000E000BF00BF7047B7490860704770B5FE
:10397000049C41EA82150126C6EB530645EA06453A
:10398000054345EA0465AB4E361D356070BDAD4953
:1039900008667047820142EA0172A64B84331A60BE
:1039A0007047A8498866704710B5830143EA0163F0
:1039B00043EA02739F4C8834236010BDA149086715
:1039C0007047A049C864704702460020994B0833ED
:1039D000186820F0EC6042EA01031843954B083365
:1039E0001860704702460020924B0833186820F098
:1039F000784042EA010318438E4B08331860704741
:103A0000014600208B4A0832106820F0030008436A
:103A10001060704787480830006800F00C0070475D
:103A200001460020834A0832106820F0F000084365
:103A300010607047014600207E4A0832106820F46A
:103A4000E05008431060704701460020794A083270
:103A5000106820F4604040EAC10010607047F0B583
:103A6000002100220024022500260223714F08377E
:103A70003F6807F00C0121B1042905D0082937D18E
:103A800005E0724F076036E0714F076033E0694F21
:103A90003F1D3F68C7F38056664F3F1D3F6807F0E4
:103AA0003F036EB16A4FB7FBF3F7DFF888C10CF143
:103AB000040CDCF800C0CCF3881C07FB0CF40CE011
:103AC000624FB7FBF3F7DFF86CC10CF1040CDCF8C4
:103AD00000C0CCF3881C07FB0CF4564F3F1D3F6819
:103AE000C7F301477F1C7D00B4FBF5F7076002E0D8
:103AF000564F076000BF00BF4E4F08373F6807F0C2
:103B0000F0010909534F7A5C0768D7404760494F75
:103B100008373F6807F4E051890A4E4F7A5C4768DE
:103B2000D7408760434F08373F6807F46041490B2F
:103B3000484F7A5C4768D740C760F0BD002100F469
:103B40004072B2F5407F0AD13A4A0832116821F436
:103B5000F811414A02401143364A08321160354A91
:103B600070321268C0F30B031A43324B70331A6081
:103B70007047354944390860704733494039086017
:103B8000704736490860704701460020294A8C3248
:103B9000106820F01F004A1E1043264A8C32106025
:103BA000704701460020234A8C32106820F4F850F8
:103BB0004A1E40EA02201F4A8C32106070470146BC
:103BC00000201C4A8C32106820F44010084310601A
:103BD000704701460020174A8C32106820F44000DC
:103BE00008431060704701460020124A8C3210686A
:103BF00020F440300843106070471949086070474E
:103C000039B10C4A3032126802430A4B30331A6021
:103C100006E0084A303212688243064B30331A609D
:103C20007047F9B1034A343212680243014B34330E
:103C30001A601CE000380240FFFFF6EA1030002452
:103C40000030002000004742800E47420024F4006C
:103C500000127A0046000020FFFCFF0F5C01474283
:103C6000E01147428F4A126882438E4B1A607047B8
:103C700039B18C4A121D126802438A4B1B1D1A600F
:103C800006E0884A121D12688243864B1B1D1A608B
:103C9000704739B1834A0C3212680243814B0C33AE
:103CA0001A6006E07F4A0C32126882437D4B0C3367
:103CB0001A60704739B17B4A103212680243794B5F
:103CC00010331A6006E0774A103212688243754B4F
:103CD00010331A60704739B1724A243A12680243AD
:103CE000704B243B1A6006E06E4A243A1268824305
:103CF0006C4B243B1A60704739B16A4A203A12680B
:103D00000243684B203B1A6006E0664A203A12687C
:103D10008243644B203B1A60704739B1614A1C3AB8
:103D2000126802435F4B1C3B1A6006E05D4A1C3A76
:103D3000126882435B4B1C3B1A60704739B1594A89
:103D4000143A12680243574B143B1A6006E0554A76
:103D5000143A12688243534B143B1A60704739B1CE
:103D6000504A103A126802434E4B103B1A6006E06C
:103D70004C4A103A126882434A4B103B1A60704713
:103D800039B1484A1C3212680243464B1C331A6050
:103D900006E0444A1C3212688243424B1C331A60CC
:103DA000704739B13F4A2032126802433D4B2033FD
:103DB0001A6006E03B4A203212688243394B2033B6
:103DC0001A60704739B1374A243212680243354BC2
:103DD00024331A6006E0334A243212688243314B9E
:103DE00024331A60704739B12E4A2C3212680243CC
:103DF0002C4B2C331A6006E02A4A2C32126882437C
:103E0000284B2C331A60704739B1264A3032126879
:103E10000243244B30331A6006E0224A30321268E3
:103E20008243204B30331A607047012808D11D4966
:103E30003C31096841F008011A4A3C32116007E040
:103E400018493C31096821F00801164A3C321160DA
:103E5000704739B1134A273A12780243114B273B76
:103E60001A7006E00F4A273A127882430D4B273B1F
:103E70001A7070470B484030006840F08070094964
:103E800040310860704701460020064A283A12680F
:103E90000A400AB1012000E000207047014926399C
:103EA000087070473438024010B50446FA4884421E
:103EB00008D101211020FFF752FF00211020FFF749
:103EC0004EFF57E0F548844209D101214804FFF72D
:103ED00035FF00214FF40030FFF730FF4AE0F04893
:103EE000844209D101218804FFF728FF00214FF403
:103EF0008020FFF723FF3DE0EA48844209D10121F9
:103F0000C804FFF71BFF00214FF40020FFF716FF46
:103F100030E0E548844209D101210805FFF70EFF92
:103F200000214FF48010FFF709FF23E0DF488442AF
:103F300008D101212020FFF712FF00212020FFF7E8
:103F40000EFF17E0DA48844209D101218807FFF704
:103F5000F5FE00214FF08040FFF7F0FE0AE0D54863
:103F6000844207D101214005FFF7E8FE00216005EA
:103F7000FFF7E4FE10BD2DE9FF4705460E4600247D
:103F8000A14600BFA046B08900B100BF2C8A24F42E
:103F90004054F08804432C82AC8941F20C60844385
:103FA000B08831890843718908430443AC81AC8AE5
:103FB00024F44074B0890443AC826846FFF74FFD97
:103FC000B548854202D0B948854202D1DDF80C904F
:103FD00001E0DDF80890A88900F4004040B109EB49
:103FE000C90000EB091031684900B0FBF1F707E0A8
:103FF00009EBC90000EB091031688900B0FBF1F74B
:104000006420B7FBF0F004012009642101FB107863
:10401000A88900F4004040B1322000EBC800B0FB9A
:10402000F1F000F00700044308E0322000EB081034
:104030006421B0FBF1F000F00F0004432C81BDE8D7
:10404000FF874FF41651016000218180C1800181FA
:104050000C21418100218181704710B5024600206A
:10406000108A20F470600B884C8823438C8823438B
:10407000CC8823431843108210BD00210180418069
:104080008180C180704721B1828942F400528281CF
:1040900004E082894DF6FF731A4082817047028BDB
:1040A00002F47F420283028B0A430283704721B1EC
:1040B000828942F40042828103E08289C2F30E02C7
:1040C0008281704721B1828A42F40062828204E0D8
:1040D000828A4FF2FF731A4082827047C1F308024E
:1040E0008280704701468888C0F308007047028AC2
:1040F0004FF6F0731A400282028A0A430282704726
:1041000021B1828942F00202828104E082894FF665
:10411000FD731A408281704782894FF2FF731A4003
:10412000828182890A4382817047028A4FF6DF7357
:104130001A400282028A0A430282704721B1028A2F
:1041400042F48042028204E0028A4BF6FF731A4076
:1041500002827047818941F001018181704721B15C
:10416000828A42F00802828204E0828A4FF6F77364
:104170001A4082827047028BD2B20283028B42EADB
:1041800001220283704721B1828A42F0200282829A
:1041900004E0828A4FF6DF731A408282704721B1B1
:1041A000828A42F01002828204E0828A4FF6EF7324
:1041B0001A4082827047828A4FF6FB731A408282CD
:1041C000828A0A438282704721B1828A42F00202C7
:1041D000828204E0828A4FF6FD731A408282704721
:1041E0001AB1838A0B43838202E0838A8B438382E2
:1041F0007047F0B50346002400260025002040F655
:104200006A17B94200D100BF1846C1F3421401F049
:104210001F06012707FA06F5012C01D10C3004E036
:10422000022C01D1103000E014301AB107682F437E
:10423000076002E00768AF430760F0BD0246002058
:10424000B1F5007F00D100BF13880B400BB10120F6
:1042500000E00020704701F40072B2F5007F00D149
:1042600000BFCA430280704770B502460024002395
:104270000025002040F66A16B14200D100BFC1F30C
:10428000421501F01F03012606FA03F3012D13D195
:104290009689334017E000000010014000440040C0
:1042A00000480040004C0040005000400014014015
:1042B00000780040007C0040022D02D1168A334075
:1042C00001E0968A33400C12012606FA04F416889F
:1042D000344013B10CB1012000E0002070BD10B5D6
:1042E0000022002340F66A14A14200D100BF0A1246
:1042F00001249440A3B2DC43048010BD10B50446F1
:10430000FE48844208D101210846FFF728FD00211C
:104310000120FFF724FD9DE0B4F1804F08D1012179
:104320000846FFF70BFD00210120FFF707FD91E094
:10433000F348844208D101210220FFF7FFFC00214D
:104340000220FFF7FBFC85E0EE48844208D1012102
:104350000420FFF7F3FC00210420FFF7EFFC79E0D5
:10436000E948844208D101210820FFF7E7FC002139
:104370000820FFF7E3FC6DE0E448844208D1012106
:104380001020FFF7DBFC00211020FFF7D7FC61E0D5
:10439000DF48844208D101212020FFF7CFFC002113
:1043A0002020FFF7CBFC55E0DA48844208D10121F8
:1043B0000220FFF7D4FC00210220FFF7D0FC49E0E7
:1043C000D548844209D101210804FFF7C8FC002127
:1043D0004FF48030FFF7C3FC3CE0D048844209D161
:1043E00001214804FFF7BBFC00214FF40030FFF728
:1043F000B6FC2FE0CA48844209D101218804FFF7A6
:10440000AEFC00214FF48020FFF7A9FC22E0C54854
:10441000844208D101214020FFF790FC0021402078
:10442000FFF78CFC16E0C048844208D101218020AF
:10443000FFF784FC00218020FFF780FC0AE0BB48E6
:10444000844207D101218015FFF778FC0021A015D7
:10445000FFF774FC10BD00220288A84B98420ED0D2
:10446000AC4B98420BD0B0F1804F08D0A44B98428F
:1044700005D0A44B984202D0A34B984204D14FF6EA
:104480008F731A404B881A43A04B984207D0A04B19
:10449000984204D04FF6FF431A400B891A4302801A
:1044A0004B68C3620B880385944B984202D0994BAA
:1044B000984201D18B7A03860123838270474FF0A3
:1044C000FF3141600021018001814180817270478C
:1044D0000185828270470A46002101884FF68F735A
:1044E000194011430180704741627047C1627047B3
:1044F0000146486A70470146088D704721B102881D
:1045000042F00202028004E002884FF6FD731A4076
:104510000280704721B1028842F00402028004E068
:1045200002884FF6FB731A400280704721B102885F
:1045300042F08002028004E002884FF67F731A4046
:104540000280704702884FF6F7731A400280028893
:104550000A430280704702884FF6FF431A400280E8
:1045600002880A430280704721B1028842F00102AA
:10457000028004E002884FF6FE731A400280704702
:1045800070B5002400220023058C4FF6FE763540DE
:104590000584028C8388048B4FF68F752C40B51EE2
:1045A0002C400D882C43751E2A408D892A434D8846
:1045B0002A43524DA84202D0564DA84213D14FF67D
:1045C000F7752A40CD892A434FF6FB752A408D881E
:1045D0002A434FF6FF652B404FF6FF552B400D8ABF
:1045E0002B434D8A2B43838004838D68456302846B
:1045F00070BD70B5002400220023058C4FF6EF76C5
:1046000035400584028C8388048B48F6FF752C4066
:104610004FF6FF452C400D884FF6FF7606EA05253C
:104620002C434FF6DF752A408D8906EA05152A438B
:104630004D8806EA05152A43304DA84202D0354D73
:10464000A8421DD14FF67F752A40CD894FF6FF76DF
:1046500006EA05152A434FF6BF752A408D8806EAFB
:1046600005152A434FF6FF352B404FF2FF752B40BF
:104670000D8A06EA85052B434D8A06EA85052B43FC
:10468000838004838D688563028470BD70B50024C7
:1046900000220023058C4FF6FF6635400584028C0E
:1046A0008388848B4FF68F752C404FF6FC752C4019
:1046B0000D882C434FF6FF552A408D894FF6FF7623
:1046C00006EA05252A434D8806EA05252A430B4DAF
:1046D000A84202D00F4DA84238D14FF2FF752A40B0
:1046E000CD894FF6FF7606EA05252A434FF6FF35BA
:1046F0002A408D8806EA05252A4319E0000001407A
:104700000004004000080040000C00400010004081
:1047100000140040000401400040014000440140FA
:104720000048014000180040001C004000200040EC
:104730004EF6FF752B404DF6FF752B400D8A06EAAD
:1047400005152B434D8A06EA05152B438380848388
:104750008D68C563028470BD70B5002200230024FB
:10476000058C4EF6FF7635400584038C8488828B59
:1047700048F6FF752A404FF6FF452A400D884FF650
:10478000FF7606EA05252A434DF6FF752B408D89F5
:1047900006EA05352B434D8806EA05352B43FE4DC9
:1047A000A84202D0FD4DA84208D14BF6FF752C401F
:1047B0000D8A4FF6FF7606EA85152C4384808283A6
:1047C0008D680564038470BD002101804180818073
:1047D00081608181C18101824182704770B5034649
:1047E000002000241846183001258D40ACB21D8CE5
:1047F000A5431D8409B108290AD100EB61000568B1
:104800004FF68F76354005600568154305600FE06B
:104810000D1FC5F34E052844056848F6FF76354060
:10482000056005684FF6FF7606EA02263543056007
:1048300070BD4163704781637047C1637047016415
:1048400070470A460021018B4FF68F7319401143C0
:10485000018370470A460021018B48F6FF73194017
:104860004FF6FF7303EA02231943018370470A4698
:104870000021818B4FF68F7319401143818370475C
:104880000A460021818B48F6FF7319404FF6FF73EB
:1048900003EA02231943818370470A460021018BF2
:1048A0004FF6F77319401143018370470A46002100
:1048B000018B4FF2FF7319404FF6FF7303EA022397
:1048C0001943018370470A460021818B4FF6F77325
:1048D00019401143818370470A460021818B4FF2B2
:1048E000FF7319404FF6FF7303EA022319438183D4
:1048F00070470A460021018B4FF6FB7319401143A4
:10490000018370470A460021018B4FF6FF3319409F
:104910004FF6FF7303EA02231943018370470A46E7
:104920000021818B4FF6FB7319401143818370473F
:104930000A460021818B4FF6FF3319404FF6FF7373
:1049400003EA02231943818370470A460021018B41
:104950004FF67F7319401143018370470A460021C7
:10496000018BC1F30E014FF6FF7303EA02231943D3
:10497000018370470A460021818B4FF67F731940EF
:104980001143818370470A460021818BC1F30E01D8
:104990004FF6FF7303EA02231943818370470A46E7
:1049A0000021018C4FF6FD731940114301847047BB
:1049B0000A460021018C4FF6F77319401143018418
:1049C00070470A460021018C4FF6DF7319404FF6FD
:1049D000FF7303EA02131943018470470A4600215A
:1049E000018C4FF67F7319404FF6FF7303EA0213F1
:1049F0001943018470470A460021018C4FF6FF538A
:104A000019404FF6FF7303EA0223194301847047EC
:104A10000A460021018C4FF2FF7319404FF6FF73D5
:104A200003EA02231943018470470A460021018CDE
:104A30004DF6FF7319404FF6FF7303EA0233194333
:104A40000184704730B5002301248C40A3B2048C4C
:104A50009C430484048C02FA01F5ADB22C43048417
:104A600030BD30B5002304248C40A3B2048C9C4399
:104A70000484048C02FA01F5ADB22C43048430BDE9
:104A8000828B4FF2FF331A408283828B4FF6FF7383
:104A900003EA01231A4382837047F0B50C4615469A
:104AA000002100220026078C4EF6FF7C07EA0C0747
:104AB0000784818B028C4FF6FF7707EA043640F6B5
:104AC000FF4739404FF6FF7707EA052739434FF68E
:104AD000FF7707EA0337394345F6FF773A4046F454
:104AE00080573A4381830284F0BD828B4FF6F37383
:104AF0001A408283828B0A4382837047F0B50C464A
:104B00001546002100220026078C4FF6FF6C07EAAD
:104B10000C070784818B028C4FF6FF7707EA042687
:104B20004FF60C7739404FF6FF7707EA03172F430C
:104B300039434FF2FF573A4046F480773A43818336
:104B40000284F0BD028B4FF2FF331A400283028BC6
:104B50004FF6FF7303EA01231A4302837047F0B54F
:104B60000C461546002100220026078C4FF6EF7CEC
:104B700007EA0C070784018B028C4FF6FF7707EAE0
:104B8000041640F6FF4739404FF6FF7707EA033730
:104B900039434FF6FF7703E0000001400004014075
:104BA00007EA052739434FF65F773A4046F010078A
:104BB0003A4301830284F0BD028B4FF6F3731A402F
:104BC0000283028B0A4302837047F0B50C461546F8
:104BD00000210022068C4FF6FE773E400684018BB2
:104BE000028C4FF60C7631407E1C06EA03162E43EB
:104BF00031434FF6F576324044F0010632430183EB
:104C00000284F0BD70B505460C46208850B9238952
:104C1000A28861882846FFF7D8FFE1882846FFF779
:104C2000CBFF25E0208804280AD12389A288618847
:104C30002846FFF794FFE1882846FFF783FF17E037
:104C4000208808280AD12389A28861882846FFF78E
:104C500055FFE1882846FFF748FF09E02389A2882D
:104C600061882846FFF719FFE1882846FFF708FF0B
:104C700070BD002101804180012181800021C1801F
:104C8000018170472DE9F04105460C4600260127B9
:104C9000608808B9022600E00026A088012801D11A
:104CA000022700E001272088A0B92389A288618813
:104CB0002846FFF78AFFE1882846FFF77DFF238912
:104CC0003A4631462846FFF74AFFE1882846FFF773
:104CD00039FF13E02389A28861882846FFF73FFF48
:104CE000E1882846FFF72EFF23893A4631462846B9
:104CF000FFF76BFFE1882846FFF75EFFBDE8F08114
:104D00000146486B70470146886B70470146C86B87
:104D100070470146086C70470A884B881A438B8895
:104D20001A43CB881A430B891A434B891A438B8940
:104D30001A43A0F8442070470021018041808180FF
:104D4000C180018141818181704731B1B0F8442037
:104D500042F40042A0F8442005E0B0F84420C2F339
:104D60000E02A0F84420704721B1828842F004026C
:104D7000828004E082884FF6FB731A40828070477D
:104D800021B1828842F00102828004E082884FF6DD
:104D9000FE731A40828070471AB183890B43838166
:104DA00002E083898B43838170478182704702468A
:104DB0000020138A0B400BB1012000E00020704757
:104DC000CA430282704730B5024600200023002407
:104DD000158A05EA0103958905EA010413B10CB1AE
:104DE000012000E0002030BDCA430282704741EA42
:104DF0000203A0F8483070471AB183890B438381BE
:104E000002E083898B438381704721B1828842F01D
:104E10000802828004E082884FF6F7731A4082808D
:104E2000704701894FF6F8721140018170470A46B8
:104E3000002101894FF68F7319401143018170479A
:104E400030B504460D4629462046FFF7F0FF20897D
:104E500040F00700208130BD2DE9F04104460D46A9
:104E600016461F46602D06D13B460122314620469C
:104E7000FFF775FE05E03B46012231462046FFF76D
:104E8000A4FE29462046FFF7D2FF208940F0070004
:104E90002081BDE8F08130B50C4600210189C9B2FE
:104EA0004FF6FF7505EA0325154325432943018184
:104EB00030BD2DE9F04105460E46174698460024C0
:104EC00043463A4631462846FFF7E5FF2C894FF620
:104ED000F870044044F007044FF68F70044044F02B
:104EE00070042C81BDE8F081F0B504460D461646ED
:104EF0001F463B46324629462046FFF7CCFF208915
:104F000040F480402081F0BD82884FF68F731A40B4
:104F1000828082880A438280704702894FF6F87344
:104F20001A40028102890A430281704702894FF6C2
:104F30007F731A40028102890A4302817047F0B5EB
:104F40000C4615461E460021002200230189028BD3
:104F5000038C4FF6F877394021434FF6FC473A402F
:104F600040F201173A434FF6DD773B404FF6FF77AB
:104F700007EA06172F433B43018102830384F0BDF8
:104F800021B1828842F08002828004E082884FF65C
:104F90007F731A4082807047A0F85010704700005D
:104FA00010B58CB004461E230BAA03A9204600F0BE
:104FB000A9FE0090009810B101200CB010BD9DF822
:104FC0002C00044400200B900EE040489DF82C205B
:104FD00050F8221003A800F0FDFD00B908E09DF88C
:104FE0002C00401CC0B20B909DF82C000728ECD37D
:104FF00000BF9DF82C00072863D2DFE800F004050D
:105000003C5E6564630000BF31A001F08BF831A005
:1050100001F088F83FA001F085F84EA001F082F879
:105020005CA001F07FF86BA001F07CF879A001F0A2
:1050300079F886A001F076F88BA001F073F890A0C3
:1050400001F070F894A001F06DF899A001F06AF8F1
:105050009EA001F067F8A4A001F064F8B0A001F0F0
:1050600061F8BDA001F05EF8C8A001F05BF8D4A023
:1050700001F058F89AE216A001F054F8E0A001F00F
:1050800051F800200B900EE0ED4800689DF82C20B0
:1050900000EBC2004168EBA001F044F89DF82C0041
:1050A000401CC0B20B90E648007D9DF82C10884251
:1050B000EADC07A001F036F878E205A001F032F84A
:1050C000C4E171E245E219E2ECE100005800002081
:1050D0000D0A00002D2D2D2D2D2D2D2D2D2D2D2D9D
:1050E0002D2D2D2D2D2D2D2D2D2D2D2D55534D416E
:1050F00052542056332E312D2D2D2D2D2D2D2D2D6D
:105100002D2D2D2D2D2D2D2D2D2D2D2D2D2D2D20DC
:105110000D0A00002020202055534D415254CAC78B
:10512000D3C9414C49454E54454BBFAAB7A2B5C45B
:10513000D2BBB8F6C1E9C7C9B5C4B4AEBFDAB5F7DA
:10514000CAD4BBA5BDBBD7E9BCFE2CCDA8B9FD20F8
:105150000D0A0000CBFC2CC4E3BFC9D2D4CDA8B942
:10516000FDB4AEBFDAD6FACAD6B5F7D3C3B3CCD046
:10517000F2C0EFC3E6B5C4C8CEBACEBAAFCAFD2CF2
:10518000B2A2D6B4D0D02ED2F2B4CB2CC4E3BFC9D5
:105190000D0A0000D2D4CBE6D2E2B8FCB8C4BAAF54
:1051A000CAFDB5C4CAE4C8EBB2CECAFD28D6A7B3BF
:1051B000D6CAFDD7D62831302F3136BDF8D6C6290C
:1051C000A1A2D7D6B7FBB4AEA1A2BAAFCAFDC8EBB5
:1051D0000D0A0000BFDAB5D8D6B7B5C8D7F7CEAA42
:1051E000B2CECAFD292CB5A5B8F6BAAFCAFDD7EE26
:1051F000B6E0D6A7B3D63130B8F6CAE4C8EBB2CE23
:10520000CAFD2CB2A2D6A7B3D6BAAFCAFDB7B52095
:105210000D0A0000BBD8D6B5CFD4CABE2ED0C2D49A
:10522000F6B2CECAFDCFD4CABEBDF8D6C6C9E8D63E
:10523000C3B9A6C4DC2CD0C2D4F6BDF8D6C6D7AA52
:10524000BBBBB9A6C4DC2E0D0A000000BCBCCAF56D
:10525000D6A7B3D63A7777772E6F70656E6564768A
:105260002E636F6D0D0A000055534D415254D3D03B
:1052700037B8F6CFB5CDB3C3FCC1EE3A0D0A000086
:105280003F3A202020202020BBF1C8A1B0EFD6FA61
:10529000D0C5CFA20D0A000068656C703A202020AE
:1052A000BBF1C8A1B0EFD6FAD0C5CFA20D0A00005D
:1052B0006C6973743A202020BFC9D3C3B5C4BAAF98
:1052C000CAFDC1D0B1ED0D0A0A00000069643A20A0
:1052D00020202020BFC9D3C3BAAFCAFDB5C44944FA
:1052E000C1D0B1ED0D0A0A006865783A202020206F
:1052F000B2CECAFD3136BDF8D6C6CFD4CABE2CBA9E
:10530000F3B8FABFD5B8F12BCAFDD7D6BCB4D6B422
:10531000D0D0BDF8D6C6D7AABBBB0D0A0A00000084
:105320006465633A20202020B2CECAFD3130BDF83A
:10533000D6C6CFD4CABE2CBAF3B8FABFD5B8F12BB3
:10534000CAFDD7D6BCB4D6B4D0D0BDF8D6C6D7AA7D
:10535000BBBB0D0A0A00000072756E74696D653A78
:10536000312CBFAAC6F4BAAFCAFDD4CBD0D0BCC6CC
:10537000CAB13B302CB9D8B1D5BAAFCAFDD4CBD065
:10538000D0BCC6CAB13B0D0A0A000000C7EBB0B4DE
:10539000D5D5B3CCD0F2B1E0D0B4B8F1CABDCAE42F
:1053A000C8EBBAAFCAFDC3FBBCB0B2CECAFDB2A255
:1053B000D2D4BBD8B3B5BCFCBDE1CAF82E0D0A00EF
:1053C0002D2D2D2D2D2D2D2D2D2D2D2D2D2D2D2D0D
:1053D0002D2D2D2D2D2D2D2D2D2D414C49454E544E
:1053E000454B2D2D2D2D2D2D2D2D2D2D2D2D2D2DB7
:1053F0002D2D2D2D2D2D2D2D2D2D2D200D0A000087
:105400002D2D2D2D2D2D2D2D2D2D2D2D2D2D2D2DCC
:105410002D2D2D2D2D2D2D2D2DBAAFCAFDC7E5B566
:10542000A52D2D2D2D2D2D2D2D2D2D2D2D2D2D2D34
:105430002D2D2D2D2D2D2D2D2D2D2D2D200D0A0019
:10544000AC00002025730D0A00000000EEA000F063
:1054500069FE00200B901AE0FB4909689DF82C209A
:1054600001EBC20101AB02AA486803A900F070FC7D
:10547000F54800689DF82C1050F8312003A9F3A0DE
:1054800000F050FE9DF82C00401CC0B20B90EE487E
:10549000007D9DF82C108842DEDCAFF2CC3000F0AD
:1054A00041FE83E0AFF2D83000F03CFE0BAA03A926
:1054B000204600F029FD9DF82C00C8B9694603A8D4
:1054C00000F0BBFB0B909DF82C0020B9E4A00099E4
:1054D00000F028FE0EE09DF82C00042801D00220E8
:1054E0006BE5E2A000F01EFE0120D749C87501E07F
:1054F000022062E5DCA000F015FE57E0DAA000F023
:1055000011FE0BAA03A9204600F0FEFC9DF82C001A
:10551000C8B9694603A800F090FB0B909DF82C00D9
:1055200020B9D7A0009900F0FDFD0EE09DF82C00F9
:10553000042801D0022040E5D4A000F0F3FD0020B3
:10554000C149C87501E0022037E5C7A000F0EAFDB7
:105550002CE0C5A000F0E6FD0BAA03A9204600F050
:10556000D3FC9DF82C00C8B9694603A800F065FB80
:105570000B909DF82C0078B9B349009881F8EC00A5
:10558000084690F8EC0018B1C5A000F0CBFD07E08C
:10559000CAA000F0C7FD03E002200EE502200CE5E2
:1055A000B1A000F0BFFD01E0012006E500BF002032
:1055B00003E510B50121C848FFF702FC4FF6FF7163
:1055C000C548FEF793FF0021C348FEF78DFF00207A
:1055D0009D49C1F8F00010BD10B50121BE48FFF78C
:1055E000E6FB012808D19848D0F8F0004FF6FF718B
:1055F00008449549C1F8F000B748FEF779FF924991
:10560000D1F8F01008449049C1F8F0000846D0F8ED
:10561000F00010BD10B50121AF48FFF7D4FB012801
:105620000AD18949086980470021AB48FEF75CFF31
:105630006421A948FEF75AFF0121A748FFF7D4FBD0
:1056400010BD7FB504460D4601210420FEF721FB65
:10565000ADF800500020ADF802000194ADF808004C
:1056600069469D48FEF7F7FE012211469A48FFF76A
:1056700093FB01219848FEF777FF1E208DF80C0060
:1056800003208DF80D008DF80E0001208DF80F001D
:1056900003A8FDF742FC7FBD10B5044604EBC4002F
:1056A00000EB04100122C2EB800081B24FF47A704B
:1056B000FFF7C7FF01206449C87510BD30B595B02C
:1056C000054613AB12AA09A9284600F041FB04467F
:1056D00014B1204615B030BD0020149026E05A4980
:1056E00009689DF8502001EBC20113AB11AA48686C
:1056F00001A900F02DFB04460CB12046EAE709A9F8
:1057000001A800F067FA60B99DF844009DF84810C0
:10571000884201DD0220DDE79DF850004A49887586
:105720000AE09DF85000401CC0B214904648007D2D
:105730009DF850108842D2DC00BF4348007D9DF8A0
:105740005010884201D10420C4E714A9284600F073
:105750004CFC04460CB12046BCE79DF850003A4989
:1057600048750020B6E72DE9F0419AB03648847DAF
:10577000007DA04202DC1AB0BDE8F0813249096820
:1057800001EBC40106AB07AA486808A900F0E0FADB
:1057900008A952A000F0C6FC0026B9E02A48008BF8
:1057A0000121B1400840D8B122214EA000F0BAFC3E
:1057B000304600F00DFC24492431471839464AA0F0
:1057C00000F0B0FC222147A000F0ACFC304600F015
:1057D000FFFB1D492431084410A941F826008DE043
:1057E000304600F0F5FB18492431085810A941F85B
:1057F00026001548C07D30B910A850F826103BA0EF
:1058000000F090FC7AE073E02D2D2D2D2D2D2D2D07
:105810002D2D2D2D2D2D2D2D2D2D2D2D2D2D2D2DB8
:105820002DBAAFCAFD204944202D2D2D2D2D2D2D13
:105830002D2D2D2D2D2D2D2D2D2D2D2D2D2D2D2D98
:105840002D2D2D2D200D0A00AC0000202573206980
:10585000642069733A0D0A3058253038580D0A0013
:105860004845583A305825580D0A00003136BDF8E1
:10587000D6C6B2CECAFDCFD4CABE210D0A000000E2
:105880004445433A256C750D0A0000003130BDF8DF
:10589000D6C6B2CECAFDCFD4CABE210D0A000000C2
:1058A00052756E2054696D652043616C63756C613F
:1058B00074696F6E204F4E0D0A00000052756E2005
:1058C00054696D652043616C63756C6174696F6EBA
:1058D000204F46460D0A0000000800400D0A2573BF
:1058E000280000002563000025730000256C75006A
:1058F00010A850F8261095A000F014FC9DF81C008C
:10590000401EB04202D093A000F00CFC701CC6B246
:105910009DF81C008642FFF641AF8FA000F002FC0C
:10592000FFF747FE8D48407D0B280DD2DFE800F0E1
:10593000060D151E27323F4E5F72870087490968A2
:1059400051F834008047054690E0844A126852F8C6
:10595000341010988847054688E0804B1B6853F840
:105960003420DDE91001904705467FE07B4F3F681A
:1059700057F8343010A807C89847054676E0DFF896
:10598000DCC1DCF800C05CF8347010A80FC8B84760
:1059900005466BE01498DFF8C4C10090DCF800C045
:1059A0005CF8347010A80FC8B84705465EE0DDE922
:1059B0001401DFF8A8C1CDE90001DCF800C05CF8F3
:1059C000347010A80FC8B84705464FE0DDE914123F
:1059D0001698DFF888C1CDE900120290DCF800C00B
:1059E0005CF8347010A80FC8B84705463EE0DDE902
:1059F0001423DDE91610DFF864C1CDE90023CDE9F9
:105A00000210DCF800C05CF8347010A80FC8B8476A
:105A100005462BE0DDE91523DDE91710CDE901236B
:105A2000CDE903101498DFF834C10090DCF800C011
:105A30005CF8347010A80FC8B847054616E0DDE9D9
:105A40001623DDE91810CDE90223CDE90410DDE9C4
:105A50001401DFF808C1CDE90001DCF800C05CF8F2
:105A6000347010A80FC8B847054600BF00BFFFF745
:105A7000B3FD9DF8180001280CD13848C07D20B92D
:105A8000294637A000F04EFB07E0294636A000F07B
:105A900049FB02E033A000F045FB304890F8EC00F1
:105AA00088B12E48D0F8F0000A21B0FBF1F201FBDA
:105AB00012072A48D0F8F000B0FBF1F83A46414608
:105AC0002CA000F02FFB00BF55E670B531480088D0
:105AD00000F40040002833D02E48057800202E49DD
